:020000040800F2
:10000000E0530020C5350008E9350008EB3500084D
:10001000EF350008F3350008F73500080000000050
:100020000000000000000000000000004501000882
:10003000FD3500080000000085010008B11400082B
:10004000DF350008DF350008DF350008DF35000840
:10005000DF350008DF350008DF350008DF35000830
:10006000DF350008DF350008DF350008DF35000820
:10007000DF350008DF350008DF350008DF35000810
:10008000DF350008DF350008DF350008DF35000800
:10009000DF350008DF350008DF350008DF350008F0
:1000A000DF350008DF350008DF350008DF350008E0
:1000B000DF350008DF350008133C0008DF35000895
:1000C000DF350008DF350008DF350008DF350008C0
:1000D000DF350008CD360008DF350008DF350008C1
:1000E000DF350008DF350008DF350008DF350008A0
:1000F000DF350008DF350008DF350008DF35000890
:10010000DF350008DF350008DF350008DF3500087F
:10011000F53D0008DF350008DF350008DF35000851
:10012000DF350008DF350008DF350008DF3500085F
:10013000DFF80CD004F0AAFA00480047FD3A0008A6
:10014000E05300201F4B19680868B0E8F00F80F3F7
:100150000988BFF36F8F4FF0000080F311884EF0D5
:100160000D0E70470000000005480068006880F32D
:10017000088862B6BFF34F8FBFF36F8F00DF00BFF9
:1001800008ED00E0EFF30980BFF36F8F0D4B1A68A5
:1001900020E9F00F106008B54FF0BF0080F3118820
:1001A00000F03EFE4FF0000080F31188BDE80840EB
:1001B00019680868B0E8F00F80F30988BFF36F8F03
:1001C000704700BF00000020EFF311804FF0BF0127
:1001D00081F31188704780F311887047EFF3058031
:1001E000704700F1080141604FF0FF31816000F17C
:1001F0000801C160016100210160704700210161B7
:10020000704742684A6093688B6093685960916058
:10021000086103685B1C0360704710B502460B68F9
:100220005C1C0CB9106907E002F1080000E04068AE
:10023000446824689C42FAD944684C604C68A160C8
:10024000886041600A611468641C146010BD014636
:100250000A69D1E901309860D1E90103586050681A
:10026000884201D188685060002008611068401EF3
:1002700010601068704770B505460E462C4601F0B8
:10028000FDF8D4E90F12206801FB02006060002035
:10029000A0632068A060E06B401E226C216800FB18
:1002A0000210E0604FF0FF306064A06476B920690E
:1002B00008B9012000E0002080B904F1100000F02E
:1002C0007AFF01280AD101F0CFF807E004F110000D
:1002D000FFF787FF04F12400FFF783FF01F0DBF84D
:1002E000012070BD2DE9F04705460E4691464FF0BE
:1002F0000008C5B14C2001F008F904469CB105FB8B
:1003000006F0471C384601F000F92060206838B13B
:10031000E563266401212046FFF7ADFFA04602E019
:10032000204601F045F94046BDE8F08710B5044687
:1003300001F0A4F811E0606A08B9012000E0002093
:1003400038B904F1240000F036FF18B100F0C5FF01
:1003500000E005E0A06C401EA064A06C0028EADC70
:1003600000BF4FF0FF30A06401F095F801F086F86F
:1003700011E0206908B9012000E0002050B904F123
:10038000100000F018FF08B100F0A7FF606C401EDD
:10039000606400E002E0606C0028EADC00BF4FF01F
:1003A000FF30606401F077F810BD70B5054601F0CC
:1003B00065F8A86BE96B884201D1012400E00024B4
:1003C00001F069F8204670BD70B504460E4615462A
:1003D000206C38B9206870BB606800F0C5FF002051
:1003E000606028E07DB93146226CA06803F0DEFD34
:1003F000216CA0680844A060D4E9011088421AD397
:100400002068A06017E03146226CE06803F0CEFD62
:10041000216CE068401AE0602168E068884203D2FD
:10042000216C6068401AE060022D04D1A06B10B10D
:10043000A06B401EA063A06B401CA06370BD2DE9A3
:10044000FF4182B006460F461D464FF00008344675
:1004500000BF01F013F8A06BE16B884201D3022DBD
:1004600018D12A4639462046FFF7AEFF606A08B920
:10047000012000E0002038B904F1240000F09BFEC8
:10048000012801D100F0F0FF01F005F8012006B0CD
:10049000BDE8F081049818B900F0FDFF0020F6E7F0
:1004A000B8F1000F04D1684600F0E6FE4FF00108F5
:1004B00000F0F1FF00F0F3FB00F0E0FF606C401C87
:1004C00008B900206064A06C401C08B90020A0643A
:1004D00000F0E1FF04A9684600F0D5FEC0B920464F
:1004E000FFF763FF70B104F11000049900F01FFEE4
:1004F0002046FFF71BFF00F02FFB0028A9D100F0DA
:10050000B3FFA6E72046FFF711FF00F025FBA0E7A9
:100510002046FFF70BFF00F01FFB0020B7E770B588
:1005200005464C2000F0F1FF0446D4B10020606085
:100530002060A060E060A0630120E06300202064F0
:10054000401E6064A06404F11000FFF74AFE04F14D
:100550002400FFF746FE00231A4619462046FFF7FF
:100560006EFF204670BD2DE9F047054689461646C8
:100570001F462C46FFF728FE8246A06BE16B88429F
:1005800001D3022F1CD13A4649462046FFF71CFFF3
:10059000A06C401C70B9606A08B9012000E000201E
:1005A00058B904F1240000F006FE30B12EB101204C
:1005B000306002E0A06C401CA0644FF0010801E034
:1005C0004FF000085046FFF706FE4046BDE8F087B2
:1005D00070B5054600F052FFA86B08B9012400E091
:1005E000002400F058FF204670BD70B504460D464B
:1005F000206870B1216CE0680844E0606168E068E0
:10060000884201D32068E0602846226CE16803F04C
:10061000CDFC70BD2DE9FF4383B0054688461E46DC
:100620004FF000092C4600BF00F028FFA06B80B3FC
:10063000E76841462046FFF7D8FFB6B9A06B401ED9
:10064000A063206810B900F04CFE6060206908B912
:10065000012000E00020B0B904F1100000F0ABFD73
:10066000012810D100F000FF0DE0E760606A08B9D2
:10067000012000E0002030B904F1240000F09BFDCF
:1006800008B100F0F1FE00F006FF012007B0BDE860
:10069000F083FFE7059818B900F0FDFE0020F5E7AC
:1006A000B9F1000F04D101A800F0E6FD4FF00109F7
:1006B00000F0F1FE00F0F3FA00F0E0FE606C401C88
:1006C00008B900206064A06C401C08B90020A06438
:1006D00000F0E1FE05A901A800F0D5FD08BB204609
:1006E000FFF776FFB8B1206830B900F0C7FE606848
:1006F00000F0FAFD00F0CFFE04F12400059900F0AF
:1007000016FD2046FFF712FE00F026FA00288BD1D6
:1007100000F0AAFE88E72046FFF708FE00F01CFA6A
:1007200082E72046FFF702FE00F016FA0020ADE750
:100730002DE9F0470546884616462C46FFF744FD4E
:100740008146A06BE8B141462046FFF74EFFA06B03
:10075000401EA063606C401C70B9206908B901207C
:1007600000E0002058B904F1100000F024FD30B181
:100770002EB10120306002E0606C401C60640127F3
:1007800000E000274846FFF726FD3846BDE8F08721
:100790002DE9F047054688462C46FFF715FD8146B2
:1007A000A06B38B1E76841462046FFF71EFFE760BF
:1007B000012600E000264846FFF70DFD3046BDE863
:1007C000F08770B5044600F059FEA56B00F063FE9B
:1007D000284670BD70B50446254600F04FFED5E9A9
:1007E0000E10461A00F057FE304670BD0146886B69
:1007F000704770B504462546286810B1286800F097
:10080000D7FE284600F0D4FE70BD01468A6B0AB9B7
:10081000012000E00020704701468A6BCB6B9A42B2
:1008200001D1012000E000207047000010B5002435
:1008300007E004EB8401F64A02EB8100FFF7D1FCEC
:10084000641C052CF5D3F348FFF7CBFCF248FFF707
:10085000C8FCF248FFF7C5FCF148FFF7C2FCF148BD
:10086000FFF7BFFCEB48F0490860EB48EF49086030
:1008700010BD2DE9F04704460F4615469946DDF8B0
:100880002080002607E0B95D04F134008155B85D91
:1008900000B902E0761C102EF5D300BF00214320E2
:1008A0000155052D00D30425E5626564201DFFF781
:1008B000A5FC04F11800FFF7A1FC2461C5F10500B7
:1008C000A0616462BDE8F08770B505460E46482019
:1008D00000F01BFE044664B11EB9A80000F015FE2E
:1008E00000E030462063206B18B9204600F060FE1F
:1008F0000024204670BD2DE9FF4F81B0804615468B
:100900009946DDE90E7A28461099FFF7DDFF044687
:10091000002C4ED0681E216B01EB800B2BF0070BD7
:1009200000953A462046119B0299FFF7A2FF4A46DE
:100930004146584600F06EFD2060BAF1000F01D02C
:10094000CAF8004000F09AFDB9480068401CB84958
:100950000860B848006840B9B648046008460068B6
:1009600001280CD1FFF762FF09E0B348006830B9F5
:10097000B0480068C06AB84201D8AE480460AF48C9
:100980000068401CAD490860AD49E06A09688842CA
:1009900002D9AB49E06A0860E16A01EB81019C4A37
:1009A00002EB8100211DFFF72CFC012600F073FDF6
:1009B00001E04FF0FF36012E09D19F48006830B1A9
:1009C0009C480068C06AB84201D200F04DFD304634
:1009D00005B0BDE8F08F94490968096809B901219B
:1009E00000E0002121B14FF0FF31964A116006E08E
:1009F0008D490968C968C868924A416811607047A2
:100A000070B5054600F03AFD15B98A48006800E067
:100A100028460446201DFFF71AFCA06A18B104F10D
:100A20001800FFF714FC211D7D48FFF7EAFB8648FC
:100A30000068401C8449086080480068401C7F4969
:100A4000086000F028FD7C48006860B179480068C3
:100A5000844202D100F008FD05E000F00FFDFFF731
:100A6000BAFF00F018FD70BD2DE9F041002777486E
:100A70000068002864D176480068401C744908600A
:100A8000084606688EB96848D0F800806748006854
:100A9000654908606548C0F800806E480068401CE1
:100AA0006C490860FFF797FF00BF66480068864200
:100AB0003AD300BF5C480068006808B9012000E034
:100AC000002020B14FF0FF305E4908602BE056480F
:100AD0000068C068C4686568AE4202D259480560C3
:100AE00021E0201DFFF7B3FBA06A18B104F1180044
:100AF000FFF7ADFB5249E06A0968884202D95049C4
:100B0000E06A0860E16A01EB8101414A02EB810081
:100B1000211DFFF776FB4749E06A0968C96A8842E8
:100B2000C8D30127C6E700BF42480068C06A00EB8F
:100B30008000374951F82000012806D9012704E038
:100B400045480068401C444908604448006800B1BA
:100B500001273846BDE8F08170B5002500F08EFC15
:100B60003A480068401E3949086008460068002875
:100B70004AD12F480068002846D023E02748C068A3
:100B8000C46804F11800FFF762FB201DFFF75FFB4C
:100B90002B49E06A0968884202D92949E06A08605D
:100BA000E16A01EB81011A4A02EB8100211DFFF786
:100BB00028FB2049E06A0968C96A884202D30120FB
:100BC000264908601548006808B9012000E00020A7
:100BD0000028D3D02048006878B10AE0FFF744FF2E
:100BE00010B101201D4908601B480068401E1A49C9
:100BF0000860194800680028F0D1184800680128EA
:100C000002D1012500F030FC00F045FC284670BD03
:100C1000A4000020080100201C0100203001002059
:100C2000440100205801002004000020080000209A
:100C300010000020000000201C0000202C000020DC
:100C400018000020300000200C000020340000209C
:100C50001400002028000020200000202400002094
:100C600010B50446FE4800684460FE4800688442AF
:100C700007D2FB480168091DFB480068FFF7CDFA61
:100C80000CE0F7480168091DF8480068FFF7C5FA4D
:100C9000F7480068844201D2F548046010BDF54869
:100CA0000068401CF349086070472DE9F04704468E
:100CB00088464FF00009FFF7F2FFEA48076820680E
:100CC00000EB08052068B84207D92068A8420BD974
:100CD000BD4209D94FF0010906E02068A84201D8B9
:100CE000BD4201D94FF001092560B9F1000F07D0CD
:100CF000DB480068001DFFF7AAFA2846FFF7B0FF9F
:100D0000FFF72AFF06460EB900F0AEFBBDE8F087FC
:100D100070B5044600267CB1FFF7C1FFD1480068DA
:100D20000519CF480068001DFFF791FA2846FFF724
:100D300097FFFFF711FF06460EB900F095FB70BD57
:100D400070B5044600F09AFB14B9C548006800E08D
:100D500020460646F56A00F09EFB284670BD2DE948
:100D6000F04707460D464FF00009052D00D3042536
:100D700000F084FB17B9BA48006800E03846044622
:100D8000666CAE4248D0B5420BD9B5480068844283
:100D90000DD0B3480068C06AA84208D84FF00109D6
:100DA00005E0AF480068844201D14FF00109D4F852
:100DB0002C80E16A606C884200D1E5626564A069BC
:100DC00000F0004010B9C5F10500A06108EB8801F2
:100DD000A94A02EB81016069884201D1012000E04B
:100DE000002098B1201DFFF732FAA449E06A096893
:100DF000884202D9A149E06A0860E16A01EB8101F9
:100E00009D4A02EB8100211DFFF7FBF9B9F1010FAB
:100E100001D100F029FB00BF00F03DFBBDE8F087E9
:100E20009448006818B10120954908602CE0002022
:100E30009349086004E091480068401E8F490860AB
:100E40008E48006800EB80008B4951F8200008B9FB
:100E5000012000E000200028EDD18849096801EB5D
:100E60008101854A02EB810041684968416000F1D7
:100E7000080142688A4202D141684968416041687C
:100E8000C968774A116000BF704770B5054600F029
:100E9000F5FA15B97248006800E028460446201D9E
:100EA000FFF7D5F9A06A18B104F11800FFF7CFF9E0
:100EB000211D7448FFF7A5F900F0EDFA68480068B5
:100EC000844212D17048006810B100F0CDFA15E0EC
:100ED0006C4800686D490968884203D10020604968
:100EE00008600BE0FFF79CFF08E06748006828B146
:100EF00000F0C4FAFFF76FFD00F0CDFA70BD10B539
:100F0000014600200A465F4C5369A34201D10123E8
:100F100000E0002373B15E4C936AA34201D1012328
:100F200000E0002333B9936A0BB9012300E00023EA
:100F300003B1012010BD70B505462C4644B34848A6
:100F40000068844224D000F099FA2046FFF7D7FFCA
:100F500001281BD1201DFFF77AF94849E06A09688A
:100F6000884202D94549E06A0860E16A01EB8101E3
:100F7000414A02EB8100211DFFF743F93849E06A3D
:100F80000968C96A884201D300F06EFA00F083FA5A
:100F900070BD2DE9F041054600262C46FFF714F9F7
:100FA00007462046FFF7ABFF012823D131480068F0
:100FB000D8B92B49E06A0968C96A884200D301267A
:100FC000201DFFF744F92D49E06A0968884202D9DB
:100FD0002A49E06A0860E16A01EB8101264A02EBD6
:100FE0008100211DFFF70DF904E004F118012848E4
:100FF000FFF707F93846FFF7EEF83046BDE8F08115
:1010000010B50446206B00F0D3FA204600F0D0FA69
:1010100010BD70B523E0FFF742FE1E48006808B916
:10102000012000E000200546FFF796FDBDB900F065
:1010300025FA1848C068C468201DFFF708F913484E
:101040000068401E1149086013480068401E12499C
:10105000086000F020FA2046FFF7D2FF00BF1DE035
:1010600000000020140000200800002004000020E0
:101070003000002034000020A400002018000020D0
:1010800024000020580100201C0000201000002037
:1010900030010020440100200C000020CC480068F2
:1010A0000028B8D170BD00BFFFF7B3FFC948006882
:1010B0000128F9D900F0D8F9F6E71FB50020009013
:1010C0000190029003468022C3A10390C448FFF719
:1010D00012FC0446012C09D1FFF776F80120C14922
:1010E00008600020C049086000F0A8F91FBD10B5D5
:1010F000FFF76AF80020BB49086000F0B4F910BDA2
:1011000010B500F0BBF9B848046800F0C4F92046F7
:1011100010BD70B5FFF758F80546B3480468284677
:10112000FFF759F8204670BDB0480068704770B5A9
:1011300006460C46AE48016818313046FFF76DF898
:10114000AB480068001DFFF782F8601C30B9A84862
:101150000168091DA748FFF754F805E0A248006898
:1011600005192846FFF77CFD70BD2DE9F0410746C3
:101170000D46144645F000409D49096888619C4829
:10118000016818313846FFF73CF899480068001D9F
:10119000FFF75DF8601C30B995480168091D954856
:1011A000FFF72FF805E09048006806193046FFF772
:1011B00057FDBDE8F08170B50646F068C46804F1DB
:1011C0001800FFF744F88C480068A0B9201DFFF70D
:1011D0003EF88A49E06A0968884202D98749E06A8C
:1011E0000860E16A01EB81017A4A02EB8100211D6E
:1011F000FFF707F804E004F118018148FFF701F850
:101200007B49E06A0968C96A884204D9012501203E
:101210007C49086000E00025284670BD2DE9F041BA
:1012200005460F4647F000402860EC682846FFF767
:101230000EF8201DFFF70BF87049E06A0968884234
:1012400002D96E49E06A0860E16A01EB8101614AF6
:1012500002EB8100211DFEF7D4FF6549E06A0968B1
:10126000C96A884204D9012601206649086000E065
:1012700000263046BDE8F0816349096801605A499B
:1012800009684160704770B504460D4600F0F6F8F5
:10129000554802682868401C08B9002619E05A49D8
:1012A00020680968884204D06068904201D801260D
:1012B0000FE06068101A2968884209D228686168BE
:1012C000511A401A28602046FFF7D6FF002600E09A
:1012D000012600F0E0F8304670BD01204949086061
:1012E000704743490868704770B505462C46002D85
:1012F00039D03F49E06A0968C96A884233D2A06997
:1013000000F0004028B93A480068C06AC0F1050002
:10131000A061E16A01EB81012E4A02EB8101606963
:10132000884201D1012000E00020C0B1201DFEF75D
:101330008EFF2F480068C06AE0623049E06A0968A1
:10134000884202D92D49E06A0860E16A01EB810117
:10135000204A02EB8100211DFEF753FF03E02448E1
:101360000068C06AE06270BD70B505462C460DB3DA
:10137000616CE06A88421DD0201DFEF768FF606C3A
:10138000E062A06900F0004018B9E06AC0F1050011
:10139000A0611A49E06A0968884202D91749E06ADF
:1013A0000860E16A01EB81010A4A02EB8100211D1C
:1013B000FEF727FF70BD0E49096888690C49096866
:1013C000C96AC1F105010A4A1268916170470000BB
:1013D0000C000020A400002049444C4500000000FF
:1013E000A71000081C00002014000020100000209E
:1013F00000000020580100203400002018000020C8
:10140000300100202400002028000020FEF7DCFE30
:1014100000BFFEE7001F4FF080730360001F0160F4
:10142000001F2B4B03601438026020387047294896
:101430004FF0E021486107200861704710B5264849
:10144000006840F47F00244908600846006840F0C6
:101450007F400860FFF7EBFF002020490860FEF79F
:1014600083FE002010BD70474FF080501A491C3990
:101470000860BFF34F8FBFF36F8F704710B5FEF753
:10148000A3FE16480068401C14490860BFF34F8F44
:10149000BFF36F8F10BD10B510480068401E0F4994
:1014A00008600846006810B90020FEF794FE10BDE1
:1014B00010B5FEF789FEFFF7D7FA20B14FF0805044
:1014C00005491C3908600020FEF785FE10BD0000AC
:1014D0000D1400083F19010020ED00E03800002045
:1014E000434A22F00700434A10600022414B5A60F1
:1014F00044F2F832404B5A6000221A60014644F22E
:10150000F8324A601A460A6070472DE9F0410446F5
:101510004FF00008FFF7C3FB3848006820B9FFF719
:10152000DFFF01203549086044B1083404F00700AA
:1015300020B104F00700C0F108000444002C32D0B0
:1015400044F2F83084422ED22A4F3846056801E032
:101550002F462D686868A04202D228680028F7D17B
:10156000254885421FD0386800F10808286838608F
:101570006868001B102810D92E196868001B70605D
:101580006C6071681B4800E00068026852688A421B
:10159000FAD302683260066000BF194968680968BA
:1015A000081A17490860FFF7D7FA4046BDE8F081EE
:1015B00070B506463546B6B1083D2C46FFF76FFBC1
:1015C00061680C4800E00068026852688A42FAD3F9
:1015D0000268226004600A49606809680844084992
:1015E0000860FFF7B9FA70BD05480068704770479A
:1015F000740100203C000020440000205000002026
:101600004C0000200CB50020019000906C48006850
:1016100040F480306A49086000BF6948006800F4FF
:10162000003000900198401C0190009818B9019872
:10163000B0F5006FF1D16248006800F4003010B1DD
:101640000120009001E0002000900098012843D183
:101650005C48006840F010005A490860084600687D
:1016600020F0030008600846006840F002000860AF
:1016700053484068524948600846406848600846F8
:10168000406840F4806048600846406820F47C1060
:1016900048600846406840F4E81048600846006822
:1016A00040F08070086000BF4548006800F000709E
:1016B0000028F9D04248406820F0030040494860C3
:1016C0000846406840F00200486000BF3C4840685F
:1016D00000F00C000828F9D10CBD10B5FFF792FFFF
:1016E00010BD10B53648006840F00100344908606C
:1016F0000846406834490840314948600846006857
:10170000324908402E4908600846006820F48020CD
:1017100008600846406820F4FE0048604FF41F004F
:101720008860FFF7DAFF4FF000602949086010BDBC
:1017300010B5002100200022214B5B6803F00C0152
:1017400021B1042906D0082928D107E0214B224CD9
:10175000236027E01F4B204C236023E0184B5B687D
:1017600003F47010164B5B6803F48032022303EB22
:10177000904022B9194B4343174C23600DE0104BA6
:101780005B6803F4003323B1144B4343124C2360D2
:1017900003E0104B4343104C236003E00D4B0E4C11
:1017A000236000BF00BF064B5B68C3F303130C4C00
:1017B000E15C094B1B68CB40074C236010BD000067
:1017C00000100240002002400000FFF8FFFFF6FE7C
:1017D00008ED00E000127A005400002000093D00EE
:1017E0005800002031490143314A1160704770B5FB
:1017F000002100230F22C47804B32D4C246804F484
:10180000E064C4F5E064210AC1F10403CA404478ED
:1018100004FA03F18478144021430901254C067829
:10182000A155047804F01F050124AC4005786D1122
:10183000AD0005F1E025C5F8004109E0047804F0A9
:101840001F050124AC401C4D0678761145F8264052
:1018500070BD1A4A0A400243154B1B1F1A6070479D
:1018600039B1134A121D12680243114B1B1D1A6035
:1018700006E00F4A121D126882430D4B1B1D1A60B1
:101880007047042808D14FF0E021096941F00401B4
:101890004FF0E022116107E04FF0E021096921F0EB
:1018A00004014FF0E0221161704700000000FA05CA
:1018B0000CED00E000E400E080E100E080FFFF1FAD
:1018C00010B50121480700F02EFD00214FF0005017
:1018D00000F029FD10BD30B5002200235A4C2268CB
:1018E00040F6FE748440A243D1E900452C438D6844
:1018F0002C43CD6844EA050303FA00F42243524C1A
:10190000226030BD0021016041608160C16070478C
:1019100039B14D4A1268012383401A434A4B1A6079
:1019200006E0494A1268012383409A43464B1A60F5
:10193000704741B1444A12684FF4805383401A43C0
:10194000414B1A6007E0404A12684FF480538340CD
:101950009A433D4B1A60704710B551B13A4A121D77
:10196000126804090123A3401A43374B1B1D1A6058
:1019700009E0354A121D126804090123A3409A4365
:10198000314B1B1D1A6010BD40B12F49091D09685C
:1019900041F003012C4A121D116007E02A49091D7C
:1019A000096821F00301284A121D1160704710B523
:1019B0003AB1254B1B6801FA00F42343224C236003
:1019C00006E0214B1B6801FA00F4A3431E4C236080
:1019D00010BD08B5002200921B4A009200F10802D7
:1019E000009B1A440092009A116008BD08B50022BD
:1019F0000092154A009200F11402009B1A440092D2
:101A0000009A116008BD30B500240023082802D1D7
:101A100042EA012401E042EA01440B4B00F12005B7
:101A20002B441C6030BD08B50146002000900648DC
:101A300000902C2000EB9100009A10440090009838
:101A4000006880B208BD00000074004001684FF6D5
:101A5000FE72114001600021016041608160C1603F
:101A60008D49884208D18C490839496841F00F01F5
:101A7000894A083A51608AE087491431884208D17E
:101A800085490839496841F0F001834A083A5160B4
:101A90007DE081492831884208D17F490839496869
:101AA00041F470617C4A083A516070E07A493C31F7
:101AB000884208D178490839496841F47041764A2A
:101AC000083A516063E074495031884208D1724944
:101AD0000839496841F470216F4A083A516056E06C
:101AE0006D496431884208D16B490839496841F42D
:101AF0007001694A083A516049E067497831884283
:101B000008D165490839496841F07061624A083A6C
:101B100051603CE06149884206D1011F096841F0EB
:101B20000F01021F116032E05C491431884208D174
:101B30005A49091F096841F0F001584A121F116003
:101B400025E056492831884208D15449091F0968BF
:101B500041F47061514A121F116018E04F493C3145
:101B6000884208D14D49091F096841F470414B4A28
:101B7000121F11600BE049495031884207D1474993
:101B8000091F096841F47021444A121F116070470F
:101B900010B50022026847F6F0739A430C6A8B680E
:101BA00023430C6923434C6923438C692343CC6949
:101BB00023434C6A23438C6A23431A430260CB6855
:101BC00043600B6883604B68C36010BD00210160F7
:101BD00041608160C160016141618161C1610162F7
:101BE00041628162704721B1026842F001020260E5
:101BF00004E002684FF6FE731A40026070471AB1A3
:101C000003680B43036002E003688B430360704783
:101C1000416070470146486880B270470146002025
:101C2000002201F080531BB11C4B083B1A6802E0F4
:101C3000194B083B1A6802EA01030BB1012000E0CE
:101C40000020704700F0805119B11449091F086045
:101C500002E011490839486070470146002000221F
:101C600001F080531BB10D4B083B1A6802E00A4B90
:101C7000083B1A6802EA01030BB1012000E00020D2
:101C8000704700F0805119B10449091F086002E053
:101C900001490839486070470800024008040240C2
:101CA00010B50446CC48844208D10121042000F03C
:101CB0002DFB0021042000F029FB46E0C7488442A8
:101CC00008D10121082000F021FB0021082000F0AC
:101CD0001DFB3AE0C248844208D10121102000F0E7
:101CE00015FB0021102000F011FB2EE0BD488442BE
:101CF00008D10121202000F009FB0021202000F064
:101D000005FB22E0B848844208D10121402000F0C0
:101D1000FDFA0021402000F0F9FA16E0B3488442B1
:101D200008D10121802000F0F1FA0021802000F08C
:101D3000EDFA0AE0AE48844207D10121801500F097
:101D4000E5FA0021A01500F0E1FA10BD10B501215F
:101D5000084600F0DBFA0021012000F0D7FA10BDA0
:101D60002DE9F04102460025002600200023002432
:101D7000002791F803C00CF00F0591F803C00CF098
:101D8000100CBCF1000F03D091F802C04CEA05051D
:101D900091F800C0BCF1000F31D0146800202BE096
:101DA0004FF0010C0CFA00F3B1F800C00CEA030686
:101DB0009E4220D183004FF00F0C0CFA03F7BC4376
:101DC00005FA03FC4CEA040491F803C0BCF1280FA7
:101DD00006D14FF0010C0CFA00FCC2F814C00AE066
:101DE00091F803C0BCF1480F05D14FF0010C0CFA7B
:101DF00000FCC2F810C0401C0828D1D31460B1F810
:101E000000C0BCF1FF0F34DD546800202EE000F16B
:101E1000080C4FF0010808FA0CF3B1F800C00CEA06
:101E200003069E4221D183004FF00F0C0CFA03F7FA
:101E3000BC4305FA03FC4CEA040491F803C0BCF16E
:101E4000280F05D100F1080C08FA0CF8C2F814802C
:101E500091F803C0BCF1480F07D100F1080C4FF016
:101E6000010808FA0CF8C2F81080401C0828CED3EC
:101E70005460BDE8F0814FF6FF710180022181704E
:101E80000421C17070470246002093680B400BB1DB
:101E9000012000E0002070470146886880B270474A
:101EA00002460020D3680B400BB1012000E0002067
:101EB00070470146C86880B2704701617047416150
:101EC00070470AB1016100E041617047C16070472D
:101ED0004FF480320A438261816182618269826942
:101EE000704702460020434B18684FF68073184035
:101EF00040EA021008433F4B186070473E49C861F2
:101F00007047F0B50A46002300240021002500F0A8
:101F10000046B6F1004F02D1364EF16901E0354E70
:101F20007168C0F3034583B200F44016B6F5401F54
:101F300008D121F070612F4E766826F070662D4F23
:101F40007E6012E000F48016B6F5801F06D10326ED
:101F500006FA05F4A14341F0706106E0460D360132
:101F600003FA06F6B14341F0706122B1460D360125
:101F700003FA06F6314300F00046B6F1004F02D1F5
:101F80001C4EF16101E01B4E7160F0BD30B50022C6
:101F90008B071C0F0F2303FA04F2164B08338C1027
:101FA00053F824309343134C08348D1044F82530F3
:101FB00023468C1053F824308C07240F00FA04F4C5
:101FC00023430C4C08348D1044F8253030BD0A49A9
:101FD000DC3108607047000000080140000C01403F
:101FE000001001400014014000180140001C014095
:101FF000002001400000014000002042DF4800684E
:1020000040F00100DD49086008464068DC490840AE
:10201000DA49486008460068DA490840D74908604C
:102020000846006820F4802008600846406820F4D4
:10203000FE0048604FF41F0088607047CF49096870
:1020400021F48031CD4A11601146096821F48021C4
:102050001160B0F5803F03D0B0F5802F0ED106E0BF
:10206000C649096841F48031C44A116007E0C34998
:10207000096841F4A021C14A116000E000BF00BF1F
:10208000704710B501460022002300204A11012AA2
:1020900002D1BA4C236806E0022A02D1B74C236A67
:1020A00001E0B64C636A01F01F02012494401C4019
:1020B0000CB1012000E0002010BD38B500200090D8
:1020C0000024002500BF3120FFF7DBFF0546009804
:1020D000401C00900098B0F5006F01D0002DF2D0A8
:1020E0003120FFF7CEFF08B1012400E00024204694
:1020F00038BD01460020A14A106820F0F80040EAEF
:10210000C10010607047A049086070470246002077
:102110009A4B586820F47C1042EA01031843974B0D
:102120005860704798490866704701460020934AF6
:10213000506820F003000843506070478F484068A3
:1021400000F00C007047014600208C4A506820F0D7
:10215000F00008435060704701460020874A5068ED
:1021600020F4E06008435060704701460020834A35
:10217000506820F4605040EAC1005060704729B1B7
:102180007E4A527A02437D4B5A7204E07B4A527A6D
:1021900082437A4B5A7270477B49D8310860704746
:1021A00001460020754A506820F4404008435060C2
:1021B00070470021714A20321170704A82F8201055
:1021C000012802D004280AD104E001216B4A203200
:1021D000117005E00521694A2032117000E000BF4E
:1021E00000BF70476949086070476449096A014344
:1021F000624A11627047654944390860704730B5DA
:1022000000210022002400235C4D6D6805F00C01C4
:1022100021B1042905D0082923D105E05C4D0560D2
:1022200022E05B4D05601FE0544D6D6805F47012AF
:10223000524D6D6805F48034022505EB92421CB9BD
:10224000544D554305600BE04C4D6D6805F4003569
:102250001DB1504D5543056002E04D4D554305609D
:1022600002E04B4D056000BF00BF444D6D6805F0B6
:10227000F0010909484D6B5C0568DD4045603F4D44
:102280006D6805F4E061090A434D6B5C4568DD400B
:1022900085603A4D6D6805F46051C90A3E4D6B5C2E
:1022A0004568DD40C560354D6D6805F44041890BDA
:1022B0003A4D6B5CC568B5FBF3F5056130BD29B1DE
:1022C0002E4A526902432D4B5A6104E02B4A52694F
:1022D00082432A4B5A61704729B1284A92690243C6
:1022E000264B9A6104E0254A92698243234B9A6106
:1022F000704729B1214AD2690243204BDA6104E0D8
:102300001E4AD26982431D4BDA61704729B11B4ACC
:10231000D2680243194BDA6004E0184AD26882435B
:10232000164BDA60704729B1144A12690243134B05
:102330001A6104E0114A12698243104B1A61704716
:1023400012494039086070470F49C86470470B490B
:10235000C87170470948406A40F080700749486278
:10236000704701460020054A92680A400AB10120E0
:1023700000E0002070470149887270470010024059
:102380000000FFF8FFFFF6FE0000424280044242D8
:1023900000127A0000093D0068000020780000204B
:1023A00010B50446FE48844208D10121C014FFF74D
:1023B000ADFF0021E014FFF7A9FFC4E0B4F1804FA6
:1023C00008D101210846FFF7AEFF00210120FFF7E9
:1023D000AAFFB8E0F348844208D101210220FFF7A8
:1023E000A2FF00210220FFF79EFFACE0EE488442EE
:1023F00008D101210420FFF796FF00210420FFF7F8
:1024000092FFA0E0E948844208D101210820FFF7AB
:102410008AFF00210820FFF786FF94E0E448844209
:1024200008D101211020FFF77EFF00211020FFF7C7
:102430007AFF88E0DF48844208D101212020FFF79D
:1024400072FF00212020FFF76EFF7CE0DA48844213
:1024500008D101214014FFF759FF00216014FFF754
:1024600055FF70E0D548844209D10121C804FFF727
:102470004DFF00214FF40020FFF748FF63E0D048F4
:10248000844209D101210805FFF740FF00214FF4E4
:102490008010FFF73BFF56E0CA48844209D1012172
:1024A0004805FFF733FF00214FF40010FFF72EFF20
:1024B00049E0C548844208D101214020FFF733FF9D
:1024C00000214020FFF72FFF3DE0C048844208D1A3
:1024D00001218020FFF727FF00218020FFF723FF45
:1024E00031E0BB48844208D101218015FFF71BFF72
:1024F0000021A015FFF717FF25E0B648844209D157
:1025000001210804FFF702FF00214FF48030FFF79C
:10251000FDFE18E0B048844209D101214804FFF7CC
:10252000F5FE00214FF40030FFF7F0FE0BE0AB4862
:10253000844208D101218804FFF7E8FE00214FF40E
:102540008020FFF7E3FE10BD00220288944B9842E2
:102550000ED0994B98420BD0B0F1804F08D0914BE0
:10256000984205D0904B984202D0904B984204D1AB
:102570004FF68F731A404B881A438D4B984207D001
:102580008C4B984204D04FF6FF431A40CB881A4335
:1025900002808B8883850B880385814B98420BD002
:1025A000854B984208D08B4B984205D08A4B984275
:1025B00002D08A4B984201D10B7A03860123838291
:1025C000704770B5002400220023058C4FF6FE767C
:1025D00035400584028C8388048B4FF68F752C4020
:1025E000B51E2C400D882C43751E2A400D892A43A8
:1025F0004D882A436A4DA8420BD06F4DA84208D09F
:10260000744DA84205D0744DA84202D0734DA84223
:1026100013D14FF6F7752A404D892A434FF6FB75C3
:102620002A408D882A434FF6FF652B404FF6FF5511
:102630002B408D892B43CD892B4383800483CD8808
:102640008586028470BD70B5002400220023058CAD
:102650004FF6EF7635400584028C8388048B48F66C
:10266000FF752C404FF6FF452C400D884FF6FF7646
:1026700006EA05252C434FF6DF752A400D8906EA48
:1026800005152A434D8806EA05152A43444DA842FC
:1026900002D0494DA8421DD14FF67F752A404D8981
:1026A0004FF6FF7606EA05152A434FF6BF752A4016
:1026B0008D8806EA05152A434FF6FF352B404FF269
:1026C000FF752B408D8906EA85052B43CD8906EAE7
:1026D00085052B4383800483CD880587028470BDE4
:1026E00070B5002400220023058C4FF6FF663540AC
:1026F0000584028C8388848B4FF68F752C404FF6AF
:10270000FC752C400D882C434FF6FF552A400D894F
:102710004FF6FF7606EA05252A434D8806EA052589
:102720002A431F4DA84202D0234DA8421DD14FF28B
:10273000FF752A404D894FF6FF7606EA05252A43A4
:102740004FF6FF352A408D8806EA05252A434EF6C6
:10275000FF752B404DF6FF752B408D8906EA051558
:102760002B43CD8906EA05152B4383808483CD88CE
:102770008587028470BD70B5002200230024058C7B
:102780004EF6FF7635400584038C8488828B48F6AC
:10279000FF752A404FF6FF452A400D8820E00000D3
:1027A000002C01400004004000080040000C0040E4
:1027B000001000400014004000340140004C014073
:1027C000005001400054014000180040001C00402F
:1027D000002000400040014000440140004801400A
:1027E0004FF6FF7606EA05252A434DF6FF752B4086
:1027F0000D8906EA05352B434D8806EA05352B433E
:10280000FA4DA84202D0FA4DA84208D14BF6FF7506
:102810002C408D894FF6FF7606EA85152C4384807F
:102820008283CD88A0F84050038470BD828B4FF224
:10283000FF331A408283828B4FF6FF7303EA012332
:102840001A4382837047F0B50C46154600220021DA
:102850000026078C4EF6FF7C07EA0C070784828B64
:10286000018C4FF6FF7707EA043640F6FF473A40FF
:102870004FF6FF7707EA05273A434FF6FF7707EA57
:1028800003373A43D94FB8420ED0D94FB8420BD094
:10289000B0F1804F08D0D74FB84205D0D64FB842DC
:1028A00002D0D64FB84206D14DF6FF77394046F4F4
:1028B0008057394305E047F6FF57394044F48057C5
:1028C000394382830184F0BD828B4FF6F3731A4043
:1028D0008283828B0A4382837047F0B50C4615468B
:1028E000002200210026078C4FF6FF6C07EA0C0738
:1028F0000784828B018C4FF6FF7707EA04264FF698
:102900000C773A404FF6FF7707EA03172F433A4315
:10291000B64FB8420ED0B64FB8420BD0B0F1804F90
:1029200008D0B44FB84205D0B34FB84202D0B34F2D
:10293000B84206D14FF6FF57394046F48077394305
:1029400005E04FF2FF57394044F4807739438283E2
:102950000184F0BD028B4FF2FF331A400283028BD9
:102960004FF6FF7303EA01231A4302837047F0B561
:102970000C461546002200210026078C4FF6EF7CFE
:1029800007EA0C070784028B018C4FF6FF7707EAF2
:10299000041640F6FF473A404FF6FF7707EA033741
:1029A0003A434FF6FF7707EA05273A438F4FB8427D
:1029B0000ED08F4FB8420BD0B0F1804F08D08D4F62
:1029C000B84205D08C4FB84202D08C4FB84206D1E5
:1029D0004FF6DF77394046F01007394305E04FF6F0
:1029E0005F77394044F01007394302830184F0BD1A
:1029F000028B4FF6F3731A400283028B0A43028361
:102A00007047F0B50C46154600220021068C4FF6A3
:102A1000FE773E400684028B018C4FF60C763240E6
:102A20007E1C06EA03162E433243704EB0420ED08F
:102A30006F4EB0420BD0B0F1804F08D06D4EB04217
:102A400005D06D4EB04202D06C4EB04206D14FF66A
:102A5000FD76314044F00106314305E04FF6F5764E
:102A6000314044F00106314302830184F0BD70B56A
:102A700005460C465D4885420ED05D4885420BD028
:102A8000B5F1804F08D05B48854205D05A48854251
:102A900002D05A48854200D100E000BF208850B9DA
:102AA0002389A28861882846FFF7ABFFE188284682
:102AB000FFF79EFF25E0208804280AD12389A288F9
:102AC00061882846FFF753FFE1882846FFF742FF59
:102AD00017E0208808280AD12389A288618828461F
:102AE000FFF7FBFEE1882846FFF7EEFE09E02389A9
:102AF000A28861882846FFF7A6FEE1882846FFF7EE
:102B000095FE70BD2DE9F04105460C4600260127D3
:102B1000608808B9022600E00026A088012801D1BB
:102B2000022700E001272088A0B92389A2886188B4
:102B30002846FFF766FFE1882846FFF759FF2389FB
:102B40003A4631462846FFF712FFE1882846FFF74C
:102B500001FF13E02389A28861882846FFF707FF59
:102B6000E1882846FFF7F6FE23893A463146284693
:102B7000FFF747FFE1882846FFF73AFFBDE8F081FD
:102B80000A884B881A438B881A43CB881A430B89CF
:102B90001A434B891A438B891A43A0F84420704783
:102BA0004FF6FF71818000210180C1804180017258
:102BB00070470021018041808180C1800181418175
:102BC0008181C18170470021018041800121818084
:102BD0000021C180018170470021018041808180F6
:102BE000C18001814181818170470000002C01403A
:102BF000003401400004004000080040000C004088
:102C000021B1028842F00102028004E002884FF6FE
:102C1000FE731A400280704731B1B0F8442042F48C
:102C20000042A0F8442005E0B0F84420C2F30E02B0
:102C3000A0F8442070471AB183890B43838102E0D6
:102C400083898B43838170478182704741EA020305
:102C5000A0F8483070471AB183890B43838102E0A2
:102C600083898B438381704701894FF6F872114045
:102C7000018170470A46002101894FF68F73194080
:102C800011430181704730B504460D462946204660
:102C9000FFF7F0FF208940F00700208130BD2DE9CB
:102CA000F04104460D4616461F46602D06D13B46B0
:102CB000012231462046FFF75AFE05E03B4601223D
:102CC00031462046FFF79DFE29462046FFF7D2FFFA
:102CD000208940F007002081BDE8F08130B50C4626
:102CE00000210189C9B24FF6FF7505EA0325154396
:102CF00025432943018130BD2DE9F04105460E46AB
:102D000017469846002443463A4631462846FFF780
:102D1000E5FF2C894FF6F870044044F007044FF6A5
:102D20008F70044044F070042C81BDE8F081F0B550
:102D300004460D4616461F463B4632462946204667
:102D4000FFF7CCFF208940F480402081F0BD018551
:102D5000828270470A46002101884FF68F7319401E
:102D6000114301807047F0B50C4615461E46002100
:102D7000002200230189028B038C4FF6F87739403B
:102D800021434FF6FC473A4040F201173A434FF6D1
:102D9000DD773B404FF6FF7707EA06172F433B43AB
:102DA000018102830384F0BD0A460021018B4FF6A6
:102DB0008F7319401143018370470A460021018B2C
:102DC00048F6FF7319404FF6FF7303EA02231943D5
:102DD000018370470A460021818B4FF68F7319409B
:102DE0001143818370470A460021818B48F6FF73A7
:102DF00019404FF6FF7303EA02231943818370479A
:102E000021B1028842F08002028004E002884FF67D
:102E10007F731A400280704721B1828842F0040219
:102E2000828004E082884FF6FB731A4082807047EC
:102E300021B1828842F00802828004E082884FF645
:102E4000F7731A408280704721B1828842F00102F4
:102E5000828004E082884FF6FE731A4082807047B9
:102E60000A460021018B4FF6F77319401143018385
:102E700070470A460021018B4FF2FF7319404FF64D
:102E8000FF7303EA02231943018370470A460021B6
:102E9000818B4FF6F77319401143818370470A46BF
:102EA0000021818B4FF2FF7319404FF6FF7303EA45
:102EB00002231943818370470A460021018B4FF694
:102EC000FB7319401143018370470A460021018BAF
:102ED0004FF6FF3319404FF6FF7303EA02231943FD
:102EE000018370470A460021818B4FF6FB7319401E
:102EF0001143818370470A460021818B4FF6FF33CF
:102F000019404FF6FF7303EA022319438183704788
:102F10000A460021018B4FF67F731940114301834C
:102F200070470A460021018BC1F30E014FF6FF7373
:102F300003EA02231943018370470A460021818B6B
:102F40004FF67F7319401143818370470A46002171
:102F5000818BC1F30E014FF6FF7303EA022319437D
:102F6000818370470A460021018C4FF6FD7319409A
:102F70001143018470470A460021018C4FF6F77314
:102F800019401143018470470A460021018C4FF615
:102F9000DF7319404FF6FF7303EA021319430184EC
:102FA00070470A460021018C4FF67F7319404FF697
:102FB000FF7303EA02131943018470470A46002194
:102FC000018C4FF6FF5319404FF6FF7303EA0223BB
:102FD0001943018470470A460021018C4FF2FF73A8
:102FE00019404FF6FF7303EA022319430184704727
:102FF0000A460021018C4DF6FF7319404FF6FF730E
:1030000003EA023319430184704730B500230124D9
:103010008C40A3B2048C9C430484048C02FA01F516
:10302000ADB22C43048430BD30B5002304248C4061
:10303000A3B2048C9C430484048C02FA01F5ADB263
:103040002C43048430BD70B503460020002418468C
:10305000183001258D40ACB21D8CA5431D8409B1EB
:10306000082909D100EB6100056825F070050560AD
:103070000568154305600EE00D1FC5F34E05284495
:10308000056825F4E045056005684FF6FF7606EA19
:1030900002263543056070BD21B1028842F002026C
:1030A000028004E002884FF6FD731A4002807047E8
:1030B00021B1028842F00402028004E002884FF647
:1030C000FB731A400280704721B1828842F080026F
:1030D000828004E082884FF67F731A4082807047B6
:1030E00002884FF6F7731A40028002880A43028072
:1030F000704782884FF68F731A40828082880A4315
:103100008280704702894FF6F8731A400281028963
:103110000A430281704702894FF67F731A40028189
:1031200002890A4302817047818470478185704714
:10313000818670470187704781877047A0F84010EB
:10314000704702884FF6FF431A40028002880A4304
:10315000028070470146888E70470146088F70478D
:103160000146888F70470146B1F84000704701461C
:10317000888C70470146088D704702460020138AEC
:103180000B400BB1012000E000207047CA430282CF
:10319000704730B50246002000230024158A05EA56
:1031A0000103958905EA010413B10CB1012000E087
:1031B000002030BDCA4302827047000010B50446AB
:1031C000FB48844209D101218803FFF79FF80021C1
:1031D0004FF48040FFF79AF832E0F648844209D174
:1031E00001214804FFF79FF800214FF40030FFF75A
:1031F0009AF825E0F048844209D101218804FFF7BC
:1032000092F800214FF48020FFF78DF818E0EB488A
:10321000844209D10121C804FFF785F800214FF449
:103220000020FFF780F80BE0E548844208D1012137
:103230000805FFF778F800214FF48010FFF773F8C6
:1032400010BD2DE9F04786B005460E460024A24683
:1032500000BFA1460027B08900B100BF2F462C8ACD
:103260004CF6FF700440F08804432C82AC894EF683
:10327000F3100440B088318908437189084304433E
:10328000AC81AC8A4FF6FF400440B0890443AC8265
:1032900001A8FEF7B4FFC648874202D1DDF810A0AE
:1032A00001E0DDF80CA0A88900F4004040B10AEB71
:1032B000CA0000EB0A1031684900B0FBF1F807E0E2
:1032C0000AEBCA0000EB0A1031688900B0FBF1F884
:1032D0006420B8FBF0F004012009642101FB10898F
:1032E000A88900F4004040B1322000EBC900B0FBD7
:1032F000F1F000F00700044308E0322000EB091071
:103300006421B0FBF1F000F00F0004432C8106B003
:10331000BDE8F0874FF41651016000218180C18023
:1033200001810C21418100218181704710B5024645
:103330000020108A4FF2FF0318400B884C8823436B
:103340008C882343CC8823431843108210BD00216E
:10335000018041808180C180704721B1828942F41F
:103360000052828104E082894DF6FF731A40828107
:103370007047F0B50346002400260025002040F6E3
:103380006A17B94200D100BF1846C1F3421401F0D8
:103390001F06012707FA06F5012C01D10C3004E0C5
:1033A000022C01D1103000E014301AB107682F430D
:1033B000076002E00768AF430760F0BD1AB1838A77
:1033C0000B43838202E0838A8B4383827047028AA5
:1033D0004FF6F0731A400282028A0A430282704753
:1033E00082894FF2FF731A40828182890A43828167
:1033F000704721B1828942F00202828104E0828911
:103400004FF6FD731A4082817047028A4FF6DF73D0
:103410001A400282028A0A430282704721B1028A5C
:1034200042F48042028204E0028A4BF6FF731A40A3
:1034300002827047C1F30802828070470146888883
:10344000C0F308007047818941F001018181704714
:10345000028BD2B20283028B42EA012202837047BE
:10346000028B02F47F420283028B0A43028370477D
:1034700021B1828A42F02002828204E0828A4FF6E1
:10348000DF731A408282704721B1828A42F01002B3
:10349000828204E0828A4FF6EF731A40828270477C
:1034A00021B1828A42F00802828204E0828A4FF6C9
:1034B000F7731A408282704721B1828942F4004238
:1034C000828103E08289C2F30E028281704721B1BA
:1034D000828A42F40062828204E0828A4FF2FF73A1
:1034E0001A4082827047828A4FF6FB731A408282AA
:1034F000828A0A438282704721B1828A42F00202A4
:10350000828204E0828A4FF6FD731A4082827047FD
:1035100002460020B1F5007F00D100BF13880B40A8
:103520000BB1012000E00020704701F40072B2F5F9
:10353000007F00D100BFCA430280704770B50246C9
:10354000002400230025002040F66A16B14200D175
:1035500000BFC1F3421501F01F03012606FA03F371
:10356000012D02D19689334006E0022D02D1168A40
:10357000334001E0968A33400C12012606FA04F427
:103580001688344013B10CB1012000E0002070BD5A
:1035900010B50022002340F66A14A14200D100BFFA
:1035A0000A1201249440A3B2DC43048010BD000041
:1035B000003801400044004000480040004C0040FA
:1035C000005000400648804706480047FEE7FEE7F7
:1035D000FEE7FEE7FEE7FEE7FEE7FEE7FEE7FEE7C3
:1035E000E316000831010008704700BFFEE700BF86
:1035F000FEE700BFFEE700BFFEE770477047704779
:103600007047000008B54FF48060ADF8000004205A
:103610008DF8030069466048FEF7A2FB4FF4007086
:10362000ADF8000003208DF8020018208DF803008B
:1036300069465948FEF794FB08BD08B54FF4A060F1
:10364000FEF7D0F825208DF8000002208DF801004B
:1036500003208DF8020001208DF803006846FEF774
:10366000C6F86846FEF7C3F808BD10B5012144F25C
:103670000500FEF731FE10BD1FB50446FFF7F5FF4C
:10368000FFF7DBFFFFF7BEFF00940020ADF804005A
:10369000ADF80600ADF80800ADF80C000C20ADF850
:1036A0000A0069463D48FFF7CCFD002240F2255153
:1036B0003A48FFF75EFE002240F227713748FFF7D5
:1036C00058FE01213548FFF748FE1FBD10B540F2F6
:1036D00025513248FFF732FFA8B13048FFF7AEFE60
:1036E000C1B22F4802780078401C2D4B18702D482D
:1036F000815418460078802805D1002240F22551D7
:103700002648FFF736FE40F227712448FFF716FFE0
:10371000C8B125480088B0B1244802780078401C20
:10372000224B18702248815C1C48FFF783FE1F481B
:1037300000781D490988884205D1002240F227718E
:103740001648FFF716FE10BD0FB408B503A8009089
:103750001748009A029900F0DDFF002000901448FD
:1037600000F048FC10490880002010490870012230
:1037700040F227710948FFF7FCFD00BF40210748D0
:10378000FFF7C6FE0028F9D040210448FFF7CDFE20
:1037900001B05DF814FB0000000801400038014052
:1037A0007D000020EC4500207E0000207C000020F1
:1037B0006C45002000B585B001210420FEF78CFD8A
:1037C00001214807FEF795FD1020ADF810000020FC
:1037D0008DF8130003208DF8120004A91F48FEF78E
:1037E000BFFA0020009001900290022003906946E9
:1037F0000020FEF770F801210020FEF789F8002173
:103800000846FEF7E6F805B000BD2DE9F04704468E
:10381000204600F0D5FC81461149484600F023FCC3
:1038200081464FF08B41484600F0EBFB824600F0AA
:10383000E0FC07464FF066320A4B00F052FC0546AA
:1038400000F0EAFC8146484600F0BFFC85B22946FC
:103850000020FEF7BEF8BDE8F08700000008014038
:1038600000007A4466660A4070B504460025464862
:10387000008800F4004058B1002043490988C1F392
:103880000E01424A50542146104600F0A1FB054665
:10389000284670BD2DE9F04104460D461646002726
:1038A000002039490880FF2C0ED8A1B23848FFF714
:1038B000C1FD02E00120FDF72BFA80213448FFF71B
:1038C00027FE0028F6D003E0214632A000F071FA6E
:1038D000E5B1DEB1314806800FE00520FDF718FAAA
:1038E0002948008800F4004038B12846FFF7BCFFA3
:1038F00000B106E0002024490880284800880028FC
:10390000EBD100BF2548008800B901273846BDE843
:10391000F08110B5642222A124A0FFF7BBFF64222E
:1039200026A128A0FFF7B6FF4FF47A7228A129A09C
:10393000FFF7B0FF08B1012010BD4FF47A7224A147
:1039400028A0FFF7A7FF08B10220F5E74FF4FA72AD
:103950001FA12BA0FFF79EFF08B10320ECE74FF457
:10396000FA721BA129A0FFF795FF08B10420E3E735
:103970004FF4FA7216A12BA0FFF78CFF08B10520B7
:10398000DAE70020D8E70000980000200047002078
:10399000004C004025730D0A000000008C00002040
:1039A000434C4F5345204F4B0000000041542B43E4
:1039B0004950434C4F53453D310000005348555446
:1039C000204F4B0041542B4349505348555400005D
:1039D0004F4B000041542B4347434C4153533D222E
:1039E0004222000041542B434744434F4E543D3143
:1039F0002C224950222C22434D4E455422000000D7
:103A000041542B43474154543D31000041542B4312
:103A10004950435347503D312C22434D4E4554228B
:103A20000000000041542B434950484541443D317A
:103A30000000000000BF4FF6FF713648FEF73DFA68
:103A40004FF6FF713448FEF73AFA4FF4FA70FDF77B
:103A50005FF94FF6FF712F48FEF731FA4FF6FF710D
:103A60002D48FEF72AFA4FF4FA70FDF751F92B486A
:103A7000FEF712FA2A48FEF70FFA4FF4FA70FFF732
:103A8000C4FE00235A1E194626480068FCF7C2FDF2
:103A900025A000F05EFA26A000F05BFA4FF49672C3
:103AA00025A126A0FFF7F6FE48B925A0FFF74CFE9A
:103AB000FFF72FFF0546294624A0FFF745FE2948BA
:103AC00002882948018829A0FFF73EFE002408E06B
:103AD0002E4830F8142021462DA0FFF735FE601C3B
:103AE00084B20A2CF4DB2E48002000BF00231A46C3
:103AF00019460C480068FCF7A2FC9CE74FF41650EE
:103B0000FFF7BAFD27A0FFF71FFE00BF25A0FFF7B4
:103B10001BFEFBE700140140001C0140001801409F
:103B2000002001409C00002041542B48480D0A0011
:103B300042542B0D0A0000004F4B0000415400007E
:103B400053756363657373200D0A000067727072AA
:103B50007320726573756C742069732025640D0A77
:103B60000000000088000020860000204750494FD8
:103B7000452049532025782C204750494F4720495C
:103B800053202578202E0D0A000000006C460020EE
:103B900061646325642069732025642E0D0A00008A
:103BA000A0000020696E6974206973206F6B200D7E
:103BB0000A0000001FB501210420FEF79AFB41F620
:103BC0001F40ADF804000020ADF806006320ADF8FA
:103BD00008000020ADF80A0001A92448FEF7B4FC53
:103BE000012211462148FFF726F81E208DF800001B
:103BF00002208DF8010003208DF8020001208DF8CD
:103C000003006846FDF7F3FD01211848FEF7F8FFB1
:103C10001FBD10B501211548FFF7BBFA20B31448AA
:103C200000881E2805DA12480088401C10490880C8
:103C30000EE00F4800881E280AD10E48008840F484
:103C400000400C4908800A480088401C0849088048
:103C50000948008820B108480088401E06490880AD
:103C600001210248FFF7A6FA10BD0000000800403D
:103C700096000020980000208C00002010B5012143
:103C80000220FEF71CFB01211120FEF725FB01217C
:103C9000C804FEF72EFB10BD08B54FF40060ADF868
:103CA000000004208DF8030069466348FEF758F8C9
:103CB0004FF48060ADF8000003208DF8020018205A
:103CC0008DF8030069465C48FEF74AF808BD10B558
:103CD0005A48FDF7BBFE5A485A4908605A4848609E
:103CE000102088600020C8600861802048610020A2
:103CF0008861C86108624FF44050486200208862C1
:103D00004E48FDF745FF10BD08B54FF4A060FDF724
:103D100069FD34208DF8000002208DF80100032099
:103D20008DF8020001208DF803006846FDF75FFD65
:103D300008BD1FB50446FFF7A1FFFFF7E5FFFFF73A
:103D4000ABFFFFF7C4FF00940020ADF80400ADF80E
:103D50000600ADF80800ADF80C000C20ADF80A0024
:103D600069463748001FFFF76CFA012240F22551DF
:103D70003348001FFFF7FDFA01213148001FFFF70C
:103D8000ECFA012280212E48001FFFF717FB1FBD10
:103D900010B5044600212948FDF725FF2948C460D5
:103DA00001462648FDF7F4FE01212448FDF71BFFDC
:103DB00010BD0FB438B505A800902348009A0499A7
:103DC00000F0A8FC002000901F4800F013F984B216
:103DD0002046FFF7DDFF02E00120FCF799FF1B48BA
:103DE000FDF71CFF0028F7D01848FDF72BFF38BC63
:103DF0005DF814FB10B520211148001FFFF788FB68
:103E0000C8B10F48001FFFF719FBC4B21048008863
:103E100080280ADA00200F4908800D490888411CD3
:103E20000B4A11800C490C5405E00948008840F405
:103E300000400749088010BD0010014058040240AE
:103E4000044C004080470020804600200000021003
:103E500098000020960000200047002010B50121A6
:103E60000846FEF72CFA01210520FEF735FA01215C
:103E70004804FEF73EFA10BD08B50820ADF8000072
:103E800004208DF8030069464348FDF769FF0420CC
:103E9000ADF8000003208DF8020018208DF8030013
:103EA00069463D48FDF75CFF08BD10B53B48FDF78E
:103EB000CDFD3B483B4908603B4848601020886086
:103EC0000020C86008618020486100208861C861C6
:103ED00008624FF440504862002088622F48FDF786
:103EE00057FE10BD1FB50446FFF7B8FFFFF7C4FF2C
:103EF000FFF7DBFF00940020ADF80400ADF80600EA
:103F0000ADF80800ADF80C000C20ADF80A006946C9
:103F10002348001FFFF795F901212148001FFFF7F3
:103F20001CFA012280211E48001FFFF747FA1FBD1F
:103F300010B5044600211948FDF755FE1948C46024
:103F400001461648FDF724FE01211448FDF74BFEFB
:103F500010BD0FB438B505A800901348009A049915
:103F600000F0D8FB002000900F4800F043F884B226
:103F70002046FFF7DDFF02E00120FCF7C9FE4FF00D
:103F80000070FDF74BFE0028F6D04FF00070FDF7F3
:103F900059FE38BC5DF814FB000801408000024067
:103FA00004440040B04F0020B047002040EA010325
:103FB0009B0703D009E008C9121F08C0042AFAD2DF
:103FC00003E011F8013B00F8013B521EF9D27047A3
:103FD00030B505462A460B4612F8010B13F8014B83
:103FE00008B1A042F8D01CB1002802D06D1CF1E746
:103FF000284630BD421C10F8011B0029FBD1801A55
:10400000704780EA010210B502F00043400022D060
:104010004A001FD0010E01EB1261C0F35600C2F33B
:10402000560240F4000042F40002A0FB022000040B
:104030007F39140400D0401C50EA124001D44000E3
:10404000491EC2B20C0604EBD010401C4008802A66
:1040500002D003E0002010BD20F00100002900DAAA
:104060000020184310BD30B480EA010202F0004580
:1040700030F0004221F0004013D090B1C30DD40DB8
:10408000C2F31601C0F31600E41A41F4000140F433
:1040900000027D34914201D3641C00E04900002CF1
:1040A00002DA30BC002070474FF400000023914238
:1040B00001D3891A034340084FEA4101F7D151B1B6
:1040C000914202D14FF0004105E002D24FF00101D0
:1040D00001E06FF0010103EBC450284430BC00F054
:1040E000FEB82DE9F04D81EA030404F0004B21F005
:1040F000004514464FF0000A23F0004150EA050243
:1041000020D054EA01021DD0C5F30A570246C5F378
:104110001303C1F31300C1F30A5640F4801543F4AE
:104120008013A7EB0608101BD64608F2FD3873EB88
:10413000050002D308F1010801E092185B41B8F1D3
:10414000000F03DA00200146BDE8F08D00204FF497
:104150008011064684460EE0171B73EB050705D356
:10416000121B63EB050306434CEA010C49084FEAB6
:10417000300092185B4150EA0107EDD152EA03008A
:1041800012D082EA040083EA0501084305D0101B1F
:10419000AB4106D20122002306E000224FF000438B
:1041A00002E06FF0010253101AEB06004CEB0851CD
:1041B00010EB0A0041EB0B01BDE8F04D00F0C6B872
:1041C00096230022114600F093B820F00040C10D64
:1041D000C0F3160040F400007F2901DA0020704788
:1041E000962903DCC1F19601C84070479639884092
:1041F000704700F0004230F000400AD0C10D01F5D8
:104200006071C0F3160042EA0151C2084007114331
:10421000704700200146704701F0004330B421F0A0
:10422000004150EA010206D00A0DA2F56072C1F306
:104230001301002A02DC30BC00207047440F44EA1E
:10424000C104C100E01830BC00EBC25000F047B818
:1042500030B50B46014600202022012409E021FA56
:1042600002F59D4205D303FA02F5491B04FA02F553
:104270002844151EA2F10102F1DC30BD2DE9F05FEA
:104280000546002092469B468846064681464024C5
:104290001BE0284641464746224600F018FA53469E
:1042A0005A46C01A914110D311461846224600F0D2
:1042B000FFF92D1A67EB01084F4622460120002125
:1042C00000F0F6F917EB00094E41201EA4F101049D
:1042D000DFDC484631462A464346BDE8F09F0029C8
:1042E000A8BF7047401C490008BF20F0010070477C
:1042F00010B4B0FA80FC00FA0CF050EA010404BFDC
:1043000010BC704749B1CCF1200421FA04F411FA31
:104310000CF118BF012121430843A3EB0C01CB1D75
:104320004FEA00614FEA102042BF002010BC7047E6
:1043300000EBC35010440029A4BF10BC7047401CC0
:10434000490008BF20F0010010BC704710B5002BD9
:1043500008DA401C41F1000192185B411A4301D177
:1043600020F0010010BD2DE9F04D92469B4611B1A1
:10437000B1FA81F202E0B0FA80F22032904600F009
:1043800097F904460F4640EA0A0041EA0B015346FA
:104390005A46084313D0114653EA010019D0C8F118
:1043A0004002504600F093F905460E4650465946E5
:1043B000424600F07DF9084305D0012004E0204684
:1043C0003946BDE8F08D0020054346EAE0762C43EF
:1043D00037430A986305E40AA0EB08000022FD0AAF
:1043E00044EA47540A3002D500200146E9E70105B6
:1043F00010196941DDE9084500196941BDE8F04D32
:10440000A4E72DE9FE4F804681EA0300C00F0C4669
:10441000009021F0004123F00045B8EB0200A941D3
:1044200005D24046214690461C460B46024623F0E4
:104430000040104347D0270DC7F30A00C3F30A51C9
:104440000290401A019040286BDAC3F3130040F445
:10445000801B0098924620B10023D2EB030A63EB45
:104460000B0B01985946C0F14002504600F020F96C
:1044700006460D4650465946019A00F038F910EBB1
:1044800008006141002487EA115284EAE7731A4365
:1044900040D0009A62B3019A012A4FEA075215DC14
:1044A000001B61EB02014FF0004202EA0752CDE926
:1044B0000042001C41F5801132462B46FFF753FFA6
:1044C00003B0BDE8F08F40462146F9E7001B61EBE1
:1044D0000201001C41F5801300185B412018A2F571
:1044E000001747EB030140EAD570B6196D4111E0A2
:1044F0006D084FEA360645EAC0754FEA0752001BC1
:1045000061EB0201001C41F5801149084FEA3000BF
:104510000019514132462B4603B0BDE8F04FFFF77A
:1045200015BF0098012240000023D0EB020263EB8C
:10453000E073009821464FEAE074B8EB000061EBAD
:104540000401E9E783F000435BE781F0004158E7AD
:104550002DE9FE4F81EA030404F0004421F00041FC
:1045600000944FF0000B23F0004350EA01045ED0AA
:1045700052EA03045BD0C3F30A54C1F30A552C4436
:10458000A4F2F3340194A0FB0254C1F3130141F4EB
:104590008011C3F3130343F4801301FB024400FBB7
:1045A000034E840A970A44EA815447EA8357A4FBDE
:1045B000076802958D0A05FB07854FEA932C04FBDB
:1045C0000C542705029D4FEA065847EA1637B5EB0B
:1045D00008056EEB070C870E920E47EA811742EA38
:1045E0008312A7FB0201B6EB0B0164EB00042B0D59
:1045F00043EA0C335E1844EB1C50DA465146E7FBA5
:104600000201C5F313044FEA0B3343EA14534FEA94
:104610000432019C43EA0603A4F10C040294009CBA
:10462000CDE900B4FFF79FFE03B0BDE8F08F002096
:104630000146F9E7C1F30A52C1F3130140F2FF3317
:1046400041F480119A4202DA00200146704740F29C
:1046500033439A42A2F2334202DC524200F037B8AE
:1046600000F026B830B5002904DB4FF0004440428A
:1046700064EB0101002B04DB4FF00044524264EB79
:104680000303994208BF904230BD0000064C074D1D
:1046900006E0E06840F0010394E807009847103412
:1046A000AC42F6D3FBF748FDFC4F00081C50000855
:1046B000202A04DB203A00FA02F1002070479140E2
:1046C000C2F1200320FA03F3194390407047202AD7
:1046D00004DB203A21FA02F00021704721FA02F3AC
:1046E000D040C2F120029140084319467047202A69
:1046F00006DBCB17203A41FA02F043EAE07306E00A
:1047000041FA02F3D040C2F1200291400843194619
:104710007047000037B514460846064B6A462146E6
:1047200000F0CCF804466946002000F05EFC20460C
:104730003EBD0000EB4F000802E008C8121F08C190
:10474000002AFAD170477047002001E001C1121F12
:10475000002AFBD1704700002DE9FF5FDDE9022050
:10476000010DDDF838B0024318D044F61050A1F224
:10477000FF3141430D140F98012820D0A5EB0B0009
:10478000401C5FEA000A4FF00004474EDFF81C911E
:10479000A046504616D5CAF1000728E00F9801241C
:1047A00043A2012808D0002100980F9BC0E90021F6
:1047B000C0E90243BDE8FF9F6FEA0B01F4E7CBF1CC
:1047C0000000DEE7074612E0F80707D0224633462E
:1047D00040464946FFF7BCFE80468946224633469E
:1047E00010461946FFF7B4FE04460E467F10002F10
:1047F000EAD1DDE90201BAF1000F42464B4602DA86
:10480000FFF7A6FE01E0FFF76CFC04460E4600220F
:10481000284BFFF727FF03D84FF0FF30014607E092
:104820000022254B20463146FFF7EBFDFFF702FF44
:10483000102409E0002C0ADB0A220023FFF71EFDEA
:10484000019B30321A55641E50EA0102F2D1641CF9
:10485000019AC4F1110314440F9A012A03D00122D2
:1048600008430DD10AE0084304D000204FF0110B9B
:104870000F9080E7A3EB0B056D1E0DE05B4504DD9B
:104880004FF0000205F1010504E003DA4FF00002E9
:10489000A5F10105002AECD000980F99C0E902317A
:1048A000C0E9004586E70000000024400000F03F1A
:1048B000300000000000F0430000E03F2DE9FF4F12
:1048C00095B09B468946064600250FE2252877D1FC
:1048D00000242746F84A0121059400E0044316F815
:1048E000013F203B01FA03F01042F7D130782A282B
:1048F00011D06FF02F033078A0F13002092A16D8BA
:10490000059A44F0020402EB820203EB42021044D7
:10491000761C0590EFE759F8042B0592002A03DA7C
:10492000504244F40054059044F00204761C307860
:104930002E2816D116F8010F44F004042A280DD0B1
:104940006FF02F023078A0F13003092B09D807EB64
:10495000870302EB4303C718761CF3E759F8047B7F
:10496000761C30786C280FD006DC4C2817D06828CD
:104970000DD06A2814D104E0742810D07A280FD101
:104980000DE044F400140AE044F4801401E044F41F
:1049900040147278824202D104F58014761C761C91
:1049A000307866280BD013DC582877D009DC002833
:1049B00075D04528F6D04628F4D047281AD19DE175
:1049C00018E0632835D0642879D0652812D195E1A4
:1049D000702873D008DC6728F1D069286FD06E2862
:1049E0000DD06F2806D1B5E073282CD0752875D06E
:1049F000782874D05A46179990476D1C75E1C4F316
:104A00000250022809D003280DD0D9F8001004283C
:104A10000DD00D6009F1040967E1D9F80010EA171B
:104A2000C1E90052F6E7D9F800100D80F2E70D70E9
:104A3000F0E719F8041B8DF8001000208DF8010034
:104A4000EA46012003E059F804AB4FF0FF3061075C
:104A50004FF0000102D40DE008F101018846B9428F
:104A60000FDA8045F8DB1AF808100029F4D108E0C5
:104A700008F1010188468142FADB1AF80810002982
:104A8000F6D105985B46A0EB080721463846179AF1
:104A900000F094FA284400EB080507E04DE029E116
:104AA0000DE01AF8010B5A4617999047B8F1010822
:104AB000F7D25B4621463846179A13E142E00A22B4
:104AC0000092C4F302524FF0000A022A08D059F8AB
:104AD00004CB032A4FEAEC710AD00DE029E02AE06A
:104AE00009F1070121F00702F2E802C1914609E04D
:104AF0000FFA8CFC4FEAEC71042A03D14FFA8CFCBC
:104B00004FEAEC71002907DA0A460021DCF1000CBB
:104B100061EB02012D2202E0220504D52B228DF843
:104B20000420012203E0E20701D02022F7E79046AB
:104B300059E00A2102E010220DE010214FF0000A96
:104B400000910BE010224FF0000A44F00404082703
:104B5000009203E008224FF0000A0092C4F30252D0
:104B6000022A05D059F804CB0021032A08D009E015
:104B700009F1070121F00702F2E802C1914605E0C0
:104B80001FFA8CFC042A01D10CF0FF0C4FF0000836
:104B9000220728D5702806D0009B83F0100353EA23
:104BA0000A0305D00EE040228DF80420012208E01F
:104BB0005CEA010206D030228DF804208DF8050051
:104BC00002229046009B83F0080353EA0A030AD1AD
:104BD0005CEA010201D1620705D530228DF804207C
:104BE0004FF001087F1E582804D034A003900EA86F
:104BF00002900DE036A0F9E753466046009AFFF7B1
:104C00003DFB84460398825C0298401E029002702D
:104C10005CEA0100F0D1029806A9081A00F1200A06
:104C2000600702D524F4803400E00127574502DDF7
:104C3000A7EB0A0000E0002000EB0A0100900598B5
:104C40004144401A0590E00306D45B462146179A7A
:104C5000059800F0B3F90544002706E001A85A467C
:104C6000C05D179990476D1C7F1C4745F6DBE0033C
:104C70000CD55B462146179A059800F09FF905442C
:104C800004E030205A46179990476D1C0099481E41
:104C900000900029F5DC08E0029802995A46007855
:104CA000491C0291179990476D1CBAF10001AAF1B5
:104CB000010AF1DC65E100000928010030313233DE
:104CC0003435363738396162636465660000000048
:104CD0003031323334353637383941424344454632
:104CE0000000000000F058F90544761C30780028D8
:104CF0007FF4ECAD19B02846BDE8F08F620700D410
:104D0000062709F1070222F0070CFCE80223E1461E
:104D100003F000485FEA080C02D00FF2702C0DE09F
:104D20005FEA045C02D50FF2682C07E05FEAC47CFE
:104D300002D00FF2602C01E0AFF2700C4FF0FF38A0
:104D400023F00043CDF850C065280CD006DC452880
:104D500009D046281DD047283DD13DE0662818D00F
:104D600067287ED138E00021112F01DB112000E0FF
:104D7000781CCDE9000106A90EA8FFF7EDFCDDE9DE
:104D80000F010E9A03910021009207F1010A04918C
:104D90004DE04FF000400097CDE9011006A90EA8A4
:104DA000FFF7DAFCDDE90F0203920E9B1199002256
:104DB000DDF80CA00093049211B9791C00EB010AF4
:104DC000B7EB0A0004D4C0F1FF3007F1010A0490E8
:104DD000AAEB0700019044E0012F00DA012700212F
:104DE000112F01DD112000E03846CDE9000106A9B0
:104DF0000EA8FFF7B1FCDDE90F010E9A0391002127
:104E000004910092BA4621070CD40399514500DA67
:104E10008A46BAF1010F05DD009AAAF10101515C41
:104E2000302908D0B84202DA10F1040F06DA012165
:104E3000CDE9011015E0AAF10101E9E7002805DC40
:104E4000049901440491AAEB000102E0411C514580
:104E500000DD8A460499401A401C01904FF0004042
:104E60000290200704D40198504501DBCDF804805E
:104E700000208DF84F0002980DF14F07B0F1004F60
:104E800025D02B200E9002984FF0020800280CDA53
:104E9000404202902D200E9007E00A210298FFF771
:104EA000D7F93031029007F8011DB8F10001A8F1DF
:104EB0000108F2DC02980028EFD1791E0E980870E4
:104EC000307800F0200040F0450007F8020D12A8ED
:104ED000C01B00F107081498007800B1012000EB16
:104EE0000A01019801EBE07105984144401A401E07
:104EF0000590E00306D45B462146179A059800F01A
:104F00005DF805441498007818B15A4617999047EF
:104F10006D1CE00324D55B462146179A059800F0E6
:104F20004DF805441CE00498002807DBDDE9030187
:104F3000884203DD0098405C179901E01799302002
:104F40005A469047049805F10105401C04900198C9
:104F5000401E019004D12E205A46179990476D1C8F
:104F6000BAF10001AAF1010ADDDC05E017F8010B36
:104F70005A46179990476D1CB8F10001A8F1010835
:104F8000F4DC5B462146179A0598ABE62D0000003D
:104F90002B000000200000002DE9F0410446002510
:104FA0001E461746880404D405E039462020B04741
:104FB0006D1C641EF9D52846BDE8F0812DE9F0414D
:104FC000044600251E469046C80301D5302700E060
:104FD0002027880404D505E041463846B0476D1CBB
:104FE000641EF9D52846BDE8F0810A68531C0B60A1
:104FF0001070704738303836000000001C50000830
:1050000000000020A400000038470008C05000083D
:10501000A40000203C5300004847000800000000A6
:105020000000000000000000000000000000000080
:105030000000000000000000000000000000000070
:10504000000000000000000000000000FFFFFFFF64
:1050500000000000AAAAAAAA0000000000000000A8
:105060000000000000000000F84300000000000005
:1050700000A24A0400000000000000000102030436
:1050800006070809000000000102030401020304EE
:1050900006070809020406080000000000000000DE
:1050A000000000000000000000000000F44F0008B5
:1050B00000001F00000000000000000000000000D1
:0400000508000131BD
:00000001FF
