:020000040800F2
:1000000028570020253700086537000867370008A3
:100010006B3700086F3700087337000800000000D6
:10002000000000000000000000000000B90200080D
:100030007937000800000000F90200081D160008CA
:100040003F3700083F3700083F3700083F370008B8
:100050003F3700083F3700083F3700083F370008A8
:100060003F3700083F3700083F3700083F37000898
:100070003F3700083F3700083F3700083F37000888
:100080003F3700083F3700083F3700083F37000878
:100090003F3700083F3700083F3700083F37000868
:1000A0003F3700083F3700083F3700083F37000858
:1000B000F94900083F370008873D00083F3700082E
:1000C0003F3700083F3700083F3700083F37000838
:1000D0003F37000849380008D94800083F37000872
:1000E0003F3700083F3700083F3700083F37000818
:1000F0003F3700083F3700083F3700083F37000808
:100100003F3700083F3700083F3700083F370008F7
:10011000693F00083F3700083F3700083F370008B5
:100120003F3700083F3700083F3700083F370008D7
:1001300000F002F800F0B0F80AA090E8000C824449
:100140008344AAF10107DA4501D100F0A5F8AFF226
:10015000090EBAE80F0013F0010F18BFFB1A43F0A5
:1001600001031847206A0000406A00000A444FF06B
:10017000000C10F8013B13F0070408BF10F8014B06
:100180001D1108BF10F8015B641E05D010F8016B4B
:10019000641E01F8016BF9D113F0080F1EBF10F8AF
:1001A000014BAD1C0C1B09D16D1E58BF01F801CBD2
:1001B000FAD505E014F8016B01F8016B6D1EF9D555
:1001C0009142D6D37047000000230024002500266A
:1001D000103A28BF78C1FBD8520728BF30C148BFAA
:1001E0000B6070476E2904F0B385702904F0FC861B
:1001F000662906F05584652906F05284672906F0C1
:100200004F846129AFF3008003681B0A28BF41F0C7
:100210008001692904F06085642904F05D857529F1
:1002200004F05A856F2904F08786782904F0C8867F
:10023000E92904F01F86E42904F01C86F52904F05E
:100240001986EF2904F08486F82904F0C78603682C
:10025000DB0928BF41F08001632905F0A4827329DE
:1002600005F0A982E32905F0B482F32905F0B982EB
:10027000002070471FB505F00DFB04000020002191
:1002800006F02CF8401C60600020002106F010F8F9
:10029000E0601FBD10B510BD05F0CFFA1146FFF7A5
:1002A000E9FF03F0E6FC05F0ABFB03B4FFF7F2FF58
:1002B00003BC04F0B7FF00001F4B19680868B0E8E2
:1002C000F00F80F30988BFF36F8F4FF0000080F3C9
:1002D00011884EF00D0E70470000000005480068C0
:1002E000006880F3088862B6BFF34F8FBFF36F8F4B
:1002F00000DF00BF08ED00E0EFF30980BFF36F8F70
:100300000D4B1A6820E9F00F106008B54FF0BF00E0
:1003100080F3118800F03AFE4FF0000080F311885E
:10032000BDE8084019680868B0E8F00F80F3098854
:10033000BFF36F8F704700BF00000020EFF3118004
:100340004FF0BF0181F31188704780F31188704727
:10035000EFF30580704700F1080141604FF0FF3175
:10036000816000F10801C1600161002101607047F6
:1003700000210161704742684A6093688B6093680E
:1003800059609160086103685B1C0360704710B599
:1003900002460B685C1C01D1106907E002F10800FD
:1003A00000E04068446824689C42FAD944684C6084
:1003B0004C68A160886041600A611468641C146024
:1003C00010BD01460A69D1E901309860D1E9010305
:1003D00058605068884201D18868506000200861E8
:1003E0001068401E10601068704770B505460E46D4
:1003F0002C4601F0F9F8D4E90F12206801FB020045
:1004000060600020A0632068A060E06B401E226C4A
:10041000216800FB0210E0604FF0FF306064A064D0
:1004200076B9206908B9012000E0002080B904F104
:10043000100000F076FF01280AD101F0CBF807E0A8
:1004400004F11000FFF787FF04F12400FFF783FF9A
:1004500001F0D7F8012070BD2DE9F04705460E46A2
:1004600091464FF00008C5B14C2001F004F9044654
:100470009CB105FB06F0471C384601F0FCF82060F3
:10048000206838B1E563266401212046FFF7ADFFFF
:10049000A04602E0204601F041F94046BDE8F08761
:1004A00010B5044601F0A0F811E0606A08B9012017
:1004B00000E0002038B904F1240000F032FF18B148
:1004C00000F0C1FF00E005E0A06C401EA064A06C3D
:1004D0000028EADC00BF4FF0FF30A06401F091F883
:1004E00001F082F811E0206908B9012000E0002045
:1004F00050B904F1100000F014FF08B100F0A3FFA0
:10050000606C401E606400E002E0606C0028EADC81
:1005100000BF4FF0FF30606401F073F810BD70B59C
:10052000054601F061F8A86BE96B884201D101240E
:1005300000E0002401F065F8204670BD70B5044667
:100540000E461546206C38B9206870BB606800F014
:10055000C1FF0020606028E07DB93146226CA068B0
:1005600004F00DFB216CA0680844A060D4E90110E0
:1005700088421AD32068A06017E03146226CE068F8
:1005800004F0FDFA216CE068401AE0602168E06840
:10059000884203D2216C6068401AE060022D04D1C9
:1005A000A06B10B1A06B401EA063A06B401CA063A9
:1005B00070BD2DE9FF4182B006460F461D464FF043
:1005C0000008344600BF01F00FF8A06BE16B8842D1
:1005D00001D3022D18D12A4639462046FFF7AEFF37
:1005E000606A08B9012000E0002038B904F1240055
:1005F00000F097FE012801D100F0ECFF01F001F8B6
:10060000012006B0BDE8F081049818B900F0F9FFA8
:100610000020F6E7B8F1000F04D1684600F0E2FED2
:100620004FF0010800F0EDFF00F0EFFB00F0DCFF01
:10063000606C401C00D16064A06C401C00D1A064C0
:1006400000F0DFFF04A9684600F0D3FEC0B92046E1
:10065000FFF765FF70B104F11000049900F01DFE72
:100660002046FFF71DFF00F02DFB0028ABD100F066
:10067000B1FFA8E72046FFF713FF00F023FBA2E736
:100680002046FFF70DFF00F01DFB0020B9E770B515
:1006900005464C2000F0EFFF0446D4B10020606016
:1006A0002060A060E060A0630120E063002020647F
:1006B000401E6064A06404F11000FFF74CFE04F1DA
:1006C0002400FFF748FE00231A4619462046FFF78C
:1006D00070FF204670BD2DE9F04705468946164655
:1006E0001F462C46FFF72AFE8246A06BE16B88422C
:1006F00001D3022F1CD13A4649462046FFF71EFF80
:10070000A06C401C0ED1606A08B9012000E00020F6
:1007100058B904F1240000F004FE30B12EB10120DC
:10072000306002E0A06C401CA0644FF0010801E0C2
:100730004FF000085046FFF708FE4046BDE8F0873E
:1007400070B5054600F050FFA86B08B9012400E021
:10075000002400F056FF204670BD70B504460D46DB
:10076000206870B1216CE0680844E0606168E0686E
:10077000884201D32068E0602846226CE16804F0DA
:10078000FEF970BD2DE9FF4383B0054688461E463D
:100790004FF000092C4600BF00F026FFA06B80B38D
:1007A000E76841462046FFF7D8FFB6B9A06B401E68
:1007B000A063206810B900F04AFE6060206908B9A3
:1007C000012000E00020B0B904F1100000F0A9FD04
:1007D000012810D100F0FEFE0DE0E760606A08B964
:1007E000012000E0002030B904F1240000F099FD60
:1007F00008B100F0EFFE00F004FF012007B0BDE8F3
:10080000F083FFE7059818B900F0FBFE0020F5E73C
:10081000B9F1000F04D101A800F0E4FD4FF0010987
:1008200000F0EFFE00F0F1FA00F0DEFE606C401C1C
:1008300000D16064A06C401C00D1A06400F0E1FE17
:1008400005A901A800F0D5FD08BB2046FFF778FFF9
:10085000B8B1206830B900F0C7FE606800F0FAFD5A
:1008600000F0CFFE04F12400059900F016FD2046AB
:10087000FFF716FE00F026FA00288DD100F0AAFE40
:100880008AE72046FFF70CFE00F01CFA84E72046BA
:10089000FFF706FE00F016FA0020AFE72DE9F0475B
:1008A0000546884616462C46FFF748FD8146A06B54
:1008B000E8B141462046FFF750FFA06B401EA06301
:1008C000606C401C0ED1206908B9012000E00020B6
:1008D00058B904F1100000F024FD30B12EB1012010
:1008E000306002E0606C401C6064012700E000277B
:1008F0004846FFF72AFD3846BDE8F0872DE9F04766
:10090000054688462C46FFF719FD8146A06B38B195
:10091000E76841462046FFF720FFE760012600E038
:1009200000264846FFF711FD3046BDE8F08770B558
:10093000044600F059FEA56B00F063FE284670BD2A
:1009400070B50446254600F04FFED5E90E10461A54
:1009500000F057FE304670BD0146886B704770B599
:1009600004462546286810B1286800F0D7FE2846BE
:1009700000F0D4FE70BD01468A6B0AB9012000E088
:100980000020704701468A6BCB6B9A4201D101204F
:1009900000E000207047000010B5002407E004EBE1
:1009A0008401F64A02EB8100FFF7D5FC641C052C9C
:1009B000F5D3F348FFF7CFFCF248FFF7CCFCF24841
:1009C000FFF7C9FCF148FFF7C6FCF148FFF7C3FC8D
:1009D000EB48F0490860EB48EF49086010BD2DE98D
:1009E000F04704460F4615469946DDF8208000265C
:1009F00007E0B95D04F134008155B85D00B902E04B
:100A0000761C102EF5D300BF002143200155052D83
:100A100000D30425E5626564201DFFF7A9FC04F1FD
:100A20001800FFF7A5FC2461C5F10500A061646210
:100A3000BDE8F08770B505460E46482000F01BFE65
:100A4000044664B11EB9A80000F015FE00E030466F
:100A50002063206B18B9204600F060FE0024204679
:100A600070BD2DE9FF4F81B0804615469946DDE9FE
:100A70000E7A28461099FFF7DDFF0446002C4ED071
:100A8000681E216B01EB800B2BF0070B00953A469B
:100A90002046119B0299FFF7A2FF4A46414658465D
:100AA00000F06EFD2060BAF1000F01D0CAF80040DE
:100AB00000F09AFDB9480068401CB8490860B84881
:100AC000006840B9B64804600846006801280CD1A7
:100AD000FFF762FF09E0B348006830B9B04800682A
:100AE000C06AB84201D8AE480460AF480068401CF4
:100AF000AD490860AD49E06A0968884202D9AB494E
:100B0000E06A0860E16A01EB81019C4A02EB810026
:100B1000211DFFF730FC012600F073FD01E04FF0CE
:100B2000FF36012E09D19F48006830B19C4800680B
:100B3000C06AB84201D200F04DFD304605B0BDE8B4
:100B4000F08F94490968096809B9012100E0002182
:100B500021B14FF0FF31964A116006E08D490968D6
:100B6000C968C868924A41681160704770B5054607
:100B700000F03AFD15B98A48006800E028460446AE
:100B8000201DFFF71EFCA06A18B104F11800FFF742
:100B900018FC211D7D48FFF7EEFB86480068401CCD
:100BA0008449086080480068401C7F49086000F064
:100BB00028FD7C48006860B179480068844202D111
:100BC00000F008FD05E000F00FFDFFF7BAFF00F0B0
:100BD00018FD70BD2DE9F041002777480068002816
:100BE00064D176480068401C74490860084606686D
:100BF0008EB96848D0F80080674800686549086089
:100C00006548C0F800806E480068401C6C49086068
:100C1000FFF797FF00BF6648006886423AD300BFDF
:100C20005C480068006808B9012000E0002020B19D
:100C30004FF0FF305E4908602BE056480068C068FE
:100C4000C4686568AE4202D25948056021E0201DA3
:100C5000FFF7B7FBA06A18B104F11800FFF7B1FB6A
:100C60005249E06A0968884202D95049E06A08603E
:100C7000E16A01EB8101414A02EB8100211DFFF78E
:100C80007AFB4749E06A0968C96A8842C8D30127E4
:100C9000C6E700BF42480068C06A00EB80003749E1
:100CA00051F82000012806D9012704E045480068D2
:100CB000401C444908604448006800B10127384698
:100CC000BDE8F08170B5002500F08EFC3A48006860
:100CD000401E394908600846006800284AD12F485C
:100CE0000068002846D023E02748C068C46804F1A3
:100CF0001800FFF766FB201DFFF763FB2B49E06A36
:100D00000968884202D92949E06A0860E16A01EB72
:100D100081011A4A02EB8100211DFFF72CFB2049BB
:100D2000E06A0968C96A884202D30120264908603E
:100D30001548006808B9012000E000200028D3D041
:100D40002048006878B10AE0FFF744FF10B10120A5
:100D50001D4908601B480068401E1A490860194870
:100D600000680028F0D118480068012802D1012548
:100D700000F030FC00F045FC284670BD6801002002
:100D8000CC010020E0010020F40100200802002036
:100D90001C02002030000020340000200800002049
:100DA000000000201400002024000020100000207B
:100DB00028000020040000202C0000200C0000204F
:100DC00020000020180000201C00002010B5044660
:100DD000FE4800684460FE480068844207D2FB4831
:100DE0000168091DFB480068FFF7D1FA0CE0F748DD
:100DF0000168091DF8480068FFF7C9FAF74800685C
:100E0000844201D2F548046010BDF5480068401CDA
:100E1000F349086070472DE9F047044688464FF0D3
:100E20000009FFF7F2FFEA480768206800EB0805B1
:100E30002068B84207D92068A8420BD9BD4209D919
:100E40004FF0010906E02068A84201D8BD4201D94F
:100E50004FF001092560B9F1000F07D0DB480068A9
:100E6000001DFFF7AEFA2846FFF7B0FFFFF72AFF95
:100E700006460EB900F0AEFBBDE8F08770B504463B
:100E800000267CB1FFF7C1FFD14800680519CF48A3
:100E90000068001DFFF795FA2846FFF797FFFFF758
:100EA00011FF06460EB900F095FB70BD70B5044603
:100EB00000F09AFB14B9C548006800E020460646D9
:100EC000F56A00F09EFB284670BD2DE9F047074605
:100ED0000D464FF00009052D00D3042500F084FBDA
:100EE00017B9BA48006800E038460446666CAE425E
:100EF00048D0B5420BD9B548006884420DD0B348FC
:100F00000068C06AA84208D84FF0010905E0AF4860
:100F10000068844201D14FF00109D4F82C80E16AC5
:100F2000606C884200D1E5626564A06910F0004FF2
:100F300002D1C5F10500A06108EB8801A94A02EBC6
:100F400081016069884201D1012000E0002098B150
:100F5000201DFFF736FAA449E06A0968884202D9E1
:100F6000A149E06A0860E16A01EB81019D4A02EB58
:100F70008100211DFFF7FFF9B9F1010F01D100F048
:100F800029FB00BF00F03DFBBDE8F08794480068F6
:100F900018B10120954908602CE0002093490860B1
:100FA00004E091480068401E8F4908608E48006840
:100FB00000EB80008B4951F8200008B9012000E0C7
:100FC00000200028EDD18849096801EB8101854A9C
:100FD00002EB810041684968416000F10801426804
:100FE0008A4202D14168496841604168C968774ACC
:100FF000116000BF704770B5054600F0F5FA15B9ED
:101000007248006800E028460446201DFFF7D9F921
:10101000A06A18B104F11800FFF7D3F9211D744834
:10102000FFF7A9F900F0EDFA68480068844212D190
:101030007048006810B100F0CDFA15E06C48006807
:101040006D490968884203D10020604908600BE0BF
:10105000FFF79CFF08E06748006828B100F0C4FA79
:10106000FFF76FFD00F0CDFA70BD10B5014600200E
:101070000A465F4C5369A34201D1012300E00023DB
:1010800073B15E4C936AA34201D1012300E00023B7
:1010900033B9936A0BB9012300E0002303B10120A7
:1010A00010BD70B505462C4644B3484800688442DC
:1010B00024D000F099FA2046FFF7D7FF01281BD172
:1010C000201DFFF77EF94849E06A0968884202D985
:1010D0004549E06A0860E16A01EB8101414A02EB9F
:1010E0008100211DFFF747F93849E06A0968C96A9C
:1010F000884201D300F06EFA00F083FA70BD2DE94A
:10110000F041054600262C46FFF718F90746204611
:10111000FFF7ABFF012823D131480068D8B92B492C
:10112000E06A0968C96A884200D30126201DFFF7DA
:1011300048F92D49E06A0968884202D92A49E06ADB
:101140000860E16A01EB8101264A02EB8100211D62
:10115000FFF711F904E004F118012848FFF70BF933
:101160003846FFF7F2F83046BDE8F08110B5044686
:10117000206B00F0D3FA204600F0D0FA10BD70B515
:1011800023E0FFF742FE1E48006808B9012000E096
:1011900000200546FFF796FDBDB900F025FA184876
:1011A000C068C468201DFFF70CF913480068401E92
:1011B0001149086013480068401E1249086000F099
:1011C00020FA2046FFF7D2FF00BF1DE000000020FC
:1011D0000C000020340000203000002028000020F7
:1011E0002C00002068010020100000201C000020BE
:1011F0001C0200201400002008000020F401002040
:101200000802002004000020CC4800680028B8D163
:1012100070BD00BFFFF7B3FFC94800680128F9D9C6
:1012200000F0D8F9F6E71FB5002000900190029079
:1012300003468022C3A10390C448FFF712FC044672
:10124000012C09D1FFF77AF80120C149086000207C
:10125000C049086000F0A8F91FBD10B5FFF76EF88F
:101260000020BB49086000F0B4F910BD10B500F0D3
:10127000BBF9B848046800F0C4F9204610BD70B549
:10128000FFF75CF80546B34804682846FFF75DF8A9
:10129000204670BDB0480068704770B506460C46E1
:1012A000AE48016818313046FFF771F8AB48006866
:1012B000001DFFF786F8601C06D1A8480168091DCB
:1012C000A748FFF758F805E0A24800680519284626
:1012D000FFF77CFD70BD2DE9F04107460D46144631
:1012E00045F000409D49096888619C4801681831B3
:1012F0003846FFF740F899480068001DFFF761F88D
:10130000601C06D195480168091D9548FFF733F820
:1013100005E09048006806193046FFF757FDBDE824
:10132000F08170B50646F068C46804F11800FFF754
:1013300048F88C480068A0B9201DFFF742F88A4998
:10134000E06A0968884202D98749E06A0860E16A70
:1013500001EB81017A4A02EB8100211DFFF70BF8B6
:1013600004E004F118018148FFF705F87B49E06AC1
:101370000968C96A884204D9012501207C490860AE
:1013800000E00025284670BD2DE9F04105460F46D6
:1013900047F000402860EC682846FFF712F8201D4F
:1013A000FFF70FF87049E06A0968884202D96E4970
:1013B000E06A0860E16A01EB8101614A02EB8100A9
:1013C000211DFEF7D8FF6549E06A0968C96A8842AD
:1013D00004D9012601206649086000E00026304655
:1013E000BDE8F0816349096801605A4909684160B4
:1013F000704770B504460D4600F0F6F8554802688F
:101400002868401C01D1002619E05A492068096863
:10141000884204D06068904201D801260FE06068DD
:10142000101A2968884209D228686168511A401A3E
:1014300028602046FFF7D6FF002600E0012600F0D6
:10144000E0F8304670BD01204949086070474349C3
:101450000868704770B505462C46002D39D03F49C5
:10146000E06A0968C96A884233D2A06910F0004F67
:1014700005D13A480068C06AC0F10500A061E16A80
:1014800001EB81012E4A02EB81016069884201D1A2
:10149000012000E00020C0B1201DFEF792FF2F4880
:1014A0000068C06AE0623049E06A0968884202D98F
:1014B0002D49E06A0860E16A01EB8101204A02EBF4
:1014C0008100211DFEF757FF03E024480068C06A31
:1014D000E06270BD70B505462C460DB3616CE06AE4
:1014E00088421DD0201DFEF76CFF606CE062A06991
:1014F00010F0004F03D1E06AC0F10500A0611A4965
:10150000E06A0968884202D91749E06A0860E16A1E
:1015100001EB81010A4A02EB8100211DFEF72BFF3E
:1015200070BD0E49096888690C490968C96AC1F12A
:1015300005010A4A1268916170470000040000200A
:101540006801002049444C450000000013120008C7
:10155000140000200C0000200800002000000020E3
:101560001C0200202C00002010000020F4010020AC
:101570001C00002020000020FEF7E0FE00BFFEE778
:10158000001F4FF080730360001F0160001F2B4B92
:101590000360143802602038704729484FF0E0217A
:1015A000486107200861704710B52648006840F47C
:1015B0007F00244908600846006840F07F400860CA
:1015C000FFF7EBFF002020490860FEF787FE0020B0
:1015D00010BD70474FF080501A491C390860BFF3A6
:1015E0004F8FBFF36F8F704710B5FEF7A7FE1648F9
:1015F0000068401C14490860BFF34F8FBFF36F8F22
:1016000010BD10B510480068401E0F49086008461C
:10161000006810B90020FEF798FE10BD10B5FEF767
:101620008DFEFFF7D7FA20B14FF0805005491C39E5
:1016300008600020FEF789FE10BD00007915000843
:101640003F19010020ED00E038000020434A22F05D
:101650000700434A10600022414B5A6044F2F832BE
:10166000404B5A6000221A60014644F2F8324A6048
:101670001A460A6070472DE9F04104464FF0000811
:10168000FFF7C3FB3848006820B9FFF7DFFF0120F0
:101690003549086044B1083414F0070F04D004F051
:1016A0000700C0F108000444002C32D044F2F830A6
:1016B00084422ED22A4F3846056801E02F462D6815
:1016C0006868A04202D228680028F7D125488542E0
:1016D0001FD0386800F10808286838606868001B67
:1016E000102810D92E196868001B70606C60716832
:1016F0001B4800E00068026852688A42FAD3026818
:101700003260066000BF194968680968081A1749FD
:101710000860FFF7D7FA4046BDE8F08170B506468D
:101720003546B6B1083D2C46FFF76FFB61680C48A3
:1017300000E00068026852688A42FAD302682260B8
:1017400004600A4960680968084408490860FFF7AE
:10175000B9FA70BD0548006870477047380200202C
:10176000440000204C000020400000203C000020ED
:101770000CB50020019000906B48006840F4803068
:101780006949086000BF6848006800F400300090B4
:101790000198401C0190009818B90198B0F5006FAD
:1017A000F1D16148006810F4003F02D001200090A0
:1017B00001E0002000900098012842D15B480068B9
:1017C00040F01000594908600846006820F0030006
:1017D00008600846006840F002000860524840680F
:1017E000514948600846406848600846406840F4EF
:1017F000806048600846406820F47C1048600846D5
:10180000406840F4E81048600846006840F0807086
:10181000086000BF4448006810F0007FFAD04248DA
:10182000406820F00300404948600846406840F0A6
:101830000200486000BF3C48406800F00C000828E7
:10184000F9D10CBD10B5FFF793FF10BD10B53648A8
:10185000006840F001003449086008464068344997
:1018600008403149486008460068324908402E491E
:1018700008600846006820F4802008600846406838
:1018800020F4FE0048604FF41F008860FFF7DAFF85
:101890004FF000602849086010BD10B500210020FD
:1018A0000022214B5B6803F00C0121B1042906D012
:1018B000082928D107E0214B214C236027E01F4B4A
:1018C0001F4C236023E0184B5B6803F47010164B29
:1018D0005B6803F48032022303EB904022B9194B7A
:1018E0004343174C23600DE00F4B5B6813F4003F3C
:1018F00004D0144B4343124C236003E00F4B43438B
:101900000F4C236003E00D4B0D4C236000BF00BF64
:10191000054B5B68C3F303130B4CE15C084B1B687E
:10192000CB40074C236010BD001002400020024055
:101930000000FFF8FFFFF6FE08ED00E000127A005D
:101940005400002000093D005800002031490143A7
:10195000314A1160704770B5002100230F22C4780E
:101960000CB32D4C246804F4E064C4F5E064210A4F
:10197000C1F10403CA40447804FA03F184781440A6
:1019800021430901254C0678A155047804F01F0570
:101990000124AC4005786D114FF0E02606EB85057B
:1019A000C5F8004109E0047804F01F050124AC40AB
:1019B0001B4D0678761145F8264070BD194A0A403D
:1019C0000243154B1B1F1A60704739B1124A121D92
:1019D00012680243104B1B1D1A6006E00E4A121DCE
:1019E000126882430C4B1B1D1A607047042808D1F3
:1019F0004FF0E021096941F004014FF0E02211614C
:101A000007E04FF0E021096921F004014FF0E022E6
:101A1000116170470000FA050CED00E000E400E001
:101A200080E100E080FFFF1F10B50121480700F0B2
:101A300026FD00214FF0005000F021FD10BD30B513
:101A4000002200235A4C226840F6FE748440A243D0
:101A5000D1E900452C438D682C43CD6844EA050349
:101A600003FA00F42243524C226030BD0021016091
:101A700041608160C160704739B14D4A12680123ED
:101A800083401A434A4B1A6006E0494A1268012310
:101A900083409A43464B1A60704741B1444A1268EA
:101AA0004FF4805383401A43414B1A6007E0404A89
:101AB00012684FF4805383409A433D4B1A6070473D
:101AC00010B551B13A4A121D126804090123A3400E
:101AD0001A43374B1B1D1A6009E0354A121D126864
:101AE00004090123A3409A43314B1B1D1A6010BD0A
:101AF00040B12F49091D096841F003012C4A121D0C
:101B0000116007E02A49091D096821F00301284AEC
:101B1000121D1160704710B53AB1254B1B6801FAD0
:101B200000F42343224C236006E0214B1B6801FA9A
:101B300000F4A3431E4C236010BD08B500220092A0
:101B40001B4A009200F10802009B1A440092009A7E
:101B5000116008BD08B500220092154A009200F1FC
:101B60001402009B1A440092009A116008BD30B51F
:101B700000240023082802D142EA012401E042EABD
:101B800001440B4B00F120052B441C6030BD08B50F
:101B9000014600200090064800902C2000EB9100A8
:101BA000009A104400900098006880B208BD0000C0
:101BB0000074004001684FF6FE7211400160002180
:101BC000016041608160C1608C49884208D18B49C5
:101BD0000839496841F00F01884A083A51608AE0A3
:101BE00086491431884208D184490839496841F04E
:101BF000F001824A083A51607DE0804928318842EC
:101C000008D17E490839496841F470617B4A083A35
:101C1000516070E079493C31884208D177490839F0
:101C2000496841F47041754A083A516063E073496C
:101C30005031884208D171490839496841F470210E
:101C40006E4A083A516056E06C496431884208D1C6
:101C50006A490839496841F47001684A083A516094
:101C600049E066497831884208D1644908394968B1
:101C700041F07061614A083A51603CE06049884235
:101C800006D1011F096841F00F01021F116032E007
:101C90005B491431884208D15949091F096841F04C
:101CA000F001574A121F116025E05549283188423A
:101CB00008D15349091F096841F47061504A121F45
:101CC000116018E04E493C31884208D14C49091F47
:101CD000096841F470414A4A121F11600BE04849FB
:101CE0005031884207D14649091F096841F47021E3
:101CF000434A121F1160704710B50022026847F670
:101D0000F0739A430C6A8B6823430C6923434C6934
:101D100023438C692343CC6923434C6A23438C6A55
:101D200023431A430260CB6843600B6883604B68AF
:101D3000C36010BD0021016041608160C16001612C
:101D400041618161C161016241628162704721B17B
:101D5000026842F00102026004E002684FF6FE737E
:101D60001A40026070471AB103680B43036002E037
:101D700003688B43036070474160704701464868C1
:101D800080B2704701460020002211F0805F03D02E
:101D90001B4B083B1A6802E0184B083B1A680A42C2
:101DA00001D0012000E00020704710F0805F03D0D8
:101DB0001349091F086002E010490839486070475C
:101DC00001460020002211F0805F03D00C4B083B3D
:101DD0001A6802E0094B083B1A680A4201D0012048
:101DE00000E00020704710F0805F03D00449091F15
:101DF000086002E001490839486070470800024065
:101E00000804024010B50446CA48844208D10121A2
:101E1000042000F027FB0021042000F023FB46E013
:101E2000C548844208D10121082000F01BFB002195
:101E3000082000F017FB3AE0C048844208D1012195
:101E4000102000F00FFB0021102000F00BFB2EE013
:101E5000BB48844208D10121202000F003FB00216F
:101E6000202000F0FFFA22E0B648844208D1012188
:101E7000402000F0F7FA0021402000F0F3FA16E0CD
:101E8000B148844208D10121802000F0EBFA002102
:101E9000802000F0E7FA0AE0AC48844207D1012133
:101EA000801500F0DFFA0021A01500F0DBFA10BD6C
:101EB00010B50121084600F0D5FA0021012000F0FC
:101EC000D1FA10BD2DE9F041024600250026002080
:101ED00000230024002791F803C00CF00F0591F8AF
:101EE00003C01CF0100F03D091F802C04CEA0505A6
:101EF00091F800C0BCF1000F31D0146800202BE035
:101F00004FF0010C0CFA00F3B1F800C00CEA030624
:101F10009E4220D183004FF00F0C0CFA03F7BC4314
:101F200005FA03FC4CEA040491F803C0BCF1280F45
:101F300006D14FF0010C0CFA00FCC2F814C00AE004
:101F400091F803C0BCF1480F05D14FF0010C0CFA19
:101F500000FCC2F810C0401C0828D1D31460B1F8AE
:101F600000C0BCF1FF0F34DD546800202EE000F10A
:101F7000080C4FF0010808FA0CF3B1F800C00CEAA5
:101F800003069E4221D183004FF00F0C0CFA03F799
:101F9000BC4305FA03FC4CEA040491F803C0BCF10D
:101FA000280F05D100F1080C08FA0CF8C2F81480CB
:101FB00091F803C0BCF1480F07D100F1080C4FF0B5
:101FC000010808FA0CF8C2F81080401C0828CED38B
:101FD0005460BDE8F0814FF6FF71018002218170ED
:101FE0000421C17070470246002093680B4201D063
:101FF000012000E0002070470146886880B27047E9
:1020000002460020D3680B4201D0012000E00020EE
:1020100070470146C86880B27047016170474161EE
:1020200070470AB1016100E041617047C1607047CB
:102030004FF480320A4382618161826182698269E0
:10204000704702460020424B18684FF680731840D4
:1020500040EA021008433E4B186070473D49C86192
:102060007047F0B50A46002300240021002500F047
:102070000046B6F1004F02D1354EF16901E0344E11
:102080007168C0F3034583B200F44016B6F5401FF3
:1020900008D121F070612E4E766826F070662C4FC4
:1020A0007E6012E000F48016B6F5801F06D103268C
:1020B00006FA05F4A14341F0706106E0460D3601D1
:1020C00003FA06F6B14341F0706122B1460D3601C4
:1020D00003FA06F6314300F00046B6F1004F02D194
:1020E0001B4EF16101E01A4E7160F0BD30B5002267
:1020F0008B071C0F0F2303FA04F2154B08338C10C7
:1021000053F824309343124C08348D1044F8253092
:1021100023468C1053F824308C07240F00FA04F463
:1021200023430B4C08348D1044F8253030BD0A4948
:102130000860704700080140000C01400010014099
:102140000014014000180140001C01400020014023
:102150000000014000002042DC002042DD48006811
:1021600040F00100DB49086008464068DA49084051
:10217000D849486008460068D8490840D5490860F1
:102180000846006820F4802008600846406820F473
:10219000FE0048604FF41F0088607047CD49096811
:1021A00021F48031CB4A11601146096821F4802165
:1021B0001160B0F5803F03D0B0F5802F0ED106E05E
:1021C000C449096841F48031C24A116007E0C1493D
:1021D000096841F4A021BF4A116000E000BF00BFC0
:1021E000704710B501460022002300204A11012A41
:1021F00002D1B84C236806E0022A02D1B54C236A0A
:1022000001E0B44C636A01F01F02012494401C42B7
:1022100001D0012000E0002010BD38B50020009062
:102220000024002500BF3120FFF7DBFF05460098A2
:10223000401C00900098B0F5006F01D0002DF2D046
:102240003120FFF7CEFF08B1012400E00024204632
:1022500038BD014600209F4A106820F0F80040EA8F
:10226000C100106070479E49086070470246002018
:10227000984B586820F47C1042EA01031843954BB0
:102280005860704796490866704701460020914A99
:10229000506820F003000843506070478D48406844
:1022A00000F00C007047014600208A4A506820F078
:1022B000F00008435060704701460020854A50688E
:1022C00020F4E06008435060704701460020814AD6
:1022D000506820F4605040EAC1005060704729B156
:1022E0007C4A527A02437B4B5A7204E0794A527A12
:1022F0008243784B5A7270477A49086070470146AA
:102300000020744A506820F44040084350607047F1
:102310000021754A11706F4A82F82010012802D0FE
:10232000042808D103E001216F4A117004E005215F
:102330006D4A117000E000BF00BF70476B49086034
:1023400070476449096A0143624A116270476749EC
:1023500044390860704730B5002100220024002372
:102360005C4D6D6805F00C0121B1042905D00829E8
:1023700023D105E05E4D056022E05D4D05601FE064
:10238000544D6D6805F47012524D6D6805F480343B
:10239000022505EB92421CB9564D554305600BE0F2
:1023A0004C4D6D6815F4003F03D0524D5543056008
:1023B00002E04F4D5543056002E04D4D056000BF02
:1023C00000BF444D6D6805F0F00109094A4D6B5C92
:1023D0000568DD4045603F4D6D6805F4E061090A20
:1023E000454D6B5C4568DD4085603A4D6D6805F490
:1023F0006051C90A404D6B5C4568DD40C560354D94
:102400006D6805F44041890B3C4D6B5CC568B5FBBC
:10241000F3F5056130BD29B12E4A526902432D4BB7
:102420005A6104E02B4A526982432A4B5A61704731
:1024300029B1284A92690243264B9A6104E0254A51
:1024400092698243234B9A61704729B1214AD2692C
:102450000243204BDA6104E01E4AD26982431D4BDD
:10246000DA61704729B11B4AD2680243194BDA601E
:1024700004E0184AD2688243164BDA60704729B1EB
:10248000144A12690243134B1A6104E0114A12699B
:102490008243104B1A6170471449403908607047F5
:1024A0000F49C86470470B49C87170470948406AB2
:1024B00040F0807007494862704701460020054A95
:1024C00092680A4201D0012000E0002070470149D3
:1024D00088727047001002400000FFF8FFFFF6FE10
:1024E00000004242D8004242201002408004424292
:1024F00000127A0000093D006800002078000020EA
:1025000010B50446FE48844208D10121C014FFF7EB
:10251000A9FF0021E014FFF7A5FFC4E0B4F1804F4C
:1025200008D101210846FFF7AAFF00210120FFF78B
:10253000A6FFB8E0F348844208D101210220FFF74A
:102540009EFF00210220FFF79AFFACE0EE48844294
:1025500008D101210420FFF792FF00210420FFF79A
:102560008EFFA0E0E948844208D101210820FFF74E
:1025700086FF00210820FFF782FF94E0E4488442B0
:1025800008D101211020FFF77AFF00211020FFF76A
:1025900076FF88E0DF48844208D101212020FFF740
:1025A0006EFF00212020FFF76AFF7CE0DA488442BA
:1025B00008D101214014FFF755FF00216014FFF7F7
:1025C00051FF70E0D548844209D10121C804FFF7CA
:1025D00049FF00214FF40020FFF744FF63E0D0489B
:1025E000844209D101210805FFF73CFF00214FF487
:1025F0008010FFF737FF56E0CA48844209D1012115
:102600004805FFF72FFF00214FF40010FFF72AFFC6
:1026100049E0C548844208D101214020FFF72FFF3F
:1026200000214020FFF72BFF3DE0C048844208D145
:1026300001218020FFF723FF00218020FFF71FFFEB
:1026400031E0BB48844208D101218015FFF717FF14
:102650000021A015FFF713FF25E0B648844209D1F9
:1026600001210804FFF7FEFE00214FF48030FFF740
:10267000F9FE18E0B048844209D101214804FFF76F
:10268000F1FE00214FF40030FFF7ECFE0BE0AB4809
:10269000844208D101218804FFF7E4FE00214FF4B1
:1026A0008020FFF7DFFE10BD00220288944B984285
:1026B0000ED0994B98420BD0B0F1804F08D0914B7F
:1026C000984205D0904B984202D0904B984204D14A
:1026D0004FF68F731A404B881A438D4B984207D0A0
:1026E0008C4B984204D04FF6FF431A40CB881A43D4
:1026F00002808B8883850B880385814B98420BD0A1
:10270000854B984208D08B4B984205D08A4B984213
:1027100002D08A4B984201D10B7A0386012383822F
:10272000704770B5002400220023058C4FF6FE761A
:1027300035400584028C8388048B4FF68F752C40BE
:10274000B51E2C400D882C43751E2A400D892A4346
:102750004D882A436A4DA8420BD06F4DA84208D03D
:10276000744DA84205D0744DA84202D0734DA842C2
:1027700013D14FF6F7752A404D892A434FF6FB7562
:102780002A408D882A434FF6FF652B404FF6FF55B0
:102790002B408D892B43CD892B4383800483CD88A7
:1027A0008586028470BD70B5002400220023058C4C
:1027B0004FF6EF7635400584028C8388048B48F60B
:1027C000FF752C404FF6FF452C400D884FF6FF76E5
:1027D00006EA05252C434FF6DF752A400D8906EAE7
:1027E00005152A434D8806EA05152A43444DA8429B
:1027F00002D0494DA8421DD14FF67F752A404D8920
:102800004FF6FF7606EA05152A434FF6BF752A40B4
:102810008D8806EA05152A434FF6FF352B404FF207
:10282000FF752B408D8906EA85052B43CD8906EA85
:1028300085052B4383800483CD880587028470BD82
:1028400070B5002400220023058C4FF6FF6635404A
:102850000584028C8388848B4FF68F752C404FF64D
:10286000FC752C400D882C434FF6FF552A400D89EE
:102870004FF6FF7606EA05252A434D8806EA052528
:102880002A431F4DA84202D0234DA8421DD14FF22A
:10289000FF752A404D894FF6FF7606EA05252A4343
:1028A0004FF6FF352A408D8806EA05252A434EF665
:1028B000FF752B404DF6FF752B408D8906EA0515F7
:1028C0002B43CD8906EA05152B4383808483CD886D
:1028D0008587028470BD70B5002200230024058C1A
:1028E0004EF6FF7635400584038C8488828B48F64B
:1028F000FF752A404FF6FF452A400D8820E0000072
:10290000002C01400004004000080040000C004082
:10291000001000400014004000340140004C014011
:10292000005001400054014000180040001C0040CD
:1029300000200040004001400044014000480140A8
:102940004FF6FF7606EA05252A434DF6FF752B4024
:102950000D8906EA05352B434D8806EA05352B43DC
:10296000FA4DA84202D0FA4DA84208D14BF6FF75A5
:102970002C408D894FF6FF7606EA85152C4384801E
:102980008283CD88A0F84050038470BD828B4FF2C3
:10299000FF331A408283828B4FF6FF7303EA0123D1
:1029A0001A4382837047F0B50C4615460022002179
:1029B0000026078C4EF6FF7C07EA0C070784828B03
:1029C000018C4FF6FF7707EA043640F6FF473A409E
:1029D0004FF6FF7707EA05273A434FF6FF7707EAF6
:1029E00003373A43D94FB8420ED0D94FB8420BD033
:1029F000B0F1804F08D0D74FB84205D0D64FB8427B
:102A000002D0D64FB84206D14DF6FF77394046F492
:102A10008057394305E047F6FF57394044F4805763
:102A2000394382830184F0BD828B4FF6F3731A40E1
:102A30008283828B0A4382837047F0B50C46154629
:102A4000002200210026078C4FF6FF6C07EA0C07D6
:102A50000784828B018C4FF6FF7707EA04264FF636
:102A60000C773A404FF6FF7707EA03172F433A43B4
:102A7000B64FB8420ED0B64FB8420BD0B0F1804F2F
:102A800008D0B44FB84205D0B34FB84202D0B34FCC
:102A9000B84206D14FF6FF57394046F480773943A4
:102AA00005E04FF2FF57394044F480773943828381
:102AB0000184F0BD028B4FF2FF331A400283028B78
:102AC0004FF6FF7303EA01231A4302837047F0B500
:102AD0000C461546002200210026078C4FF6EF7C9D
:102AE00007EA0C070784028B018C4FF6FF7707EA91
:102AF000041640F6FF473A404FF6FF7707EA0337E0
:102B00003A434FF6FF7707EA05273A438F4FB8421B
:102B10000ED08F4FB8420BD0B0F1804F08D08D4F00
:102B2000B84205D08C4FB84202D08C4FB84206D183
:102B30004FF6DF77394046F01007394305E04FF68E
:102B40005F77394044F01007394302830184F0BDB8
:102B5000028B4FF6F3731A400283028B0A430283FF
:102B60007047F0B50C46154600220021068C4FF642
:102B7000FE773E400684028B018C4FF60C76324085
:102B80007E1C06EA03162E433243704EB0420ED02E
:102B90006F4EB0420BD0B0F1804F08D06D4EB042B6
:102BA00005D06D4EB04202D06C4EB04206D14FF609
:102BB000FD76314044F00106314305E04FF6F576ED
:102BC000314044F00106314302830184F0BD70B509
:102BD00005460C465D4885420ED05D4885420BD0C7
:102BE000B5F1804F08D05B48854205D05A488542F0
:102BF00002D05A48854200D100E000BF208850B979
:102C00002389A28861882846FFF7ABFFE188284620
:102C1000FFF79EFF25E0208804280AD12389A28897
:102C200061882846FFF753FFE1882846FFF742FFF7
:102C300017E0208808280AD12389A28861882846BD
:102C4000FFF7FBFEE1882846FFF7EEFE09E0238947
:102C5000A28861882846FFF7A6FEE1882846FFF78C
:102C600095FE70BD2DE9F04105460C460026012772
:102C7000608808B9022600E00026A088012801D15A
:102C8000022700E001272088A0B92389A288618853
:102C90002846FFF766FFE1882846FFF759FF23899A
:102CA0003A4631462846FFF712FFE1882846FFF7EB
:102CB00001FF13E02389A28861882846FFF707FFF8
:102CC000E1882846FFF7F6FE23893A463146284632
:102CD000FFF747FFE1882846FFF73AFFBDE8F0819C
:102CE0000A884B881A438B881A43CB881A430B896E
:102CF0001A434B891A438B891A43A0F84420704722
:102D00004FF6FF71818000210180C18041800172F6
:102D100070470021018041808180C1800181418113
:102D20008181C18170470021018041800121818022
:102D30000021C18001817047002101804180818094
:102D4000C18001814181818170470000002C0140D8
:102D5000003401400004004000080040000C004026
:102D600021B1028842F00102028004E002884FF69D
:102D7000FE731A400280704731B1B0F8442042F42B
:102D80000042A0F8442005E0B0F84420C2F30E024F
:102D9000A0F8442070471AB183890B43838102E075
:102DA00083898B43838170478182704741EA0203A4
:102DB000A0F8483070471AB183890B43838102E041
:102DC00083898B438381704701894FF6F8721140E4
:102DD000018170470A46002101894FF68F7319401F
:102DE00011430181704730B504460D4629462046FF
:102DF000FFF7F0FF208940F00700208130BD2DE96A
:102E0000F04104460D4616461F46602D06D13B464E
:102E1000012231462046FFF75AFE05E03B460122DB
:102E200031462046FFF79DFE29462046FFF7D2FF98
:102E3000208940F007002081BDE8F08130B50C46C4
:102E400000210189C9B24FF6FF7505EA0325154334
:102E500025432943018130BD2DE9F04105460E4649
:102E600017469846002443463A4631462846FFF71F
:102E7000E5FF2C894FF6F870044044F007044FF644
:102E80008F70044044F070042C81BDE8F081F0B5EF
:102E900004460D4616461F463B4632462946204606
:102EA000FFF7CCFF208940F480402081F0BD0185F0
:102EB000828270470A46002101884FF68F731940BD
:102EC000114301807047F0B50C4615461E4600219F
:102ED000002200230189028B038C4FF6F8773940DA
:102EE00021434FF6FC473A4040F201173A434FF670
:102EF000DD773B404FF6FF7707EA06172F433B434A
:102F0000018102830384F0BD0A460021018B4FF644
:102F10008F7319401143018370470A460021018BCA
:102F200048F6FF7319404FF6FF7303EA0223194373
:102F3000018370470A460021818B4FF68F73194039
:102F40001143818370470A460021818B48F6FF7345
:102F500019404FF6FF7303EA022319438183704738
:102F600021B1028842F08002028004E002884FF61C
:102F70007F731A400280704721B1828842F00402B8
:102F8000828004E082884FF6FB731A40828070478B
:102F900021B1828842F00802828004E082884FF6E4
:102FA000F7731A408280704721B1828842F0010293
:102FB000828004E082884FF6FE731A408280704758
:102FC0000A460021018B4FF6F77319401143018324
:102FD00070470A460021018B4FF2FF7319404FF6EC
:102FE000FF7303EA02231943018370470A46002155
:102FF000818B4FF6F77319401143818370470A465E
:103000000021818B4FF2FF7319404FF6FF7303EAE3
:1030100002231943818370470A460021018B4FF632
:10302000FB7319401143018370470A460021018B4D
:103030004FF6FF3319404FF6FF7303EA022319439B
:10304000018370470A460021818B4FF6FB731940BC
:103050001143818370470A460021818B4FF6FF336D
:1030600019404FF6FF7303EA022319438183704727
:103070000A460021018B4FF67F73194011430183EB
:1030800070470A460021018BC1F30E014FF6FF7312
:1030900003EA02231943018370470A460021818B0A
:1030A0004FF67F7319401143818370470A46002110
:1030B000818BC1F30E014FF6FF7303EA022319431C
:1030C000818370470A460021018C4FF6FD73194039
:1030D0001143018470470A460021018C4FF6F773B3
:1030E00019401143018470470A460021018C4FF6B4
:1030F000DF7319404FF6FF7303EA0213194301848B
:1031000070470A460021018C4FF67F7319404FF635
:10311000FF7303EA02131943018470470A46002132
:10312000018C4FF6FF5319404FF6FF7303EA022359
:103130001943018470470A460021018C4FF2FF7346
:1031400019404FF6FF7303EA0223194301847047C5
:103150000A460021018C4DF6FF7319404FF6FF73AC
:1031600003EA023319430184704730B50023012478
:103170008C40A3B2048C9C430484048C02FA01F5B5
:10318000ADB22C43048430BD30B5002304248C4000
:10319000A3B2048C9C430484048C02FA01F5ADB202
:1031A0002C43048430BD70B503460020002418462B
:1031B000183001258D40ACB21D8CA5431D8409B18A
:1031C000082909D100EB6100056825F0700505604C
:1031D0000568154305600EE00D1FC5F34E05284434
:1031E000056825F4E045056005684FF6FF7606EAB8
:1031F00002263543056070BD21B1028842F002020B
:10320000028004E002884FF6FD731A400280704786
:1032100021B1028842F00402028004E002884FF6E5
:10322000FB731A400280704721B1828842F080020D
:10323000828004E082884FF67F731A408280704754
:1032400002884FF6F7731A40028002880A43028010
:10325000704782884FF68F731A40828082880A43B3
:103260008280704702894FF6F8731A400281028902
:103270000A430281704702894FF67F731A40028128
:1032800002890A43028170478184704781857047B3
:10329000818670470187704781877047A0F840108A
:1032A000704702884FF6FF431A40028002880A43A3
:1032B000028070470146888E70470146088F70472C
:1032C0000146888F70470146B1F8400070470146BB
:1032D000888C70470146088D704702460020138A8B
:1032E0000B4201D0012000E000207047CA43028257
:1032F000704730B50246002000230024158A05EAF5
:103300000103958905EA010413B10CB1012000E025
:10331000002030BDCA4302827047000010B5044649
:10332000FB48844209D101218803FFF79BF8002163
:103330004FF48040FFF796F832E0F648844209D116
:1033400001214804FFF79BF800214FF40030FFF7FC
:1033500096F825E0F048844209D101218804FFF75E
:103360008EF800214FF48020FFF789F818E0EB4831
:10337000844209D10121C804FFF781F800214FF4EC
:103380000020FFF77CF80BE0E548844208D10121DA
:103390000805FFF774F800214FF48010FFF76FF86D
:1033A00010BD2DE9F04786B005460E460024A24622
:1033B00000BFA1460027B08900B100BF2F462C8A6C
:1033C0004CF6FF700440F08804432C82AC894EF622
:1033D000F3100440B08831890843718908430443DD
:1033E000AC81AC8A4FF6FF400440B0890443AC8204
:1033F00001A8FEF7B0FFC648874202D1DDF810A051
:1034000001E0DDF80CA0A88910F4004F08D00AEB09
:10341000CA0000EB0A1031684900B0FBF1F807E080
:103420000AEBCA0000EB0A1031688900B0FBF1F822
:103430006420B8FBF0F004012009642101FB10892D
:10344000A88910F4004F08D0322000EBC900B0FB6F
:10345000F1F000F00700044308E0322000EB09100F
:103460006421B0FBF1F000F00F0004432C8106B0A2
:10347000BDE8F0874FF41651016000218180C180C2
:1034800001810C21418100218181704710B50246E4
:103490000020108A4FF2FF0318400B884C8823430A
:1034A0008C882343CC8823431843108210BD00210D
:1034B000018041808180C180704721B1828942F4BE
:1034C0000052828104E082894DF6FF731A408281A6
:1034D0007047F0B503460024002600250020A1F522
:1034E00010676A3F00D100BF1846C1F3421401F0D3
:1034F0001F06012707FA06F5012C01D10C3004E064
:10350000022C01D1103000E014301AB107682F43AB
:10351000076002E00768AF430760F0BD1AB1838A15
:103520000B43838202E0838A8B4383827047028A43
:103530004FF6F0731A400282028A0A4302827047F1
:1035400082894FF2FF731A40828182890A43828105
:10355000704721B1828942F00202828104E08289AF
:103560004FF6FD731A4082817047028A4FF6DF736F
:103570001A400282028A0A430282704721B1028AFB
:1035800042F48042028204E0028A4BF6FF731A4042
:1035900002827047C1F30802828070470146888822
:1035A000C0F308007047818941F0010181817047B3
:1035B000028BD2B20283028B42EA0122028370475D
:1035C000028B02F47F420283028B0A43028370471C
:1035D00021B1828A42F02002828204E0828A4FF680
:1035E000DF731A408282704721B1828A42F0100252
:1035F000828204E0828A4FF6EF731A40828270471B
:1036000021B1828A42F00802828204E0828A4FF667
:10361000F7731A408282704721B1828942F40042D6
:10362000828103E08289C2F30E028281704721B158
:10363000828A42F40062828204E0828A4FF2FF733F
:103640001A4082827047828A4FF6FB731A40828248
:10365000828A0A438282704721B1828A42F0020242
:10366000828204E0828A4FF6FD731A40828270479C
:1036700002460020B1F5007F00D100BF13880B4245
:1036800001D0012000E00020704701F40072B2F583
:10369000007F00D100BFCA430280704770B5024668
:1036A0000024002300250020A1F510666A3E00D109
:1036B00000BFC1F3421501F01F03012606FA03F310
:1036C000012D02D19689334006E0022D02D1168ADF
:1036D000334001E0968A33400C12012606FA04F4C6
:1036E0001688344013B10CB1012000E0002070BDF9
:1036F00010B500220023A1F510646A3C00D100BF80
:103700000A1201249440A3B2DC43048010BD0000DF
:10371000003801400044004000480040004C004098
:10372000005000400948804709480047FEE7FEE78F
:10373000FEE7FEE7FEE7FEE7FEE7FEE7FEE7FEE761
:1037400004480549054A064B704700004D1800081B
:10375000310100082851002028570020285300205C
:1037600028530020704700BFFEE700BFFEE700BF00
:10377000FEE700BFFEE770477047704770470000E4
:1037800008B54FF48060ADF8000004208DF8030008
:1037900069466048FEF796FB4FF40070ADF80000F4
:1037A00003208DF8020018208DF80300694659485F
:1037B000FEF788FB08BD08B54FF4A060FEF7C6F819
:1037C00025208DF8000002208DF8010003208DF8DF
:1037D000020001208DF803006846FEF7BCF8684639
:1037E000FEF7B9F808BD10B5012144F20500FEF757
:1037F0001FFE10BD1FB50446FFF7F5FFFFF7DBFF07
:10380000FFF7BEFF00940020ADF80400ADF80600FD
:10381000ADF80800ADF80C000C20ADF80A006946C0
:103820003D48FFF7BEFD002240F225513A48FFF720
:1038300050FE002240F227713748FFF74AFE01216F
:103840003548FFF73AFE1FBD10B540F2255132480A
:10385000FFF724FFA8B13048FFF7A0FEC1B22F4800
:1038600002780078401C2D4B18702D488154184662
:103870000078802805D1002240F225512648FFF724
:1038800028FE40F227712448FFF708FFC8B12548F9
:103890000068B0B1244802780078401C224B1870B0
:1038A0002248815C1C48FFF775FE1F4800781D49BF
:1038B0000968884205D1002240F227711648FFF7B7
:1038C00008FE10BD0FB408B503A800901748009A71
:1038D000029901F0D3F800200090144801F030F96B
:1038E00010490860002010490870012240F2277139
:1038F0000948FFF7EEFD00BF40210748FFF7B8FE7B
:103900000028F9D040210448FFF7BFFE01B05DF860
:1039100014FB000000080140003801407D00002039
:10392000B0460020800000207C00002030460020AF
:1039300000B585B001210420FEF77AFD012148077A
:10394000FEF783FD1020ADF8100000208DF8130065
:1039500003208DF8120004A91F48FEF7B3FA0020D7
:103960000090019002900220039069460020FEF72B
:1039700066F801210020FEF77FF800210846FEF7D7
:10398000DCF805B000BD2DE9F0470446204602F002
:10399000A7FF81461149484602F0C0FE81464FF01C
:1039A0008B41484602F0B0FF824602F08BFE07468C
:1039B0004FF066320A4B02F0D9FC054602F0A4FC37
:1039C0008146484602F06CFF85B229460020FEF78A
:1039D000B4F8BDE8F08700000008014000007A4418
:1039E00066660A4070B5044600254648008810F413
:1039F000004F0BD0002043490988C1F30E01424A11
:103A000050542146104601F089F80546284670BDFD
:103A10002DE9F04104460D4616460027002039499D
:103A20000880FF2C0ED8A1B23848FFF7B3FD02E0A2
:103A30000120FDF723FA80213448FFF719FE002802
:103A4000F6D003E0214632A000F06DFAE5B1DEB118
:103A5000314806800FE00520FDF710FA294800885C
:103A600010F4004F07D02846FFF7BCFF00B106E076
:103A7000002024490880284800880028EBD100BF96
:103A80002548008800B901273846BDE8F08110B507
:103A9000642222A124A0FFF7BBFF642226A128A054
:103AA000FFF7B6FF4FF47A7228A129A0FFF7B0FF05
:103AB00008B1012010BD4FF47A7224A128A0FFF7AD
:103AC000A7FF08B10220F5E74FF4FA721FA12BA05F
:103AD000FFF79EFF08B10320ECE74FF4FA721BA139
:103AE00029A0FFF795FF08B10420E3E74FF4FA722D
:103AF00016A12BA0FFF78CFF08B10520DAE7002004
:103B0000D8E700009C000020C8470020004C00407F
:103B100025730D0A0000000090000020434C4F5315
:103B200045204F4B0000000041542B434950434C6B
:103B30004F53453D3100000053485554204F4B0032
:103B400041542B4349505348555400004F4B0000FB
:103B500041542B4347434C4153533D2242220000E2
:103B600041542B434744434F4E543D312C2249503E
:103B7000222C22434D4E45542200000041542B4339
:103B8000474154543D31000041542B434950435365
:103B900047503D312C22434D4E4554220000000039
:103BA00041542B434950484541443D3100000000F9
:103BB00000BF4FF6FF713548FEF72FFA4FF6FF7141
:103BC0003348FEF72CFA4FF4FA70FDF757F94FF629
:103BD000FF712E48FEF723FA4FF6FF712C48FEF7CF
:103BE0001CFA4FF4FA70FDF749F92A48FEF704FA77
:103BF0002948FEF701FA4FF4FA70FFF7C4FE0023DC
:103C00005A1E194625480068FCF7BCFD24A000F0A8
:103C10005AFA25A000F057FA4FF4967224A125A075
:103C2000FFF7F6FE48B924A0FFF74CFEFFF72FFF81
:103C30000546294623A0FFF745FE28480288284864
:103C4000018828A0FFF73EFE002408E02D4830F848
:103C5000142021462CA0FFF735FE601C84B20A2CEC
:103C6000F4DB00231A4619460C480068FCF7A1FC57
:103C70009FE74FF41650FFF7BDFD27A0FFF722FE88
:103C800000BF25A0FFF71EFEFBE700000014014067
:103C9000001C01400018014000200140A00000204D
:103CA00041542B48480D0A0042542B0D0A000000D5
:103CB0004F4B0000415400005375636365737320DC
:103CC0000D0A0000677270727320726573756C74F0
:103CD0002069732025640D0A000000008C0000207C
:103CE0008A0000204750494F452049532025782C11
:103CF000204750494F47204953202578202E0D0A50
:103D0000000000003047002061646325642069736F
:103D10002025642E0D0A0000696E697420697320E5
:103D20006F6B200D0A0000001FB501210420FEF773
:103D30008CFB41F61F40ADF804000020ADF80600F2
:103D40006320ADF808000020ADF80A0001A924485E
:103D5000FEF7AAFC012211462148FFF71CF81E209D
:103D60008DF8000002208DF8010003208DF802007C
:103D700001208DF803006846FDF7EDFD012118488C
:103D8000FEF7EEFF1FBD10B501211548FFF7B1FA90
:103D900020B3144800881E2805DA12480088401C09
:103DA000104908800EE00F4800881E280AD10E48EE
:103DB000008840F400400C4908800A480088401CF4
:103DC000084908800948008820B108480088401E3A
:103DD0000649088001210248FFF79CFA10BD000047
:103DE000000800409A0000209C0000209000002065
:103DF00010B501210220FEF70EFB01211120FEF774
:103E000017FB0121C804FEF720FB10BD08B54FF4D5
:103E10000060ADF8000004208DF803006946634897
:103E2000FEF750F84FF48060ADF8000003208DF8E5
:103E3000020018208DF8030069465C48FEF742F83E
:103E400008BD10B55A48FDF7B5FE5A485A490860F2
:103E50005A484860102088600020C86008618020AF
:103E6000486100208861C86108624FF44050486290
:103E7000002088624E48FDF73FFF10BD08B54FF4A3
:103E8000A060FDF763FD34208DF8000002208DF85E
:103E9000010003208DF8020001208DF80300684620
:103EA000FDF759FD08BD1FB50446FFF7A1FFFFF759
:103EB000E5FFFFF7ABFFFFF7C4FF00940020ADF86C
:103EC0000400ADF80600ADF80800ADF80C000C20B9
:103ED000ADF80A0069463748001FFFF762FA012271
:103EE00040F225513348001FFFF7F3FA0121314812
:103EF000001FFFF7E2FA012280212E48001FFFF782
:103F00000DFB1FBD10B5044600212948FDF71FFF1A
:103F10002948C46001462648FDF7EEFE01212448E9
:103F2000FDF715FF10BD0FB438B505A80090234864
:103F3000009A049900F0A2FD002000901F4800F0B4
:103F4000FFFD84B22046FFF7DDFF02E00120FCF711
:103F500095FF1B48FDF716FF0028F7D01848FDF71E
:103F600024FF38BC5DF814FB10B520211148001F58
:103F7000FFF77EFBC8B10F48001FFFF70FFBC4B26D
:103F80001048008880280ADA00200F4908800D496F
:103F90000888411C0B4A11800C490C5405E0094863
:103FA000008840F400400749088010BD001001401F
:103FB00058040240044C0040484800204847002074
:103FC000000002109C0000209A000020C84700203A
:103FD00010B501210846FEF71EFA01210520FEF763
:103FE00027FA01214804FEF730FA10BD08B5082071
:103FF000ADF8000004208DF8030069464348FDF742
:1040000061FF0420ADF8000003208DF802001820A5
:104010008DF8030069463D48FDF754FF08BD10B513
:104020003B48FDF7C7FD3B483B4908603B484860BB
:10403000102088600020C86008618020486100204E
:104040008861C86108624FF440504862002088626D
:104050002F48FDF751FE10BD1FB50446FFF7B8FF0E
:10406000FFF7C4FFFFF7DBFF00940020ADF804006A
:10407000ADF80600ADF80800ADF80C000C20ADF866
:104080000A0069462348001FFFF78BF901212148E8
:10409000001FFFF712FA012280211E48001FFFF7C0
:1040A0003DFA1FBD10B5044600211948FDF74FFE2B
:1040B0001948C46001461648FDF71EFE0121144848
:1040C000FDF745FE10BD0FB438B505A800901348A4
:1040D000009A049900F0D2FC002000900F4800F0F4
:1040E0002FFD84B22046FFF7DDFF02E00120FCF740
:1040F000C5FE4FF00070FDF745FE0028F6D04FF0EA
:104100000070FDF752FE38BC5DF814FB000801405A
:10411000800002400444004078500020784800208D
:104120002DE9F05F06460D464FF0000B2888052864
:1041300048D170784FEA0029B07840EA090909F1BE
:1041400001001FFA80F9F078040230790443012C51
:1041500035DBB4F5FA6F32DA3746002028800120CB
:1041600007F8010B2888401C288014F0070F08D09E
:104170002046E11704EB5171C910491C01F0FF08FA
:1041800005E02046E11704EB5171C1F3C70807F8B9
:10419000018B2888401C2880002322464946384647
:1041A00000F061FC8246BAF1000F04D0504600F0E6
:1041B000C6FA834608E028884044288004E04FF08F
:1041C000030B01E04FF0030B5846BDE8F09F2DE9CB
:1041D000F84304460F464FF000083888052829D1D7
:1041E00060780502A0780543681C85B22079F0B993
:1041F000E078FF2801D0E078C8B900208DF80100F0
:10420000E078FF2803D101208DF8000002E00020B3
:104210008DF8000001231A462946684600F023FC69
:1042200006464EB1304600F08AFA804604E04FF070
:10423000030801E04FF003084046BDE8F8832DE98C
:10424000F05F05460E464FF0000B3088052839DD3B
:1042500068780702A8780743781C87B2E8780402D8
:104260002879044395F805A014F0070F08D02046DC
:10427000E11704EB5171C910491C01F0FF0805E07A
:104280002046E11704EB5171C1F3C708012C16DB7E
:10429000B4F5F66F13DCD04511D10123224639461F
:1042A000A81D00F0E0FB8146B9F1000F04D048469C
:1042B00000F045FA834607E00520308004E04FF027
:1042C000030B01E04FF0030B5846BDE8F09F2DE9CA
:1042D000F05F06460D464FF0000B2888052847D1B1
:1042E00070784FEA0029B07840EA090909F1010025
:1042F0001FFA80F9F078040230790443012C34DB92
:10430000B4F5FA6F31DA374600202880022007F82A
:10431000010B2888401C288014F0070F08D0204685
:10432000E11704EB5171C910491C01F0FF0805E0C9
:104330002046E11704EB5171C1F3C70807F8018B60
:104340002888401C288022464946384600F08FFBCA
:104350008246BAF1000F04D0504600F0F0F98346CF
:1043600008E028884044288004E04FF0030B01E077
:104370004FF0030B5846BDE8F09F2DE9F04104468D
:104380000F464FF000083888052812D160780502E2
:10439000A0780543681C85B201231A462946E01C13
:1043A00000F05DFB064636B1304600F0C8F98046A5
:1043B00001E04FF003084046BDE8F0812DE9F047E9
:1043C00004460E464FF0000A3088062828DB607845
:1043D0000702A0780743781C87B2E07805022079AD
:1043E000054394F80590012D17DB782D15DC680640
:1043F000000E484511D101232A463946A01D00F080
:104400002EFB8046B8F1000F04D0404600F097F92B
:10441000824607E00520308004E04FF0030A01E007
:104420004FF0030A5046BDE8F0872DE9F0470546F6
:104430000C464FF0000A2088052837D168784FEAEB
:104440000028A87840EA080808F101001FFA80F85F
:10445000E87806022E79012E25DB7D2E23DC2F46FF
:1044600000202080032007F8010B2088401C2080BA
:104470007006000E07F8010B2088401C20800023E6
:1044800032464146384600F0EAFA8146B9F1000F5B
:1044900004D0484600F053F9824609E0208800EB3A
:1044A0004600208004E04FF0030A01E04FF0030AC9
:1044B0005046BDE8F0872DE9FC5F04460D4600201C
:1044C000009028880A285DDB60784FEA002AA078EF
:1044D00040EA0A0A0AF101001FFA80FAE0780602AF
:1044E0002079064360794FEA002BA07940EA0B0B54
:1044F0000BF101001FFA80FBE0790702207A0743E5
:10450000607A0190012E3BDB7D2E39DC012F37DBF9
:10451000792F35DC79000198814231D101233A4667
:10452000594604F10A0000F09AFA8146B9F1000FE9
:104530001ED1A04600202880172008F8010B2888EB
:10454000401C28807006000E08F8010B2888401CCB
:104550002880002332465146404600F080FA8146CA
:10456000B9F1000F04D12888022101FB0600288040
:10457000B9F1000F06D0484600F0E1F8009001E0E4
:10458000032000900098BDE8FC9F2DE9F047054608
:104590000C464FF0000A2088052837D168784FEA8A
:1045A0000028A87840EA080808F101001FFA80F8FE
:1045B000E878060228790643012E24DB7D2E22DAD4
:1045C0002F4600202080042007F8010B2088401C83
:1045D00020807006000E07F8010B2088401C208008
:1045E00032464146384600F019FA8146B9F1000FCB
:1045F00004D0484600F0A3F8824609E0208800EB8A
:104600004600208004E04FF0030A01E04FF0030A67
:104610005046BDE8F08700002DE9F04105460E4602
:1046200017461C464FF00008A01C202826DA002060
:104630001C490880084601880088401C194A1080DF
:10464000194845540EB1FF2200E0002215480188A8
:104650000088401C134B188013484254002C0FDD77
:1046600001461A46128888182246394600F087FA11
:104670000C48008820440B49088001E04FF00408F2
:104680004046BDE8F08170B505460C4605480288F5
:104690000549681C00F073FA02480088401C20801D
:1046A000002070BD5C010020A45000202DE9FF5FB8
:1046B00005460E469046DDF80CB0B8F1080F00DC58
:1046C00004E0382226A132A000F0EAF9F408A6EBB3
:1046D000C4001FFA80FA0BFA0AF01FFA80FB0120CF
:1046E00000FA08F0401E1FFA80F9A6EBC40009FA90
:1046F00000F01FFA80F92F5D601C285C47EA002754
:1047000027EA090040EA0B072F553912601C29548B
:10471000BDE8FF9FF0B503460C461546E208A4EB42
:10472000C20087B20120A840401E86B2995C501C8E
:10473000185C41EA002139413140C8B2F0BD014660
:1047400021B1012904D0072906D103E0002005E0AA
:10475000022003E0062001E0042000BF00BF7047F4
:10476000667265656D6F646275732D76312E352EB8
:10477000305C6D6F646275735C66756E6374696FCF
:104780006E735C6D627574696C732E63000000005B
:1047900075634E42697473203C3D20380000000070
:1047A00010B501210520FDF743FE01214804FDF766
:1047B0004CFE10BD08B50820ADF8000004208DF8AF
:1047C000030069465348FDF77DFB0420ADF8000067
:1047D00003208DF8020018208DF8030069464D482B
:1047E000FDF770FB08BD08B54FF4A060FDF7AEF80B
:1047F00026208DF8000002208DF8010003208DF89E
:10480000020001208DF803006846FDF7A4F808BDFA
:104810001FB50446FFF7C4FFFFF7CCFF009400204C
:10482000ADF80400ADF80600ADF80800ADF80C00D6
:104830000C20ADF80A0069463748FEF7B2FD0121A9
:104840003548FEF73AFEFFF7CEFF1FBD70B50546AF
:104850000C4635B1012240F225512F48FEF739FEB2
:1048600005E0002240F225512B48FEF732FE34B11C
:10487000012240F226612848FEF72BFE05E00022C7
:1048800040F226612448FEF724FE70BD2DE9F04178
:1048900005460C4616461F462046FFF7B9FF012085
:1048A000BDE8F08110B5044621461B48FEF772FEB4
:1048B000012010BD10B504461748FEF76FFE2070AA
:1048C000012010BD10B515480068804710BD10B517
:1048D00013480068804710BD10B540F225510E48BE
:1048E000FEF7DCFE012806D1FFF7F1FF40F225516B
:1048F0000948FEF7FDFE40F226610748FEF7CEFEAE
:10490000012806D1FFF7DEFF40F226610248FEF7DC
:10491000EFFE10BD00080140004400404C010020A3
:10492000480100201FB5044601210846FDF78DFD12
:1049300040F60F60ADF804000020ADF80600ADF8B9
:104940000840ADF80A0001A94FF08040FDF7ACFE29
:1049500001218807FEF704FB4FF4A060FCF7F6FF87
:104960001C208DF8000002208DF8010003208DF836
:10497000020001208DF803006846FCF7ECFF0121DE
:104980008807FEF7C7FC002201218807FEF703FA1B
:1049900000214FF08040FEF7E3F9012004B010BD84
:1049A00010B501218807FEF7B5FC012211469007DA
:1049B000FEF7F1F900214FF08040FEF765FC012180
:1049C0008807FEF7CDF910BD10B501211148FEF79B
:1049D000A1FC002201210F48FEF7DDF900210D485E
:1049E000FEF752FC00210B48FEF7BAF910BD10B5D6
:1049F00009480068804710BD10B501218807FEF7FF
:104A000078FC28B101218807FEF784FCFFF7EFFF4F
:104A100010BD0000000800405001002030B50346E2
:104A20000020B1F57A7F18DB8D18B5F57B7F14DC9B
:104A3000104D2D884C1B0DE00F4D35F814502D12E4
:104A400003F8015B0C4D15F8145003F8015B641C6E
:104A5000551EAAB2002AEFDC00E0012030BD10B5DF
:104A60000446012010BD10B50446012010BD0346C8
:104A7000012070475E010020600100201CB50C463B
:104A8000064B7B4469460090204600F07CF90446C2
:104A90000020694600F08AF920461CBD270300006B
:104AA0000EB5054614460E4612A000F077FB2846C8
:104AB00000F074FB15A000F071FB304600F06EFBB7
:104AC00014A000F06BFB00218DF80B100A210DF1F2
:104AD0000A008DF80A1007E0224694FBF1F401FB6E
:104AE0001422303200F8012D002CF5DC00F056FBCA
:104AF00000F04CFB2A2A2A20617373657274696F77
:104B00006E206661696C65643A2000002C2066693D
:104B10006C6520002C206C696E65200030B5054660
:104B20000B462A4613F8014B12F8010B08B1A042BC
:104B3000F8D01CB1002802D06D1CF1E7284630BD2A
:104B400010B5431C02E010F8011B71B18107FAD1C6
:104B50004FF0013202C88C1A8C4314EAC211F9D00A
:104B6000C01A0A0603D0C01E10BDC01A10BD0A0428
:104B700001D0801E10BD0902FCD0401E10BD032ACA
:104B800040F2308010F0030C00F0158011F8013B6A
:104B9000BCF1020F624498BF11F801CB00F8013B51
:104BA00038BF11F8013BA2F1040298BF00F801CB15
:104BB00038BF00F8013B11F0030300F0F982083A16
:104BC000C0F0088051F8043B083A51F804CBA0E843
:104BD0000810F5E7121D5CBF51F8043B40F8043B98
:104BE000AFF30080D20724BF11F8013B11F801CBCD
:104BF00048BF11F8012B24BF00F8013B00F801CB9E
:104C000048BF00F8012B704770477047704770B578
:104C1000044685690068C10601D5302600E02026DB
:104C2000C00708D070BDD4E9012130469047206A02
:104C300000F1010020626D1EF5D570BD70B504460F
:104C400085690078C00708D170BDD4E90121202012
:104C50009047206A00F1010020626D1EF5D570BDFD
:104C600009684A0501D540B27047C905FCD500B2B4
:104C7000704709684A0501D5C0B27047C905FCD51F
:104C800080B2704770B50C460546012A05D02878D9
:104C9000800600D5EA69002302E0012305E05B1CE1
:104CA000934202D2E05C0028F9D1A869E618C01A44
:104CB000A861286A184428622846FFF7A8FF04E084
:104CC000D5E9012114F8010B9047B442F8D32846E6
:104CD000FFF7B4FF70BD00002DE9F0410646002447
:104CE00010687529314616A511D0FFF7B9FF0028C5
:104CF00003DAC0F1000013A507E031688A0701D587
:104D000011A502E0490704D510A5012401E0FFF731
:104D1000B0FF00210A2306F1240707E0B0FBF3F2FD
:104D200003FB1200303078541046491C0028F5D19E
:104D300023462A463046BDE8F04100F0BEBA0000E6
:104D4000000000002D0000002B00000020000000EB
:104D500011680268006A530501D508700BE0D3059D
:104D600001D5088007E0130603D5C217C1E9000288
:104D700001E05206086001207047000001694A1CEA
:104D800002610878704700B58FB0CDE9013100218C
:104D9000059105497944CDE903101146684600F0B4
:104DA0002FF90FB000BD0000E5FFFFFF0A6802F811
:104DB000010B0A60704700002DE9FF5F15468A4627
:104DC0000446DFF8AC80F8440027D8E900103E46DE
:104DD000CDE9001011E03AF816106A4602A800F07A
:104DE00004FD411C07D02178890603D5E2693918F2
:104DF00091420ED8074406F101062078800602D5BC
:104E0000E069B84205DDAE42E5DB3AF8160000285D
:104E1000E1D1A069C01BA0612046FFF7F8FED8E9E8
:104E20000010CDE90010002016E03AF818106A468C
:104E300002A800F0DAFC8146401C0BD000250DF1E1
:104E4000080B05E0D4E901211BF8050090476D1C13
:104E50004D45F7D308F10100B0428046E5DB206AFA
:104E6000384420622046FFF7E9FEBDE8FF9F0000BE
:104E7000DA1C00002DE9F0418046D21D22F0070225
:104E80000025D2E90002F52914A612D0002A06DA7C
:104E90000023D0EB030063EB020211A608E0D8F870
:104EA00000108B0701D50FA602E0490701D50EA619
:104EB00001251146002408F1240704E000F0B8F9A8
:104EC00030323A55641C50EA0102F7D12B46324683
:104ED00021464046BDE8F04100F0EFB90000000077
:104EE0002D0000002B0000002000000030B4002145
:104EF00000F124040CE002F0070505F130054FEA4B
:104F0000D20242EA4372655401F101014FEAD30330
:104F100052EA0305EFD10468002310A2250708D543
:104F200004F020040C4304D0C46901230CA2641EC5
:104F3000C46130BC00F0C1B910B504462146106808
:104F4000FFF797FE02462046BDE810400023CDE75C
:104F5000D21D22F00701D1E90023C7E700000000BD
:104F600030000000F0B40D460188090502D5234C3D
:104F70007C4402E0214C7C440E34002100F12406E4
:104F80000BE002F00F074FEA1212E75D42EA0372EC
:104F90004FEA1313775401F1010152EA0307F0D1EC
:104FA00002780023120704D5702D06D009B1113400
:104FB00002232246F0BC00F080B910340123F8E748
:104FC00070B504460D4621461068FFF752FE0246B2
:104FD00029462046BDE870400023C3E7D21D22F0D9
:104FE0000703D3E90023BDE70368126843F02003F9
:104FF00003600823C3610023B4E70000381B0000EE
:105000002DE9F05F894604464FF0000ADFF878B1D9
:10501000FB44C0F820A02046E1688847002875D0EE
:10502000252806D0D4E901219047206A401C20623F
:10503000F1E700265F462046E168884720280546BC
:1050400008DB312D06D207EB050010F8200C08B163
:105050000643F0E7B00701D526F00406C4F81CA00B
:105060000027C4F818A02A2D09D0284601F019F904
:1050700038B304EB8708303DC8F8185019E059F8E8
:10508000041B204604EB87029161E1688847012FE9
:10509000054618D1E069002820DA26F020061DE038
:1050A000D8F8180000EB800005EB40003038C8F855
:1050B00018002046E1688847054601F0F2F800280C
:1050C000EED1012F0AD02E2D08D12046E168884765
:1050D0007F1C0546022F46F02006C4DBA06900288D
:1050E00003DA404246F00106A061F00701D026F045
:1050F00010066C2D0BD0682D09D04C2D39D06A2D9F
:1051000035D0742D35D07A2D33D016E038E0E168F3
:105110002F4620468847B842054609D16C2F26D035
:105120004FF48060E168064320468847054604E066
:105130006C2F1AD04FF4807006430DB3A5F14100D7
:10514000192802D8203546F400664A4629462046EA
:1051500026604E46FBF746F880B101280BD0F61DBD
:1051600026F0070000F1080955E74020E4E7802019
:10517000D8E70020D6E706F104094CE7284651E7B6
:10518000206ABDE8F09F0000C01A0000002000F077
:105190004CFBFBF77FF8012000F044F810B5044603
:1051A00002E0641C00F036F820780028F9D110BD28
:1051B00010B5203AC0F00B80B1E81850203AA0E8B2
:1051C0001850B1E81850A0E81850BFF4F5AF5FEAE6
:1051D000027C24BFB1E81850A0E8185044BF18C999
:1051E00018C0BDE810405FEA827C24BF51F8043B40
:1051F00040F8043B08BF7047D20728BF31F8023B94
:1052000048BF11F8012B28BF20F8023B48BF00F827
:10521000012B704708B569468DF800000320ABBE2E
:1052200008BD000001491820ABBEFEE726000200C1
:1052300030B5B0F10A024FEA900E71F100034EEA68
:10524000817EB0EB0E0061EB91014FEA101E4EEA39
:10525000017E10EB0E0041EB11114FEA102E4EEAC9
:10526000016E10EB0E0041EB11214FEA104E4EEA99
:10527000014E10EB0E0041EB1141401841F10001CD
:105280004FEAD00040EA41704FEAD10110EB8005AF
:105290004FEA810444EA907444EB01046D1944EB35
:1052A0000404521BA3414FF0000348BF0A3200D54B
:1052B00030BD401C41F1000130BD2DE9F0470D46E5
:1052C00099469246044600F124080168880604D5F0
:1052D000E06921F01001216000E00120A84202DD18
:1052E000A0EB050700E00027A16907EB050202EB30
:1052F0000900A1EB0000A0612078C00602D420467E
:10530000FFF785FC002608E0D4E901211AF8060021
:105310009047206A401C761C20624E45F4DB2078C2
:10532000C0060AD52046FFF772FC06E0D4E9012149
:1053300030209047206A401C2062381EA7F10107E8
:10534000F4DC07E0D4E9012118F805009047206A51
:10535000401C2062281EA5F10105F3DC2046FFF762
:105360006DFC2078000602D50220BDE8F087012000
:10537000FBE770472DE9FF4F0C461E464FF0FF3705
:105380008BB0D2E90001DDF860800A908A46C1F353
:105390000A5505B93D46002108464FF00000BAF114
:1053A000000F00F4400005DA00EB80004FF44001EC
:1053B00001EA50004FEA9059B9F1010F00DDB946FA
:1053C0000A9850EA4A000ED044F61050A5F2FF3574
:1053D00045432F14B8F1000F1ED07542291E1EDD63
:1053E000C9F100021CE0B8F1010F4FF0000001D03C
:1053F000302103E0F24305E02154401CB042FBDBC6
:1054000030460022002121540B99C1F80880C1E9DF
:1054100000200FB0BDE8F08FBD1B6D1CDEE74A46D3
:1054200000DA694206A800F079FA06AB07CB03ABB5
:1054300007C350460A9900F065FB8DE80700A0F508
:1054400000501F3800900398002D09DD42F21F0123
:105450004A46084403A90390684600F0C4FD08E0EA
:10546000A0F500504A461F3803A90390684600F093
:10547000CEFD8DE807000004000C03D04FF0FF3094
:10548000410800E01046B8F1000F03D0002200925E
:1054900015461FE0751E06D4FFF7CAFE02F1300262
:1054A00062556D1EF8D5B3460122084302D0002292
:1054B0007F1C04E02078302801D100227F1E002AC2
:1054C000099787D01DE0112D07DAFFF7B1FE3032C2
:1054D00062556D1C50EA0102F5D108430FD100213D
:1054E000681E05E0235C625C6354491C2254401E24
:1054F0008142F7DBAB46A81B401E099001E00098F3
:1055000048B1002004F80B000B98099AC0F80880F5
:10551000C0E9002B7DE711264FF000085AE72DE97E
:10552000F04F88460446D21D22F0070191B0D1E920
:105530000001CDE90A0100F0A0FE02460B98C00F61
:1055400001D02D2007E02068810701D52B2002E043
:10555000202101EAC000032A099001D0072A05DBB7
:1055600003464146204600F099F90FE12078800675
:1055700001D5E06900E00620B8F1650F814606D04C
:10558000B8F1660F18D0B8F1670F72D132E0002081
:10559000B9F1110F009001DB112301E009F10103C2
:1055A0000AAA01A90CA8FFF7E5FEDDE90C700026A8
:1055B00009F10105834648E001204B4600904FF079
:1055C00000470AAA01A90CA8FFF7D4FEDDE90DB037
:1055D0000C995D46002618B909F1010001EB0005A0
:1055E000B9EB050003D4C0F1FF3609F10105A5EBC5
:1055F00009002BE0B9F1010F01DA4FF00109002099
:10560000B9F1110F0090484601DD112300E0034677
:105610000AAA01A90CA8FFF7ADFEDDE90C704D4602
:1056200000268346207800070AD4AB4500DA5D46A1
:1056300001A8012D04DD411911F8011C302907D002
:105640004F4502DA17F1040F04DA0120824610E018
:105650006D1EEEE7002F02DCED1B3E4403E0781CDC
:10566000A84200DD0546A7EB060000F1010A4FF055
:1056700000472078000703D4AA4501DB4FF0FF3A2A
:105680000021B7F1004F0DF143088DF8431023D0EE
:1056900002202B23002F01DA7F422D234FF00A0C2A
:1056A000011EA0F1010000DC4FB197FBFCF10CFBE7
:1056B00011720F4602F1300208F8012DF0E7A8F14F
:1056C000010003702188090501D5452100E065210D
:1056D000A0F1010800F8011C09980FA9A1EB080727
:1056E00007F1070700B1012000EB050101EBEA70AB
:1056F000A1693844A1EB0000A0F10100A06120786D
:10570000C00602D42046FFF782FA099830B1D4E9E6
:1057100001219047206A00F1010020622078C00634
:1057200020D52046FFF773FA1CE0002E04DBB345BA
:1057300002DD01A8805D00E03020D4E9012190471E
:10574000206A761C401CBAF1010A20620AD100F0DE
:10575000A1F8C0680168405CD4E901219047206A43
:10576000401C2062281EA5F10105DEDC07E0D4E91B
:10577000012118F8010B9047206A401C2062381E56
:10578000A7F10107F3DC2046FFF758FA022011B019
:1057900040E610B5436913B1AFF3008001E0FFF7B5
:1057A00071FA012010BD127800F124010A70002264
:1057B0004A700122EDE711684FF0FF32E9E710B5BA
:1057C000436913B1AFF3008001E0FFF7F5FA012060
:1057D00010BD128800F1240182840022C2840122BB
:1057E000EDE711684FF0FF32E9E770B516460C4659
:1057F000054600F047F8036893F80101012806D038
:10580000FF2C0FD8185D68B101202C7070BDD3F843
:1058100007013246214603442846BDE8704003F2A2
:10582000071318474FF0FF3070BD10B500F0F4F8C3
:10583000BDE8104000F0EAB87047754600F004F982
:10584000AE4605006946534620F00700854618B06D
:1058500020B5FDF775FFBDE820404FF000064FF082
:1058600000074FF000084FF0000B21F00701AC4695
:10587000ACE8C009ACE8C009ACE8C009ACE8C009B4
:105880008D46704710B500F005F8001D10BD00BF33
:105890004D0A000000487047E45000202DE9F04117
:1058A0001F46044603260168072A01F4006004DB52
:1058B00008B116A505E016A503E008B115A500E09E
:1058C00015A521F010002060A069C01EA0610FB1D5
:1058D000401EA0612046FFF79AF94FB1D4E901219B
:1058E00038469047206A401C2062C01C206206E0B7
:1058F000206AFAE7D4E9012115F8010B9047761EDA
:10590000F8D22046FFF79AF9BDE8F0814E414E00EB
:105910006E616E00494E4600696E66002DE9F047E3
:10592000814616468AB035487844D0E9002380681D
:105930000092CDE90130314878440C38D0E9022397
:10594000006903924FF03702CDE9043041F69B30F5
:10595000014491FBF2F0A0F1800502FB10141B3C06
:1059600002D56442012000E00020DFF890A08046CC
:105970000027FA44AAF1C60A0DE0E00709D0324632
:10598000684607EB47010AEB810100F040FB8DE818
:10599000070064107F1C002CEFD1184F7F44B43FE8
:1059A00017E0E80713D007EB04100DF1180A90E890
:1059B0000E00AAE80E00C068F04201D198190890C4
:1059C000324606A903A800F022FB03AB07C36D1003
:1059D000641C002DE5D132466946B8F1000F03A8DA
:1059E00002D000F000FB01E000F011FBC9E900016A
:1059F000C9F808200AB0BDE8F0870000381200009E
:105A00000446AFF300802046FAF74FFC002801D08F
:105A1000FFF708BC7047000010B5002102A000F09D
:105A200017F8012010BD0000534947414252543A33
:105A30002041626E6F726D616C207465726D696E6B
:105A40006174696F6E00000000487047C450002008
:105A500070B505460C460A2000E06D1CFFF7DAFB26
:105A600035B128780028F8D102E0641CFFF7D2FB9A
:105A700014B120780028F8D1BDE870400A20FFF763
:105A8000C9BB00004FF0013C50F8042B51F8043B17
:105A90009A4221D1A2EB0C03934313EACC1317D102
:105AA00050F8042B51F8043B9A4215D1A2EB0C0399
:105AB000934313EACC130BD150F8042B51F8043B59
:105AC0009A4209D1A2EB0C03934313EACC13DBD027
:105AD0004FF00000704700BFD01A01BAB1FA81F14F
