:020000040800F2
:10000000B853002049390008BD3C0008BF3C000837
:10001000C33C0008C73C0008CB3C000800000000BF
:100020000000000000000000000000004501000882
:10003000D13C00080000000085010008A914000858
:100040006339000863390008633900086339000820
:100050006339000863390008633900086339000810
:100060006339000863390008633900086339000800
:1000700063390008633900086339000863390008F0
:1000800063390008633900086339000863390008E0
:1000900063390008633900086339000863390008D0
:1000A00063390008633900086339000863390008C0
:1000B000633900086339000887460008633900087F
:1000C00063390008633900086339000863390008A0
:1000D00063390008AF3D0008633900086339000840
:1000E0006339000863390008633900086339000880
:1000F0006339000863390008633900086339000870
:10010000633900086339000863390008633900085F
:10011000C1450008633900086339000863390008E5
:10012000633900086339000863390008633900083F
:10013000DFF80CD004F040FF00480047273B0008E0
:10014000B85300201F4B19680868B0E8F00F80F31F
:100150000988BFF36F8F4FF0000080F311884EF0D5
:100160000D0E70470000000005480068006880F32D
:10017000088862B6BFF34F8FBFF36F8F00DF00BFF9
:1001800008ED00E0EFF30980BFF36F8F0D4B1A68A5
:1001900020E9F00F106008B54FF0BF0080F3118820
:1001A00000F03AFE4FF0000080F31188BDE80840EF
:1001B00019680868B0E8F00F80F30988BFF36F8F03
:1001C000704700BF00000020EFF311804FF0BF0127
:1001D00081F31188704780F311887047EFF3058031
:1001E000704700F1080141604FF0FF31816000F17C
:1001F0000801C160016100210160704700210161B7
:10020000704742684A6093688B6093685960916058
:10021000086103685B1C0360704710B502460B68F9
:100220005C1C01D1106907E002F1080000E04068A1
:10023000446824689C42FAD944684C604C68A160C8
:10024000886041600A611468641C146010BD014636
:100250000A69D1E901309860D1E90103586050681A
:10026000884201D188685060002008611068401EF3
:1002700010601068704770B505460E462C4601F0B8
:10028000F9F8D4E90F12206801FB02006060002039
:10029000A0632068A060E06B401E226C216800FB18
:1002A0000210E0604FF0FF306064A06476B920690E
:1002B00008B9012000E0002080B904F1100000F02E
:1002C00076FF01280AD101F0CBF807E004F1100015
:1002D000FFF787FF04F12400FFF783FF01F0D7F851
:1002E000012070BD2DE9F04705460E4691464FF0BE
:1002F0000008C5B14C2001F004F904469CB105FB8F
:1003000006F0471C384601F0FCF82060206838B140
:10031000E563266401212046FFF7ADFFA04602E019
:10032000204601F041F94046BDE8F08710B504468B
:1003300001F0A0F811E0606A08B9012000E0002097
:1003400038B904F1240000F032FF18B100F0C1FF09
:1003500000E005E0A06C401EA064A06C0028EADC70
:1003600000BF4FF0FF30A06401F091F801F082F877
:1003700011E0206908B9012000E0002050B904F123
:10038000100000F014FF08B100F0A3FF606C401EE5
:10039000606400E002E0606C0028EADC00BF4FF01F
:1003A000FF30606401F073F810BD70B5054601F0D0
:1003B00061F8A86BE96B884201D1012400E00024B8
:1003C00001F065F8204670BD70B504460E4615462E
:1003D000206C38B9206870BB606800F0C1FF002055
:1003E000606028E07DB93146226CA06804F066FAAE
:1003F000216CA0680844A060D4E9011088421AD397
:100400002068A06017E03146226CE06804F056FADC
:10041000216CE068401AE0602168E068884203D2FD
:10042000216C6068401AE060022D04D1A06B10B10D
:10043000A06B401EA063A06B401CA06370BD2DE9A3
:10044000FF4182B006460F461D464FF00008344675
:1004500000BF01F00FF8A06BE16B884201D3022DC1
:1004600018D12A4639462046FFF7AEFF606A08B920
:10047000012000E0002038B904F1240000F097FECC
:10048000012801D100F0ECFF01F001F8012006B0D5
:10049000BDE8F081049818B900F0F9FF0020F6E7F4
:1004A000B8F1000F04D1684600F0E2FE4FF00108F9
:1004B00000F0EDFF00F0EFFB00F0DCFF606C401C93
:1004C00000D16064A06C401C00D1A06400F0DFFF8C
:1004D00004A9684600F0D3FEC0B92046FFF765FFC7
:1004E00070B104F11000049900F01DFE2046FFF7E2
:1004F0001DFF00F02DFB0028ABD100F0B1FFA8E7F5
:100500002046FFF713FF00F023FBA2E72046FFF78A
:100510000DFF00F01DFB0020B9E770B505464C202B
:1005200000F0EFFF0446D4B1002060602060A060BE
:10053000E060A0630120E06300202064401E60644E
:10054000A06404F11000FFF74CFE04F12400FFF753
:1005500048FE00231A4619462046FFF770FF204642
:1005600070BD2DE9F0470546894616461F462C46C4
:10057000FFF72AFE8246A06BE16B884201D3022F6F
:100580001CD13A4649462046FFF71EFFA06C401C8E
:100590000ED1606A08B9012000E0002058B904F1CA
:1005A000240000F004FE30B12EB10120306002E0E2
:1005B000A06C401CA0644FF0010801E04FF000085F
:1005C0005046FFF708FE4046BDE8F08770B5054687
:1005D00000F050FFA86B08B9012400E0002400F0EF
:1005E00056FF204670BD70B504460D46206870B1B8
:1005F000216CE0680844E0606168E068884201D3EB
:100600002068E0602846226CE16804F057F970BD6C
:100610002DE9FF4383B0054688461E464FF000098A
:100620002C4600BF00F026FFA06B80B3E768414670
:100630002046FFF7D8FFB6B9A06B401EA063206824
:1006400010B900F04AFE6060206908B9012000E09E
:100650000020B0B904F1100000F0A9FD012810D16C
:1006600000F0FEFE0DE0E760606A08B9012000E0DE
:10067000002030B904F1240000F099FD08B100F029
:10068000EFFE00F004FF012007B0BDE8F083FFE7B4
:10069000059818B900F0FBFE0020F5E7B9F1000F4E
:1006A00004D101A800F0E4FD4FF0010900F0EFFED5
:1006B00000F0F1FA00F0DEFE606C401C00D16064D6
:1006C000A06C401C00D1A06400F0E1FE05A901A8C7
:1006D00000F0D5FD08BB2046FFF778FFB8B12068D1
:1006E00030B900F0C7FE606800F0FAFD00F0CFFE00
:1006F00004F12400059900F016FD2046FFF716FED0
:1007000000F026FA00288DD100F0AAFE8AE72046E4
:10071000FFF70CFE00F01CFA84E72046FFF706FE08
:1007200000F016FA0020AFE72DE9F04705468846AD
:1007300016462C46FFF748FD8146A06BE8B14146BE
:100740002046FFF750FFA06B401EA063606C401C6A
:100750000ED1206908B9012000E0002058B904F149
:10076000100000F024FD30B12EB10120306002E015
:10077000606C401C6064012700E000274846FFF7DA
:100780002AFD3846BDE8F0872DE9F0470546884642
:100790002C46FFF719FD8146A06B38B1E76841464A
:1007A0002046FFF720FFE760012600E000264846CC
:1007B000FFF711FD3046BDE8F08770B5044600F044
:1007C00059FEA56B00F063FE284670BD70B5044667
:1007D000254600F04FFED5E90E10461A00F057FEF0
:1007E000304670BD0146886B704770B5044625469B
:1007F000286810B1286800F0D7FE284600F0D4FE23
:1008000070BD01468A6B0AB9012000E000207047E4
:1008100001468A6BCB6B9A4201D1012000E0002097
:100820007047000010B5002407E004EB8401F64A8D
:1008300002EB8100FFF7D5FC641C052CF5D3F348CF
:10084000FFF7CFFCF248FFF7CCFCF248FFF7C9FCFA
:10085000F148FFF7C6FCF148FFF7C3FCEB48F0494D
:100860000860EB48EF49086010BD2DE9F0470446E9
:100870000F4615469946DDF82080002607E0B95D51
:1008800004F134008155B85D00B902E0761C102EE9
:10089000F5D300BF002143200155052D00D30425C9
:1008A000E5626564201DFFF7A9FC04F11800FFF75D
:1008B000A5FC2461C5F10500A0616462BDE8F08774
:1008C00070B505460E46482000F01BFE044664B194
:1008D0001EB9A80000F015FE00E030462063206B32
:1008E00018B9204600F060FE0024204670BD2DE9B6
:1008F000FF4F81B0804615469946DDE90E7A2846BD
:100900001099FFF7DDFF0446002C4ED0681E216BC6
:1009100001EB800B2BF0070B00953A462046119B0C
:100920000299FFF7A2FF4A464146584600F06EFD85
:100930002060BAF1000F01D0CAF8004000F09AFD23
:10094000B9480068401CB8490860B848006840B918
:10095000B64804600846006801280CD1FFF762FF22
:1009600009E0B348006830B9B0480068C06AB842CE
:1009700001D8AE480460AF480068401CAD4908602B
:10098000AD49E06A0968884202D9AB49E06A08606B
:10099000E16A01EB81019C4A02EB8100211DFFF716
:1009A00030FC012600F073FD01E04FF0FF36012E10
:1009B00009D19F48006830B19C480068C06AB842BD
:1009C00001D200F04DFD304605B0BDE8F08F9449EE
:1009D0000968096809B9012100E0002121B14FF03F
:1009E000FF31964A116006E08D490968C968C868F8
:1009F000924A41681160704770B5054600F03AFDB3
:100A000015B98A48006800E028460446201DFFF713
:100A10001EFCA06A18B104F11800FFF718FC211D94
:100A20007D48FFF7EEFB86480068401C844908605B
:100A300080480068401C7F49086000F028FD7C4821
:100A4000006860B179480068844202D100F008FD76
:100A500005E000F00FFDFFF7BAFF00F018FD70BDD4
:100A60002DE9F041002777480068002864D17648D6
:100A70000068401C74490860084606688EB96848DA
:100A8000D0F8008067480068654908606548C0F88C
:100A900000806E480068401C6C490860FFF797FFB3
:100AA00000BF6648006886423AD300BF5C480068D1
:100AB000006808B9012000E0002020B14FF0FF30AD
:100AC0005E4908602BE056480068C068C4686568E5
:100AD000AE4202D25948056021E0201DFFF7B7FB66
:100AE000A06A18B104F11800FFF7B1FB5249E06A9F
:100AF0000968884202D95049E06A0860E16A01EB5E
:100B00008101414A02EB8100211DFFF77AFB474931
:100B1000E06A0968C96A8842C8D30127C6E700BFEE
:100B200042480068C06A00EB8000374951F8200055
:100B3000012806D9012704E045480068401C4449C3
:100B400008604448006800B101273846BDE8F081DC
:100B500070B5002500F08EFC3A480068401E394907
:100B600008600846006800284AD12F48006800281D
:100B700046D023E02748C068C46804F11800FFF796
:100B800066FB201DFFF763FB2B49E06A096888427A
:100B900002D92949E06A0860E16A01EB81011A4A39
:100BA00002EB8100211DFFF72CFB2049E06A096858
:100BB000C96A884202D301202649086015480068A6
:100BC00008B9012000E000200028D3D020480068A8
:100BD00078B10AE0FFF744FF10B101201D49086019
:100BE0001B480068401E1A49086019480068002820
:100BF000F0D118480068012802D1012500F030FC2E
:100C000000F045FC284670BDB00000201401002013
:100C1000280100203C010020500100206401002038
:100C200030000020340000200800002000000020D8
:100C300014000020240000201000002028000020C4
:100C4000040000202C0000200C00002020000020C8
:100C5000180000201C00002010B50446FE48006863
:100C60004460FE480068844207D2FB480168091DC1
:100C7000FB480068FFF7D1FA0CE0F7480168091D4E
:100C8000F8480068FFF7C9FAF7480068844201D2C3
:100C9000F548046010BDF5480068401CF349086041
:100CA00070472DE9F047044688464FF00009FFF7EA
:100CB000F2FFEA480768206800EB08052068B842A0
:100CC00007D92068A8420BD9BD4209D94FF00109C4
:100CD00006E02068A84201D8BD4201D94FF00109C1
:100CE0002560B9F1000F07D0DB480068001DFFF751
:100CF000AEFA2846FFF7B0FFFFF72AFF06460EB907
:100D000000F0AEFBBDE8F08770B5044600267CB16C
:100D1000FFF7C1FFD14800680519CF480068001DE2
:100D2000FFF795FA2846FFF797FFFFF711FF0646F2
:100D30000EB900F095FB70BD70B5044600F09AFB4B
:100D400014B9C548006800E020460646F56A00F080
:100D50009EFB284670BD2DE9F04707460D464FF033
:100D60000009052D00D3042500F084FB17B9BA480B
:100D7000006800E038460446666CAE4248D0B54292
:100D80000BD9B548006884420DD0B3480068C06AEA
:100D9000A84208D84FF0010905E0AF480068844236
:100DA00001D14FF00109D4F82C80E16A606C8842CF
:100DB00000D1E5626564A06910F0004F02D1C5F171
:100DC0000500A06108EB8801A94A02EB8101606976
:100DD000884201D1012000E0002098B1201DFFF7DA
:100DE00036FAA449E06A0968884202D9A149E06A52
:100DF0000860E16A01EB81019D4A02EB8100211D3F
:100E0000FFF7FFF9B9F1010F01D100F029FB00BF95
:100E100000F03DFBBDE8F0879448006818B1012060
:100E2000954908602CE000209349086004E091484F
:100E30000068401E8F4908608E48006800EB800003
:100E40008B4951F8200008B9012000E0002000285B
:100E5000EDD18849096801EB8101854A02EB8100E7
:100E600041684968416000F1080142688A4202D144
:100E70004168496841604168C968774A116000BFAC
:100E8000704770B5054600F0F5FA15B9724800686C
:100E900000E028460446201DFFF7D9F9A06A18B1E2
:100EA00004F11800FFF7D3F9211D7448FFF7A9F9E1
:100EB00000F0EDFA68480068844212D1704800687A
:100EC00010B100F0CDFA15E06C4800686D49096872
:100ED000884203D10020604908600BE0FFF79CFFC7
:100EE00008E06748006828B100F0C4FAFFF76FFD1A
:100EF00000F0CDFA70BD10B5014600200A465F4CE7
:100F00005369A34201D1012300E0002373B15E4C79
:100F1000936AA34201D1012300E0002333B9936A0D
:100F20000BB9012300E0002303B1012010BD70B50F
:100F300005462C4644B348480068844224D000F05B
:100F400099FA2046FFF7D7FF01281BD1201DFFF794
:100F50007EF94849E06A0968884202D94549E06A51
:100F60000860E16A01EB8101414A02EB8100211D29
:100F7000FFF747F93849E06A0968C96A884201D32E
:100F800000F06EFA00F083FA70BD2DE9F0410546DD
:100F900000262C46FFF718F907462046FFF7ABFF5F
:100FA000012823D131480068D8B92B49E06A096883
:100FB000C96A884200D30126201DFFF748F92D4950
:100FC000E06A0968884202D92A49E06A0860E16A51
:100FD00001EB8101264A02EB8100211DFFF711F987
:100FE00004E004F118012848FFF70BF93846FFF731
:100FF000F2F83046BDE8F08110B50446206B00F0F1
:10100000D3FA204600F0D0FA10BD70B523E0FFF708
:1010100042FE1E48006808B9012000E00020054695
:10102000FFF796FDBDB900F025FA1848C068C468FE
:10103000201DFFF70CF913480068401E1149086095
:1010400013480068401E1249086000F020FA20464C
:10105000FFF7D2FF00BF1DE0000000200C000020C1
:101060003400002030000020280000202C00002048
:10107000B0000020100000201C00002064010020AF
:1010800014000020080000203C0100205001002036
:1010900004000020CC4800680028B8D170BD00BF13
:1010A000FFF7B3FFC94800680128F9D900F0D8F963
:1010B000F6E71FB5002000900190029003468022C1
:1010C000C3A10390C448FFF712FC0446012C09D1C8
:1010D000FFF77AF80120C14908600020C049086084
:1010E00000F0A8F91FBD10B5FFF76EF80020BB494E
:1010F000086000F0B4F910BD10B500F0BBF9B848B5
:10110000046800F0C4F9204610BD70B5FFF75CF824
:101110000546B34804682846FFF75DF8204670BDD1
:10112000B0480068704770B506460C46AE48016886
:1011300018313046FFF771F8AB480068001DFFF723
:1011400086F8601C06D1A8480168091DA748FFF76A
:1011500058F805E0A248006805192846FFF77CFD0D
:1011600070BD2DE9F04107460D46144645F000409C
:101170009D49096888619C48016818313846FFF725
:1011800040F899480068001DFFF761F8601C06D11F
:1011900095480168091D9548FFF733F805E0904828
:1011A000006806193046FFF757FDBDE8F08170B5BD
:1011B0000646F068C46804F11800FFF748F88C4848
:1011C0000068A0B9201DFFF742F88A49E06A096863
:1011D000884202D98749E06A0860E16A01EB81012F
:1011E0007A4A02EB8100211DFFF70BF804E004F1BD
:1011F00018018148FFF705F87B49E06A0968C96A68
:10120000884204D9012501207C49086000E00025BE
:10121000284670BD2DE9F04105460F4647F00040D5
:101220002860EC682846FFF712F8201DFFF70FF83A
:101230007049E06A0968884202D96E49E06A08602C
:10124000E16A01EB8101614A02EB8100211DFEF799
:10125000D8FF6549E06A0968C96A884204D901264D
:1012600001206649086000E000263046BDE8F081B4
:101270006349096801605A4909684160704770B55F
:1012800004460D4600F0F6F8554802682868401CF0
:1012900001D1002619E05A4920680968884204D023
:1012A0006068904201D801260FE06068101A296832
:1012B000884209D228686168511A401A286020467D
:1012C000FFF7D6FF002600E0012600F0E0F83046E8
:1012D00070BD01204949086070474349086870475C
:1012E00070B505462C46002D39D03F49E06A0968A3
:1012F000C96A884233D2A06910F0004F05D13A483C
:101300000068C06AC0F10500A061E16A01EB8101DB
:101310002E4A02EB81016069884201D1012000E080
:101320000020C0B1201DFEF792FF2F480068C06A60
:10133000E0623049E06A0968884202D92D49E06AD2
:101340000860E16A01EB8101204A02EB8100211D66
:10135000FEF757FF03E024480068C06AE06270BDF2
:1013600070B505462C460DB3616CE06A88421DD00D
:10137000201DFEF76CFF606CE062A06910F0004F6A
:1013800003D1E06AC0F10500A0611A49E06A09686A
:10139000884202D91749E06A0860E16A01EB8101DD
:1013A0000A4A02EB8100211DFEF72BFF70BD0E499A
:1013B000096888690C490968C96AC1F105010A4AC6
:1013C000126891617047000004000020B000002006
:1013D00049444C45000000009F1000081400002004
:1013E0000C00002008000020000000206401002004
:1013F0002C000020100000203C0100201C000020D8
:1014000020000020FEF7E0FE00BFFEE7001F4FF0C7
:1014100080730360001F0160001F2B4B03601438B2
:1014200002602038704729484FF0E02148610720CA
:101430000861704710B52648006840F47F002449D1
:1014400008600846006840F07F400860FFF7EBFF47
:10145000002020490860FEF787FE002010BD70477D
:101460004FF080501A491C390860BFF34F8FBFF30B
:101470006F8F704710B5FEF7A7FE16480068401C36
:1014800014490860BFF34F8FBFF36F8F10BD10B5C5
:1014900010480068401E0F4908600846006810B9EF
:1014A0000020FEF798FE10BD10B5FEF78DFEFFF789
:1014B000D7FA20B14FF0805005491C390860002050
:1014C000FEF789FE10BD0000051400083F19010059
:1014D00020ED00E038000020434A22F00700434A94
:1014E00010600022414B5A6044F2F832404B5A607F
:1014F00000221A60014644F2F8324A601A460A6035
:1015000070472DE9F04104464FF00008FFF7C3FB98
:101510003848006820B9FFF7DFFF0120354908602F
:1015200044B1083414F0070F04D004F00700C0F1F0
:1015300008000444002C32D044F2F83084422ED209
:101540002A4F3846056801E02F462D686868A0429A
:1015500002D228680028F7D1254885421FD0386874
:1015600000F10808286838606868001B102810D946
:101570002E196868001B70606C6071681B4800E081
:101580000068026852688A42FAD3026832600660D4
:1015900000BF194968680968081A17490860FFF709
:1015A000D7FA4046BDE8F08170B506463546B6B17B
:1015B000083D2C46FFF76FFB61680C4800E00068AF
:1015C000026852688A42FAD30268226004600A49BB
:1015D00060680968084408490860FFF7B9FA70BDF7
:1015E00005480068704770478001002044000020D3
:1015F0004C000020400000203C0000200021002082
:10160000674A126842F48032654B1A6000BF644A30
:10161000126802F40030491C10B9B1F5006FF6D120
:101620005F4A126812F4003F01D0012000E0002060
:10163000012842D15B4A126842F01002594B1A60ED
:101640001A46126822F003021A601A46126842F023
:1016500002021A60524A5268514B5A601A46526846
:101660005A601A46526842F480625A601A465268BA
:1016700022F47C125A601A46526842F4E8125A6008
:101680001A46126842F080721A6000BF444A12681B
:1016900012F0007FFAD0424A526822F00302404B17
:1016A0005A601A46526842F002025A6000BF3C4A31
:1016B000526802F00C02082AF9D1704710B5FFF702
:1016C0009DFF10BD10B53648006840F00100344958
:1016D0000860084640683449084031494860084677
:1016E0000068324908402E4908600846006820F426
:1016F000802008600846406820F4FE0048604FF4EF
:101700001F008860FFF7DAFF4FF00060284908608B
:1017100010BD10B5002100200022214B5B6803F0B2
:101720000C0121B1042906D0082928D107E0214B5A
:10173000214C236027E01F4B1F4C236023E0184BF4
:101740005B6803F47010164B5B6803F4803202236D
:1017500003EB904022B9194B4343174C23600DE033
:101760000F4B5B6813F4003F04D0144B4343124CFF
:10177000236003E00F4B43430F4C236003E00D4B0A
:101780000D4C236000BF00BF054B5B68C3F3031320
:101790000B4CE15C084B1B68CB40074C236010BD31
:1017A00000100240002002400000FFF8FFFFF6FE9C
:1017B00008ED00E000127A005400002000093D000E
:1017C0005800002031490143314A1160704770B51B
:1017D000002100230F22C4780CB32D4C246804F49C
:1017E000E064C4F5E064210AC1F10403CA4044780E
:1017F00004FA03F18478144021430901254C06784A
:10180000A155047804F01F050124AC4005786D1142
:101810004FF0E02606EB8505C5F8004109E00478A5
:1018200004F01F050124AC401B4D0678761145F8E5
:10183000264070BD194A0A400243154B1B1F1A600F
:10184000704739B1124A121D12680243104B1B1D1A
:101850001A6006E00E4A121D126882430C4B1B1DD3
:101860001A607047042808D14FF0E021096941F05F
:1018700004014FF0E022116107E04FF0E021096917
:1018800021F004014FF0E022116170470000FA05D9
:101890000CED00E000E400E080E100E080FFFF1FCD
:1018A00010B50446F948844208D10121401500F0E2
:1018B0001FFF0021601500F01BFF17E0F448844271
:1018C00008D10121001500F013FF0021201500F0C0
:1018D0000FFF0BE0EF48844208D10121C80300F05C
:1018E00007FF00214FF4004000F002FF10BD30B5AB
:1018F0000246002000235068E74C20400D790C6818
:1019000044EA0524204350609068E44C2040D1E92B
:1019100002542C434D7944EA450420439060D06A38
:1019200020F470000C7C641EE4B2234340EA0350B0
:10193000D06230BD00210160017141718160C160E0
:1019400001210174704721B1826842F00102826076
:1019500003E0826822F001028260704721B1826850
:1019600042F48072826003E0826822F480728260B6
:10197000704710B50023CBB21AB144681C434460D1
:1019800002E044689C43446010BD816841F0080156
:1019900081607047014600208A6812F0080F01D06C
:1019A000012000E000207047816841F0040181605F
:1019B0007047014600208A6812F0040F01D0012010
:1019C00000E00020704721B1826842F4A0028260EA
:1019D00003E0826822F4A002826070470146002082
:1019E0008A6812F4800F01D0012000E000207047C7
:1019F00010B50A4600210023416821F46041531EBE
:101A000041EA4331416010BD21B1426842F40062B5
:101A1000426003E0426822F4006242607047F0B521
:101A200004460D4600200021092D11DDE068A5F1D6
:101A30000A0606EB4607072606FA07F18843A5F1D2
:101A40000A0606EB460603FA06F10843E0600CE0DE
:101A5000206905EB4507072606FA07F1884305EBE1
:101A6000450603FA06F108432061072A0FDA606B86
:101A7000561E06EB86071F2606FA07F18843561EF8
:101A800006EB860605FA06F10843606322E00D2A9C
:101A90000FDA206BD61F06EB86071F2606FA07F122
:101AA0008843D61F06EB860605FA06F10843206335
:101AB00010E0E06AA2F10D0606EB86071F2606FA83
:101AC00007F18843A2F10D0606EB860605FA06F13A
:101AD0000843E062F0BD21B1826842F48012826066
:101AE00003E0826822F48012826070470146C86C6D
:101AF00080B2704765484C300068704721B1426839
:101B000042F48062426003E0426822F480624260F4
:101B1000704721B1426842F48052426003E042685B
:101B200022F48052426070470A460021816821F405
:101B3000E04111438160704721B1826842F4004264
:101B4000826003E0826822F400428260704721B123
:101B5000826842F40212826003E0826822F4021278
:101B600082607047014600208A6812F4001F01D08D
:101B7000012000E000207047F0B504461546002023
:101B800000220026092911DDE068A1F10A0707EB10
:101B9000470C072707FA0CF29043A1F10A0707EB5D
:101BA000470703FA07F21043E0600CE0206901EBFD
:101BB000410C072707FA0CF2904301EB410703FAA7
:101BC00007F210432061A06BC0F30156EF1C06F131
:101BD000010CA7EB0C0707EB870C1F2707FA0CF289
:101BE0009043EF1C06F1010CA7EB0C0707EB8707EE
:101BF00001FA07F21043A063F0BD10B50A460021B8
:101C00000023816B21F44011531E41EA035181638B
:101C100010BD10B5002303460B441A6010BD0246E8
:101C20000023134601F128000344186880B270476E
:101C30000A46002141681A4B194011434160704720
:101C40004162826270470A460021416821F01F010B
:101C500011434160704740B10C490831096841F4B3
:101C600000010A4A0832116007E008490831096892
:101C700021F40001054A0832116070470246002035
:101C800013680B420ED001200DE00000002401403B
:101C900000280140003C0140FFFEF0FFFDF7F1FF8E
:101CA000FFFD3FFF00207047CA430260704770B5D8
:101CB00002460020002300240B125568CEB205EA2C
:101CC000060415681D4202D00CB1012000E000207E
:101CD00070BD00220A12D3430360704710B5012182
:101CE000480700F012FD00214FF0005000F00DFDFC
:101CF00010BD30B500220023514C226840F6FE741E
:101D00008440A243D1E900452C438D682C43CD6823
:101D100044EA050303FA00F42243494C226030BD33
:101D20000021016041608160C160704739B1444A5F
:101D30001268012383401A43414B1A6006E0404A6F
:101D40001268012383409A433D4B1A60704741B1AA
:101D50003B4A12684FF4805383401A43384B1A6051
:101D600007E0374A12684FF4805383409A43344B5C
:101D70001A60704710B551B1314A121D126804093A
:101D80000123A3401A432E4B1B1D1A6009E02C4A65
:101D9000121D126804090123A3409A43284B1B1DFE
:101DA0001A6010BD40B12649091D096841F00301C0
:101DB000234A121D116007E02149091D096821F01D
:101DC00003011F4A121D1160704710B53AB11C4B38
:101DD0001B6801FA00F42343194C236006E0184BFA
:101DE0001B6801FA00F4A343154C236010BD0022C8
:101DF000134A00F108031A44116070470022104A88
:101E000000F114031A441160704730B50024002318
:101E1000082802D142EA012401E042EA0144084BC9
:101E200000F120052B441C6030BD01460022044A0D
:101E30002C2000EB91000244106880B27047000033
:101E40000074004001684FF6FE72114001600021ED
:101E5000016041608160C1608C49884208D18B4932
:101E60000839496841F00F01884A083A51608AE010
:101E700086491431884208D184490839496841F0BB
:101E8000F001824A083A51607DE080492831884259
:101E900008D17E490839496841F470617B4A083AA3
:101EA000516070E079493C31884208D1774908395E
:101EB000496841F47041754A083A516063E07349DA
:101EC0005031884208D171490839496841F470217C
:101ED0006E4A083A516056E06C496431884208D134
:101EE0006A490839496841F47001684A083A516002
:101EF00049E066497831884208D16449083949681F
:101F000041F07061614A083A51603CE060498842A2
:101F100006D1011F096841F00F01021F116032E074
:101F20005B491431884208D15949091F096841F0B9
:101F3000F001574A121F116025E0554928318842A7
:101F400008D15349091F096841F47061504A121FB2
:101F5000116018E04E493C31884208D14C49091FB4
:101F6000096841F470414A4A121F11600BE0484968
:101F70005031884207D14649091F096841F4702150
:101F8000434A121F1160704710B50022026847F6DD
:101F9000F0739A430C6A8B6823430C6923434C69A2
:101FA00023438C692343CC6923434C6A23438C6AC3
:101FB00023431A430260CB6843600B6883604B681D
:101FC000C36010BD0021016041608160C16001619A
:101FD00041618161C161016241628162704721B1E9
:101FE000026842F00102026004E002684FF6FE73EC
:101FF0001A40026070471AB103680B43036002E0A5
:1020000003688B430360704741607047014648682E
:1020100080B2704701460020002211F0805F03D09B
:102020001B4B083B1A6802E0184B083B1A680A422F
:1020300001D0012000E00020704710F0805F03D045
:102040001349091F086002E01049083948607047C9
:1020500001460020002211F0805F03D00C4B083BAA
:102060001A6802E0094B083B1A680A4201D00120B5
:1020700000E00020704710F0805F03D00449091F82
:10208000086002E0014908394860704708000240D2
:102090000804024010B50446CA48844208D1012110
:1020A000042000F025FB0021042000F021FB46E085
:1020B000C548844208D10121082000F019FB002105
:1020C000082000F015FB3AE0C048844208D1012105
:1020D000102000F00DFB0021102000F009FB2EE085
:1020E000BB48844208D10121202000F001FB0021DF
:1020F000202000F0FDFA22E0B648844208D10121F8
:10210000402000F0F5FA0021402000F0F1FA16E03E
:10211000B148844208D10121802000F0E9FA002171
:10212000802000F0E5FA0AE0AC48844207D10121A2
:10213000801500F0DDFA0021A01500F0D9FA10BDDD
:1021400010B50121084600F0D3FA0021012000F06B
:10215000CFFA10BD2DE9F0410246002500260020EF
:1021600000230024002791F803C00CF00F0591F81C
:1021700003C01CF0100F03D091F802C04CEA050513
:10218000B1F800C01CF0FF0F31D0146800202BE024
:102190004FF0010C0CFA00F3B1F800C00CEA030692
:1021A0009E4220D183004FF00F0C0CFA03F7BC4382
:1021B00005FA03FC4CEA040491F803C0BCF1280FB3
:1021C00006D14FF0010C0CFA00FCC2F814C00AE072
:1021D00091F803C0BCF1480F05D14FF0010C0CFA87
:1021E00000FCC2F810C0401C0828D1D31460B1F81C
:1021F00000C0BCF1FF0F34DD546800202EE000F178
:10220000080C4FF0010808FA0CF3B1F800C00CEA12
:1022100003069E4221D183004FF00F0C0CFA03F706
:10222000BC4305FA03FC4CEA040491F803C0BCF17A
:10223000280F05D100F1080C08FA0CF8C2F8148038
:1022400091F803C0BCF1480F07D100F1080C4FF022
:10225000010808FA0CF8C2F81080401C0828CED3F8
:102260005460BDE8F0814FF6FF710180022181705A
:102270000421C17070470246002093680B4201D0D0
:10228000012000E0002070470146886880B2704756
:1022900002460020D3680B4201D0012000E000205C
:1022A00070470146C86880B270470161704741615C
:1022B00070470AB1016100E041617047C160704739
:1022C0004FF480320A43826181618261826982694E
:1022D000704702460020424B18684FF68073184042
:1022E00040EA021008433E4B186070473D49C86100
:1022F0007047F0B50A46002300240021002500F0B5
:102300000046B6F1004F02D1354EF16901E0344E7E
:102310007168C0F3034583B200F44016B6F5401F60
:1023200008D121F070612E4E766826F070662C4F31
:102330007E6012E000F48016B6F5801F06D10326F9
:1023400006FA05F4A14341F0706106E0460D36013E
:1023500003FA06F6B14341F0706122B1460D360131
:1023600003FA06F6314300F00046B6F1004F02D101
:102370001B4EF16101E01A4E7160F0BD30B50022D4
:102380008B071C0F0F2303FA04F2154B08338C1034
:1023900053F824309343124C08348D1044F8253000
:1023A00023468C1053F824308C07240F00FA04F4D1
:1023B00023430B4C08348D1044F8253030BD0A49B6
:1023C0000860704700080140000C01400010014007
:1023D0000014014000180140001C01400020014091
:1023E0000000014000002042DC002042DC48006880
:1023F00040F00100DA49086008464068D9490840C1
:10240000D749486008460068D7490840D449086061
:102410000846006820F4802008600846406820F4E0
:10242000FE0048604FF41F0088607047CC4909687F
:1024300021F48031CA4A11601146096821F48021D3
:102440001160B0F5803F03D0B0F5802F0ED106E0CB
:10245000C349096841F48031C14A116007E0C049AD
:10246000096841F4A021BE4A116000E000BF00BF2E
:10247000704710B501460022002300204A11012AAE
:1024800002D1B74C236806E0022A02D1B44C236A79
:1024900001E0B34C636A01F01F02012494401C4226
:1024A00001D0012000E0002010BD70B500240025FF
:1024B000002600BF3120FFF7DCFF0646641CB4F5A0
:1024C000006F01D0002EF5D03120FFF7D2FF08B108
:1024D000012500E00025284670BD01460020A04AE5
:1024E000106820F0F80040EAC100106070479F4972
:1024F0000860704702460020994B586820F47C1011
:1025000042EA01031843964B5860704797490866A2
:10251000704701460020924A506820F003000843AB
:10252000506070478E48406800F00C0070470146CC
:1025300000208B4A506820F0F0000843506070473C
:1025400001460020864A506820F4E060084350604D
:10255000704701460020824A506820F4605040EAEB
:10256000C1005060704729B17D4A527A02437C4BCA
:102570005A7206E07A4A527AC343DBB21A40784B69
:102580005A7270477A490860704701460020744AC1
:10259000506820F440400843506070470021754A5D
:1025A00011706F4A82F82010012802D0042808D147
:1025B00003E001216F4A117004E005216D4A11709A
:1025C00000E000BF00BF70476B4908607047644976
:1025D000096A0143624A11627047674944390860D9
:1025E000704730B500210022002400235C4D6D6847
:1025F00005F00C0121B1042905D0082923D105E0FB
:102600005E4D056022E05D4D05601FE0544D6D6834
:1026100005F47012524D6D6805F48034022505EB07
:1026200092421CB9564D554305600BE04C4D6D6808
:1026300015F4003F03D0524D5543056002E04F4D65
:102640005543056002E04D4D056000BF00BF444D9D
:102650006D6805F0F00109094A4D6B5C0568DD40C5
:1026600045603F4D6D6805F4E061090A454D6B5CBE
:102670004568DD4085603A4D6D6805F46051C90AD2
:10268000404D6B5C4568DD40C560354D6D6805F4B7
:102690004041890B3C4D6B5CC568B5FBF3F50561AA
:1026A00030BD29B12E4A526902432D4B5A6104E0D4
:1026B0002B4A526982432A4B5A61704729B1284AF2
:1026C00092690243264B9A6104E0254A926982434B
:1026D000234B9A61704729B1214AD2690243204BAA
:1026E000DA6104E01E4AD26982431D4BDA61704709
:1026F00029B11B4AD2680243194BDA6004E0184A38
:10270000D2688243164BDA60704729B1144A1269C5
:102710000243134B1A6104E0114A12698243104BC1
:102720001A61704714494039086070470F49C864FE
:1027300070470B49C87170470948406A40F0807083
:1027400007494862704701460020054A92680A42DC
:1027500001D0012000E000207047014988727047D5
:10276000001002400000FFF8FFFFF6FE00004242AA
:10277000D8004242201002408004424200127A00F7
:1027800000093D00680000207800002010B50446D4
:10279000FE48844208D10121C014FFF7A9FF00219F
:1027A000E014FFF7A5FFC4E0B4F1804F08D1012188
:1027B0000846FFF7AAFF00210120FFF7A6FFB8E0B7
:1027C000F348844208D101210220FFF79EFF002137
:1027D0000220FFF79AFFACE0EE48844208D10121C5
:1027E0000420FFF792FF00210420FFF78EFFA0E0F6
:1027F000E948844208D101210820FFF786FF002123
:102800000820FFF782FF94E0E448844208D10121C8
:102810001020FFF77AFF00211020FFF776FF88E0F5
:10282000DF48844208D101212020FFF76EFF0021FC
:102830002020FFF76AFF7CE0DA48844208D10121BA
:102840004014FFF755FF00216014FFF751FF70E0BF
:10285000D548844209D10121C804FFF749FF00216E
:102860004FF40020FFF744FF63E0D048844209D1D1
:1028700001210805FFF73CFF00214FF48010FFF70E
:1028800037FF56E0CA48844209D101214805FFF7C5
:102890002FFF00214FF40010FFF72AFF49E0C54841
:1028A000844208D101214020FFF72FFF0021402062
:1028B000FFF72BFF3DE0C048844208D10121802072
:1028C000FFF723FF00218020FFF71FFF31E0BB4807
:1028D000844208D101218015FFF717FF0021A015C0
:1028E000FFF713FF25E0B648844209D1012108040F
:1028F000FFF7FEFE00214FF48030FFF7F9FE18E0ED
:10290000B048844209D101214804FFF7F1FE0021BB
:102910004FF40030FFF7ECFE0BE0AB48844208D1E7
:1029200001218804FFF7E4FE00214FF48020FFF727
:10293000DFFE10BD00220288944B98420ED0994BC6
:1029400098420BD0B0F1804F08D0914B984205D0FF
:10295000904B984202D0904B984204D14FF68F731F
:102960001A404B881A438D4B984207D08C4B9842A3
:1029700004D04FF6FF431A40CB881A4302808B885D
:1029800083850B880385814B98420BD0854B9842F9
:1029900008D08B4B984205D08A4B984202D08A4B84
:1029A000984201D10B7A038601238382704770B568
:1029B000002400220023058C4FF6FE763540058466
:1029C000028C8388048B4FF68F752C40B51E2C40EB
:1029D0000D882C43751E2A400D892A434D882A43B1
:1029E0006A4DA8420BD06F4DA84208D0744DA84242
:1029F00005D0744DA84202D0734DA84213D14FF6B2
:102A0000F7752A404D892A434FF6FB752A408D8879
:102A10002A434FF6FF652B404FF6FF552B408D891B
:102A20002B43CD892B4383800483CD888586028404
:102A300070BD70B5002400220023058C4FF6EF76A0
:102A400035400584028C8388048B48F6FF752C4042
:102A50004FF6FF452C400D882D0644EA15444FF6ED
:102A6000DF752A400D892D0542EA15424D882D0556
:102A700042EA1542454DA84202D04A4DA8421BD118
:102A80004FF67F752A404D892D0542EA15424FF6D3
:102A9000BF752A408D882D0542EA15424FF6FF3555
:102AA0002B404FF2FF752B408D89AD0443EA15434F
:102AB000CD89AD0443EA154383800483CD8805871F
:102AC000028470BD70B5002400220023058C4FF6EF
:102AD000FF6635400584028C8388848B4FF68F75A2
:102AE0002C404FF6FC752C400D882C434FF6FF55BB
:102AF0002A400D892D0642EA15424D882D0642EAEC
:102B00001542224DA84202D0264DA8421BD14FF2B9
:102B1000FF752A404D892D0642EA15424FF6FF35D2
:102B20002A408D882D0642EA15424EF6FF752B404D
:102B30004DF6FF752B408D892D0543EA1543CD8950
:102B40002D0543EA154383808483CD8885870284DD
:102B500070BD70B5002200230024058C4EF6FF7670
:102B600035400584038C8488828B48F6FF752A40A3
:102B70004FF6FF452A400D882D0642EA15424DF6D4
:102B8000FF752B400D892D0720E00000002C01402F
:102B90000004004000080040000C0040001000400D
:102BA0000014004000340140004C0140005001403E
:102BB0000054014000180040001C0040002000406C
:102BC00000400140004401400048014043EA1543F1
:102BD0004D882D0743EA1543F84DA84202D0F84D21
:102BE000A84206D14BF6FF752C408D89AD0544EA0D
:102BF000154484808283CD88A0F84050038470BD42
:102C0000828B4FF2FF331A408283828B0B0642EA9B
:102C1000134282837047F0B50C461546002200210E
:102C20000026078C4EF6FF7C07EA0C070784828B90
:102C3000018C27073E0C40F6FF473A402F0642EA38
:102C400017421F0742EA1742DC4FB8420ED0DC4F52
:102C5000B8420BD0B0F1804F08D0DA4FB84205D05F
:102C6000D94FB84202D0D94FB84206D14DF6FF77BE
:102C7000394046F48057394305E047F6FF5739405D
:102C800044F48057394382830184F0BD828B4FF630
:102C9000F3731A408283828B0A4382837047F0B5B4
:102CA0000C461546002200210026078C4FF6FF6CCB
:102CB00007EA0C070784828B018C27063E0C4FF62F
:102CC0000C773A401F0545EA17473A43BB4FB842D5
:102CD0000ED0BB4FB8420BD0B0F1804F08D0B94FE7
:102CE000B84205D0B84FB84202D0B84FB84206D16A
:102CF0004FF6FF57394046F48077394305E04FF2ED
:102D0000FF57394044F48077394382830184F0BD12
:102D1000028B4FF2FF331A400283028B0B0642EA0A
:102D2000134202837047F0B50C461546002200217D
:102D30000026078C4FF6EF7C07EA0C070784028B0E
:102D4000018C27053E0C40F6FF473A401F0742EA38
:102D500017422F0642EA1742984FB8420ED0984FBA
:102D6000B8420BD0B0F1804F08D0964FB84205D092
:102D7000954FB84202D0954FB84206D14FF6DF7753
:102D8000394046F01007394305E04FF65F77394088
:102D900044F01007394302830184F0BD028B4FF6E3
:102DA000F3731A400283028B0A4302837047F0B523
:102DB0000C46154600220021068C4FF6FE773E4059
:102DC0000684028B018C4FF60C7632401E0545EAD4
:102DD00016463243794EB0420ED0794EB0420BD0F7
:102DE000B0F1804F08D0774EB04205D0764EB04259
:102DF00002D0764EB04206D14FF6FD76314044F017
:102E00000106314305E04FF6F576314044F0010606
:102E1000314302830184F0BD70B505460C46674816
:102E200085420ED0664885420BD0B5F1804F08D060
:102E30006448854205D06448854202D06348854293
:102E400000D100E000BF208850B92389A2886188A2
:102E50002846FFF7ACFFE1882846FFF79FFF25E0F3
:102E6000208804280AD12389A28861882846FFF790
:102E70005AFFE1882846FFF74BFF17E02088082813
:102E80000AD12389A28861882846FFF708FFE188D4
:102E90002846FFF7FBFE09E02389A28861882846BF
:102EA000FFF7B9FEE1882846FFF7AAFE70BD2DE9BD
:102EB000F04105460C4600260127608808B9022625
:102EC00000E00026A088012801D1022700E00127A8
:102ED0002088A0B92389A28861882846FFF767FF68
:102EE000E1882846FFF75AFF23893A4631462846AB
:102EF000FFF719FFE1882846FFF70AFF13E023894F
:102F0000A28861882846FFF70EFFE1882846FFF770
:102F1000FFFE23893A4631462846FFF748FFE188FD
:102F20002846FFF73BFFBDE8F0810A884B881A432B
:102F30008B881A43CB881A430B891A434B891A434F
:102F40008B891A43A0F8442070474FF6FF718180A7
:102F500000210180C1804180017270470021018001
:102F600041808180C180018141818181C18170471F
:102F7000002101804180012181800021C1800181E7
:102F800070470021018041808180C18001814181A1
:102F90008181704721B1028842F00102028004E081
:102FA00002884FF6FE731A400280704781B1B0F874
:102FB000442042F40042A0F844200FE0002C0140DD
:102FC000003401400004004000080040000C0040B4
:102FD000B0F84420C2F30E02A0F84420704710B5A8
:102FE0001AB183890B43838104E08389CC43A4B263
:102FF0002340838110BD8182704741EA0203A0F81B
:103000004830704710B51AB183890B43838104E0BF
:103010008389CC43A4B22340838110BD01894FF63C
:10302000F8721140018170470A46002101894FF66C
:103030008F73194011430181704730B504460D4626
:1030400029462046FFF7F0FF208940F00700208145
:1030500030BD2DE9F04104460D4616461F46602D51
:1030600006D13B46012231462046FFF75CFE05E0D3
:103070003B46012231462046FFF799FE294620466D
:10308000FFF7D2FF208940F007002081BDE8F081E2
:1030900030B50C4600210189C9B21D0642EA15452A
:1030A00025432943018130BD2DE9F04105460E46F7
:1030B00017469846002443463A4631462846FFF7CD
:1030C000E7FF2C894FF6F870044044F007044FF6F0
:1030D0008F70044044F070042C81BDE8F081F0B59D
:1030E00004460D4616461F463B46324629462046B4
:1030F000FFF7CEFF208940F480402081F0BD01859C
:10310000828270470A46002101884FF68F7319406A
:10311000114301807047F0B50C4615461E4600214C
:10312000002200230189028B038C4FF6F877394087
:1031300021434FF6FC473A4040F201173A434FF61D
:10314000DD773B40370545EA17473B430181028362
:103150000384F0BD0A460021018B4FF68F7319409E
:103160001143018370470A460021018B48F6FF7323
:103170001940130641EA1341018370470A460021B2
:10318000818B4FF68F7319401143818370470A4634
:103190000021818B48F6FF731940130641EA134161
:1031A0008183704721B1028842F08002028004E0EE
:1031B00002884FF67F731A400280704721B18288DF
:1031C00042F00402828004E082884FF6FB731A40CA
:1031D0008280704721B1828842F00802828004E038
:1031E00082884FF6F7731A408280704721B1828837
:1031F00042F00102828004E082884FF6FE731A409A
:10320000828070470A460021018B4FF6F773194000
:103210001143018370470A460021018B4FF2FF736F
:103220001940130641EA1341018370470A46002101
:10323000818B4FF6F77319401143818370470A461B
:103240000021818B4FF2FF731940130641EA1341AD
:10325000818370470A460021018B4FF6FB731940AA
:103260001143018370470A460021018B4FF6FF335B
:103270001940130641EA1341018370470A460021B1
:10328000818B4FF6FB7319401143818370470A46C7
:103290000021818B4FF6FF331940130641EA134199
:1032A000818370470A460021018B4FF67F731940D6
:1032B0001143018370470A460021018BC1F30E01BF
:1032C000130641EA1341018370470A460021818BAE
:1032D0004FF67F7319401143818370470A460021DE
:1032E000818BC1F30E01130641EA134181837047BC
:1032F0000A460021018C4FF6FD73194011430184E9
:1033000070470A460021018C4FF6F77319401143AC
:10331000018470470A460021018C4FF6DF73194083
:10332000130541EA1341018470470A460021018CCC
:103330004FF67F731940130541EA1341018470472A
:103340000A460021018C4FF6FF531940130641EA4B
:103350001341018470470A460021018C4FF2FF732C
:103360001940130641EA1341018470470A460021BF
:10337000018C4DF6FF731940130741EA1341018494
:10338000704730B5002301248C40A3B2048CDD4388
:10339000ADB22C400484048C02FA01F5ADB22C438A
:1033A000048430BD30B5002304248C40A3B2048CC7
:1033B000DD43ADB22C400484048C02FA01F5ADB2B9
:1033C0002C43048430BD70B5034600200024184609
:1033D000183001258D40ACB21D8CE643B6B23540A5
:1033E0001D8409B1082909D100EB6100056825F0A9
:1033F000700505600568154305600CE00D1FADB252
:1034000000EB6500056825F4E045056005681606D3
:1034100045EA1645056070BD21B1028842F00202FE
:10342000028004E002884FF6FD731A400280704764
:1034300021B1028842F00402028004E002884FF6C3
:10344000FB731A400280704721B1828842F08002EB
:10345000828004E082884FF67F731A408280704732
:1034600002884FF6F7731A40028002880A430280EE
:10347000704782884FF68F731A40828082880A4391
:103480008280704702894FF6F8731A4002810289E0
:103490000A430281704702894FF67F731A40028106
:1034A00002890A4302817047818470478185704791
:1034B000818670470187704781877047A0F8401068
:1034C000704702884FF6FF431A40028002880A4381
:1034D000028070470146888E70470146088F70470A
:1034E0000146888F70470146B1F840007047014699
:1034F000888C70470146088D704702460020138A69
:103500000B4201D0012000E000207047CA43028234
:10351000704730B50246002000230024158A05EAD2
:103520000103958905EA010413B10CB1012000E003
:10353000002030BDCA4302827047000010B5044627
:10354000FC48844209D101218803FFF7D1F800210A
:103550004FF48040FFF7CCF832E0F748844209D1BD
:1035600001214804FFF7D1F800214FF40030FFF7A4
:10357000CCF825E0F148844209D101218804FFF705
:10358000C4F800214FF48020FFF7BFF818E0EC48A2
:10359000844209D10121C804FFF7B7F800214FF494
:1035A0000020FFF7B2F80BE0E648844208D1012181
:1035B0000805FFF7AAF800214FF48010FFF7A5F8DF
:1035C00010BD2DE9F04786B005460E460024A24600
:1035D00000BFA1460027B08900B100BF2F462C8A4A
:1035E0004CF6FF700440F08804432C82AC894EF600
:1035F000F3100440B08831890843718908430443BB
:10360000AC81AC8A4FF6FF400440B0890443AC82E1
:1036100001A8FEF7E6FFC748874202D1DDF810A0F7
:1036200001E0DDF80CA0A88910F4004F08D00AEBE7
:10363000CA0000EB0A1031684900B0FBF1F807E05E
:103640000AEBCA0000EB0A1031688900B0FBF1F800
:103650006420B8FBF0F004012009642101FB10890B
:10366000A88910F4004F08D0322000EBC900B0FB4D
:10367000F1F000F00700044308E0322000EB0910ED
:103680006421B0FBF1F000F00F0004432C8106B080
:10369000BDE8F0874FF41651016000218180C180A0
:1036A00001810C21418100218181704710B50246C2
:1036B0000020108A4FF2FF0318400B884C882343E8
:1036C0008C882343CC8823431843108210BD0021EB
:1036D000018041808180C180704721B1828942F49C
:1036E0000052828104E082894DF6FF731A40828184
:1036F0007047F0B503460024002600250020A1F500
:1037000010676A3F00D100BF1846C1F3421401F0B0
:103710001F06012707FA06F5012C01D10C3004E041
:10372000022C01D1103000E014301AB107682F4389
:10373000076002E00768AF430760F0BD10B51AB13B
:10374000838A0B43838204E0838ACC43A4B2234060
:10375000838210BD028A4FF6F0731A400282028AF9
:103760000A430282704782894FF2FF731A408281B6
:1037700082890A438281704721B1828942F0020224
:10378000828104E082894FF6FD731A40828170477E
:10379000028A4FF6DF731A400282028A0A430282CB
:1037A000704721B1028A42F48042028204E0028A18
:1037B0004BF6FF731A4002827047C1F30802828001
:1037C000704701468888C0F308007047818941F03E
:1037D000010181817047028BD2B20283028B42EADF
:1037E000012202837047028B02F47F420283028B24
:1037F0000A430283704721B1828A42F0200282820A
:1038000004E0828A4FF6DF731A408282704721B14A
:10381000828A42F01002828204E0828A4FF6EF73BD
:103820001A408282704721B1828A42F00802828265
:1038300004E0828A4FF6F7731A408282704721B102
:10384000828942F40042828103E08289C2F30E023F
:103850008281704721B1828A42F40062828204E050
:10386000828A4FF2FF731A4082827047828A4FF633
:10387000FB731A408282828A0A438282704721B196
:10388000828A42F00202828204E0828A4FF6FD734D
:103890001A408282704702460020B1F5007F00D1B5
:1038A00000BF13880B4201D0012000E000207047C8
:1038B00001F40072B2F5007F00D100BFCA4302805C
:1038C000704770B502460024002300250020A1F5B2
:1038D00010666A3E00D100BFC1F3421501F01F031C
:1038E000012606FA03F3012D02D19689334006E042
:1038F000022D02D1168A334001E0968A33400C1221
:10390000012606FA04F41688344013B10CB10120E4
:1039100000E0002070BD10B500220023A1F5106466
:103920006A3C00D100BF0A1201249440A3B2DC43D8
:10393000048010BD003801400044004000480040B1
:10394000004C0040005000400648804706480047B1
:10395000FEE7FEE7FEE7FEE7FEE7FEE7FEE7FEE73F
:10396000FEE7FEE7C51600083101000808B5012191
:103970004820FEF7A3FE2020ADF8000010208DF8AF
:10398000030003208DF8020069468F48FEF7E2FB32
:1039900020218D48FEF789FC2020ADF80000694603
:1039A0008A48FEF7D7FB20218848FEF77EFC08BD39
:1039B0004FF4006105E000BF0A00A1F1010399B2D4
:1039C000FAD10200A0F1010398B2F4D1704700BF10
:1039D00000230A2219467E480068FCF719FE0128D8
:1039E00015D120217848FEF762FC20217748FEF7A8
:1039F0005CFC78A000F027FA4FF4FA70FDF784F928
:103A000000231A46194672480068FCF718FD642026
:103A1000FDF77AF9DCE700BF00230A2219466C485B
:103A20000068FCF7F5FD012815D120216648FEF756
:103A30003CFC20216548FEF73AFC6CA000F003FA3C
:103A40004FF4FA70FDF760F900231A4619466048F2
:103A50000068FCF7F4FC6420FDF756F9DCE700BFD2
:103A60004FF6FF716748FEF720FC4FF6FF7166487E
:103A7000FEF71DFC4FF4FA70FDF746F94FF6FF71A3
:103A80006048FEF714FC4FF6FF715F48FEF70DFC2F
:103A90004FF4FA70FDF738F94C48FEF7F5FB5B4838
:103AA000FEF7F2FB4FF4FA7000F0F7FB00235A1E0A
:103AB000194657480068FCF7ABFD56A000F097FC8C
:103AC00056A000F094FC4FF4967256A156A000F058
:103AD00025FE48B955A001F0B3FA00F05EFE054698
:103AE000294655A001F0ACFA594802885948018886
:103AF00059A001F0A5FA002408E05F4830F814202E
:103B000021465EA001F09CFA601C84B20A2CF4DB12
:103B10005E48002000BF00231A4619463C48006852
:103B2000FCF78DFC9CE71FB500F0ACF900F07CFDC4
:103B30004FF4165000F0ECF84FF4165000F020FC53
:103B40004FF4E13000F0DBFC00F07CFB00F0A4FA65
:103B5000032200210120FCF7C5FB1D49086008462F
:103B6000006830B100231A46194619480068FCF76E
:103B700066FC00F061F900200123CDE900300290DD
:103B80000346C82242A10390AFF22D10FCF7AFFE0E
:103B900000200223CDE900300290034632223EA1EC
:103BA00003904048FCF7A3FE00200223CDE900303B
:103BB0000290034632223CA103903F48FCF797FE57
:103BC000FDF777FA00BFFEE7000C01400018014046
:103BD0007C000020765265645F6C65645F6F6E20C8
:103BE0007461736B202E200D0A0000007647726509
:103BF000656E5F6C65645F6F6E207461736B202E01
:103C0000200D0A0000140140001C0140002001406A
:103C10008400002041542B48480D0A0042542B0DCB
:103C20000A0000004F4B00004154000053756363CD
:103C3000657373200D0A00006772707273207265DD
:103C400073756C742069732025640D0A00000000F0
:103C50008E0000208C0000204750494F45204953DA
:103C60002025782C204750494F472049532025785C
:103C7000202E0D0A000000004046002061646325EC
:103C8000642069732025642E0D0A0000AC0000201A
:103C9000765461736B31000076494F5F52656672EE
:103CA00065736800D53E00087650574D5F526566D3
:103CB000726573680000000033400008704700BF61
:103CC000FEE700BFFEE700BFFEE700BFFEE770476C
:103CD000704770477047000070B504460D46E1B26A
:103CE0005148FFF76AFD00BF40214F48FFF7D3FD61
:103CF0000028F9D0204670BD00BF4B48008810F066
:103D0000200FFAD04848001D0088C0F30800704713
:103D100010B586B00446012144F20400FEF7CEFC43
:103D20004148FFF70BFC4FF40070ADF8140003207E
:103D30008DF8160018208DF8170005A93B48FEF7EE
:103D400009FA4FF48060ADF8140004208DF81700D4
:103D500005A93648FEF7FEF901940020ADF80800E9
:103D6000ADF80A00ADF80C00ADF810000C20ADF86D
:103D70000E0001A92C48FFF724FC25208DF8000037
:103D800003208DF801008DF8020001208DF803005A
:103D90006846FDF71CFD012240F225512248FFF73D
:103DA000A8FC01212048FFF798FC06B010BD10B513
:103DB00040F225511C48FFF784FD10B31A48FFF765
:103DC00000FDC4B21A48008810F4004F2BD11848E7
:103DD000008810F4804F0CD00A2C03D00020144926
:103DE000088020E01248008840F400401049088014
:103DF00019E00D2C06D10E48008840F480400C4993
:103E0000088010E00A480088C0F30D0009490C54EE
:103E100007480088401C0649088008460088C728D3
:103E200001DD0020088010BD00380140000801407D
:103E3000800000207845002010B50120FCF76DFBC4
:103E40000D49086010BD10B5044600235A1E1946DE
:103E500009480068FCF7DCFB214608A001F0F0F8F7
:103E60000748002000BF00231A4619460248006890
:103E7000FCF7E5FA10BD0000840000202573000067
:103E8000AC00002008B501214FF4F070FEF716FCDD
:103E90004FF6FF70ADF8000003208DF802001020EF
:103EA0008DF8030069461A48FEF754F96946194827
:103EB000FEF750F94FF6FF70ADF8000048208DF87E
:103EC000030069461448FEF745F969461348FEF7B2
:103ED00041F908BD00BFFDF7CDFA114801880C4833
:103EE000FEF7ECF90F4801880948FEF7E7F90A48A0
:103EF000FEF7CAF90C4908800848FEF7C5F90B49D6
:103F00000880FDF7C4FA0A20FCF7FEFEE3E7000094
:103F100000140140001C0140001801400020014035
:103F2000880000208A0000208C0000208E000020E5
:103F300000B589B001210920FEF7C0FB01214C48E2
:103F4000FEF7D7F94FF47070ADF8200018208DF807
:103F5000230003208DF8220008A94648FEF7FAF84E
:103F600001210420FEF7B7FB434800684349B0FB3A
:103F7000F1F0401E4249088040F29920ADF8180047
:103F800008460088ADF814000020ADF81A00ADF81E
:103F9000160005A93B48FEF7CDFC6020ADF80400F3
:103FA0000120ADF8060038480088ADF80A0000206E
:103FB000ADF80C0001A93348FEF7F9FC082131489F
:103FC000FFF720F90120ADF8060030480088ADF871
:103FD0000A0001A92B48FEF72CFD08212948FFF70C
:103FE0001AF90120ADF8060029480088ADF80A004A
:103FF00001A92448FEF766FD08212248FFF716F9BB
:104000000120ADF8060023480088ADF80A0001A998
:104010001C48FEF79EFD08211A48FFF710F9012100
:104020001848FFF7BFF801211648FEF7B3FF09B0A3
:1040300000BD00BFFDF71EFA134801881148FFF7C5
:1040400037FA124801880F48FFF734FA1048018800
:104050000C48FFF731FA0F4801880A48FFF72EFA9B
:10406000FDF715FA4FF4FA70FCF74EFEE2E7000098
:1040700000013000000C01405400002000366E01A9
:1040800098000020000800409000002092000020CE
:10409000940000209600002000B591B04FF48040BD
:1040A000FEF773FA01210320FEF7FBFA01214FF41A
:1040B0000770FEF703FB0320ADF8400000208DF8E9
:1040C000430010A95948FEF745F80320ADF8400019
:1040D00010A95748FEF73EF83F20ADF8400010A960
:1040E0005448FEF737F85448FDF7ACFE53480090AB
:1040F00053480190002002900A2003900020049071
:1041000080200590400006908000079020200890B5
:104110000002099000200A9069464748FDF734FFE5
:1041200001214548FDF75BFF00200B9001208DF831
:1041300030008DF831004FF460200D9000200E907B
:104140000A208DF83C000BA93C484C38FDF7CFFB0A
:1041500005230122002139484C38FDF760FC052376
:104160000222012135484C38FDF759FC0523032272
:10417000082132484C38FDF752FC0523042209215E
:104180002E484C38FDF74BFC05231A460A212B48D4
:104190004C38FDF744FC052306220B2127484C38F8
:1041A000FDF73DFC052307220C2124484C38FDF780
:1041B00036FC052308220D2120484C38FDF72FFC42
:1041C000052309220E211D484C38FDF728FC052344
:1041D0000A220F2119484C38FDF721FC012117480C
:1041E0004C38FDF7BBFB012114484C38FDF7ABFB05
:1041F00012484C38FDF7C9FB00BF10484C38FDF79A
:10420000C9FB0028F9D10D484C38FDF7CDFB00BFA4
:104210000A484C38FDF7CDFB0028F9D101210748A9
:104220004C38FDF7D0FB11B000BD00000008014084
:10423000000C014000100140080002404C240140E5
:104240004046002000B585B001210420FEF736FA73
:1042500001214807FEF73FFA1020ADF810000020BA
:104260008DF8130003208DF8120004A91F48FDF7F4
:1042700071FF002000900190029002200390694697
:104280000020FDF736FD01210020FDF74FFD002144
:104290000846FDF7ACFD05B000BD2DE9F0478046AE
:1042A000404600F020FC81461149484600F06CFB76
:1042B00081464FF08B41484600F030FB824600F0CB
:1042C0002BFC06464FF066320A4B00F09DFB04467D
:1042D00000F038FC8146484600F00AFC84B22146D2
:1042E0000020FDF784FDBDE8F087000000080140D4
:1042F00000007A4466660A4010B501210846FEF7C0
:10430000D0F901210520FEF7D9F901214804FEF773
:10431000E2F910BD08B50820ADF8000004208DF8C2
:10432000030069464348FDF715FF0420ADF800007F
:1043300003208DF8020018208DF8030069463D48DF
:10434000FDF708FF08BD10B53B48FDF77BFD3B4876
:104350003B4908603B484860102088600020C860E6
:1043600008618020486100208861C86108624FF4BC
:1043700040504862002088622F48FDF705FE10BDBE
:104380001FB50446FFF7B8FFFFF7C4FFFFF7DBFFD9
:1043900000940020ADF80400ADF80600ADF8080068
:1043A000ADF80C000C20ADF80A0069462348001F48
:1043B000FFF707F901212148001FFFF78EF90122BD
:1043C00080211E48001FFFF7B9F91FBD10B5044634
:1043D00000211948FDF703FE1948C460014616483C
:1043E000FDF7D2FD01211448FDF7F9FD10BD0FB412
:1043F00038B505A800901348009A049900F030FEE3
:10440000002000900F4800F081FA84B22046FFF7A8
:10441000DDFF02E00120FCF777FC4FF00070FDF7B4
:10442000F9FD0028F6D04FF00070FDF706FE38BC0D
:104430005DF814FB00080140800002400444004085
:10444000584E00205846002010B501210220FEF7EA
:1044500028F901211120FEF731F90121C804FEF7E6
:104460003AF910BD08B54FF40060ADF80000042023
:104470008DF8030069466348FDF76CFE4FF48060D9
:10448000ADF8000003208DF8020018208DF803001D
:1044900069465C48FDF75EFE08BD10B55A48FDF759
:1044A000D1FC5A485A4908605A4848601020886030
:1044B0000020C86008618020486100208861C861D0
:1044C00008624FF440504862002088624E48FDF771
:1044D0005BFD10BD08B54FF4A060FDF773F9342003
:1044E0008DF8000002208DF8010003208DF80200F5
:1044F00001208DF803006846FDF769F908BD1FB576
:104500000446FFF7A1FFFFF7E5FFFFF7ABFFFFF75B
:10451000C4FF00940020ADF80400ADF80600ADF82B
:104520000800ADF80C000C20ADF80A0069463748C9
:10453000001FFFF746F8012240F225513348001FC3
:10454000FFF7D7F801213148001FFFF7C6F8012215
:1045500080212E48001FFFF7F1F81FBD10B504465B
:1045600000212948FDF73BFD2948C4600146264843
:10457000FDF70AFD01212448FDF731FD10BD0FB400
:1045800038B505A800902348009A049900F068FD0A
:10459000002000901F4800F0B9F984B22046FFF7D0
:1045A000DDFF02E00120FCF7AFFB1B48FDF732FD09
:1045B0000028F7D01848FDF740FD38BC5DF814FB23
:1045C00010B520211148001FFFF765F9C8B10F4849
:1045D000001FFFF7F6F8C4B21048008880280ADAF6
:1045E00000200F4908800D490888411C0B4A1180A2
:1045F0000C490C5405E00948008840F40040074984
:10460000088010BD0010014058040240044C0040D6
:10461000884F0020884E0020000002109C000020DF
:104620009A000020084F00201FB501210420FEF74A
:1046300052F841F61F40ADF804000020ADF8060026
:104640006320ADF808000020ADF80A0001A9244855
:10465000FEF770F9012211462148FEF7C0FC1E202A
:104660008DF8000002208DF8010003208DF8020073
:1046700001208DF803006846FDF7A9F801211848CC
:10468000FEF788FC1FBD10B501211548FEF741FF5C
:1046900020B3144800881E2805DA12480088401C00
:1046A000104908800EE00F4800881E280AD10E48E5
:1046B000008840F400400C4908800A480088401CEB
:1046C000084908800948008820B108480088401E31
:1046D0000649088001210248FEF72CFF10BD0000AA
:1046E000000800409A0000209C000020A00000204C
:1046F00070B5044600254648008810F4004F0BD0E2
:10470000002043490988C1F30E01424A5054214612
:10471000104600F0E5F80546284670BD2DE9F04149
:1047200004460D4616460027002039490880FF2C14
:104730000ED8A1B23848FFF740F802E00120FCF79C
:10474000E3FA80213448FFF7A6F80028F6D003E00A
:10475000214632A0FFF713FFE5B1DEB131480680F4
:104760000FE00520FCF7D0FA2948008810F4004F2C
:1047700007D02846FFF7BCFF00B106E0002024491F
:104780000880284800880028EBD100BF2548008811
:1047900000B901273846BDE8F08110B5642222A196
:1047A00024A0FFF7BBFF642226A128A0FFF7B6FFD5
:1047B0004FF47A7228A129A0FFF7B0FF08B10120B9
:1047C00010BD4FF47A7224A128A0FFF7A7FF08B10B
:1047D0000220F5E74FF4FA721FA12BA0FFF79EFF0E
:1047E00008B10320ECE74FF4FA721BA129A0FFF7F0
:1047F00095FF08B10420E3E74FF4FA7216A12BA04D
:10480000FFF78CFF08B10520DAE70020D8E70000A9
:104810009C000020084F0020004C004025730D0A2A
:1048200000000000A0000020434C4F5345204F4B98
:104830000000000041542B434950434C4F53453D29
:104840003100000053485554204F4B0041542B4336
:1048500049505348555400004F4B000041542B43DE
:1048600047434C4153533D224222000041542B43C5
:104870004744434F4E543D312C224950222C224371
:104880004D4E45542200000041542B43474154549F
:104890003D31000041542B434950435347503D3173
:1048A0002C22434D4E4554220000000041542B431E
:1048B0004950484541443D310000000040EA0103B1
:1048C0009B0703D009E008C9121F08C0042AFAD2C6
:1048D00003E011F8013B00F8013B521EF9D270478A
:1048E00030B50EE003460A4601E05B1C521C1C7802
:1048F0001578AC4201D1002CF7D115F0FF0F04D090
:10490000401C0278002AEDD1002030BD0146002075
:1049100000E0401C0A5C002AFBD1704780EA0102DB
:1049200010B502F00042400026D04B0023D04FEAE1
:10493000106101EB1361C0F35600C3F3560340F45A
:10494000000043F40003A0FB0330A1F17F014FEA14
:1049500000401C0401D000F1010050EA134001D4D2
:104960004000491EC3B20C0604EBD010401C4008A6
:10497000802B02D003E0002010BD20F001000029B0
:1049800000DA0020104310BD80EA010202F000436B
:1049900030B430F0004221F0004015D0A0B1C0F397
:1049A000C755C2F3C754C2F31601C0F31600651B06
:1049B00041F4000140F400007D35814201D36D1CBB
:1049C00000E04900002D02DA30BC002070474FF4AF
:1049D00000020024814201D3091A144352084FEA0D
:1049E0004101F7D151B1814202D14FF0004105E0C0
:1049F00002D24FF0010101E06FF0010104EBC5505C
:104A000030BC184400F001B92DE9F04D81EA0304EF
:104A100004F0004B21F0004714464FF0000A23F049
:104A2000004150EA070220D054EA01021DD0C1F330
:104A30000A550246C1F31300C7F30A56C7F313031E
:104A400040F4801143F48013A6EB0508101BD646F2
:104A500008F2FD3873EB010002D308F1010801E010
:104A600092185B41B8F1000F03DA00200146BDE85F
:104A7000F08D00204FF48015064607460EE0B2EB9D
:104A8000040C73EB010C04D3121B064363EB01030C
:104A90002F436D084FEA300092185B4150EA050C35
:104AA000EDD152EA030012D082EA040083EA010544
:104AB000284303D100224FF0004308E0101B8B4134
:104AC00002D20122002302E06FF0010253101AEB20
:104AD000060047EB085110EB0A0041EB0B01BDE863
:104AE000F04D00F0C8B896230022114600F096B8A9
:104AF00020F00040C10DC0F3160040F400007F29F3
:104B000001DA00207047962903DCC1F19601C84004
:104B1000704796398840704700F0004230F00040FE
:104B20000DD0C10D01F5607142EA01510022C0F3C0
:104B30001600520742EAD002400711437047002096
:104B40000146704701F0004230B421F0004150EAC4
:104B5000010306D00B0DA3F56073C1F31301002B05
:104B600002DC30BC00207047440F44EAC104C1009D
:104B7000A01830BC00EBC35000F047B830B50B466E
:104B8000014600202022012409E021FA02F59D427D
:104B900005D303FA02F5491B04FA02F52844151E51
:104BA000A2F10102F1DC30BD2DE9F05F05460020E5
:104BB00092469B4688460646814640241BE028468E
:104BC00041464746224600F018FA52465B46801A94
:104BD000994110D310461946224600F0FFF92D1ACC
:104BE00067EB01084F4622460120002100F0F6F94C
:104BF00017EB00094E41201EA4F10104DFDC4846FA
:104C000031462A464346BDE8F09F0029A8BF7047B9
:104C1000401C490008BF20F00100704710B4B0FAF2
:104C200080FC00FA0CF050EA010404BF10BC70478D
:104C300049B1CCF1200421FA04F411FA0CF118BFA7
:104C4000012121430843A3EB0C01CB1D0106000AFF
:104C5000002BBEBF002010BC704700EBC3501044B7
:104C60000029A4BF10BC7047401C490008BF20F0B9
:104C7000010010BC704710B5002B08DA401C41F150
:104C8000000192185B411A4301D120F0010010BDD0
:104C90002DE9F04D92469B4611B1B1FA81F202E046
:104CA000B0FA80F22032904600F098F906460F469E
:104CB00040EA0A0041EA0B0152465B46084303D131
:104CC00030463946BDE8F08D194652EA010015D04C
:104CD000C8F14002504600F090F904460D46504697
:104CE0005946424600F07AF9084301D0012000E01D
:104CF0000020044345EAE07526432F430A984FEA13
:104D0000D625A0EB08000A304FEA46534FF00002C8
:104D100045EA47554FEAD72402D500200146D1E79E
:104D2000010550196141DDE9084500196941BDE8F7
:104D3000F04DA0E72DE9FE4F074681EA0300C00FC2
:104D40000E46019021F0004123F00044B81AA14121
:104D500005D23846314617461E460B46024623F01A
:104D60000040104304D13846314603B0BDE8F08F0F
:104D7000350DC5F30A00C3F30A510290401A0090A2
:104D8000402868DAC3F3130040F4801B0198924670
:104D900020B10023D2EB030A63EB0B0B00985946BA
:104DA000C0F14002504600F019F980460C465046CA
:104DB0005946009A00F031F9C0197141EF1785EAA0
:104DC00011533B4340D0019A52B3009A012A11DC9F
:104DD0000022801A4FF0004361EB055103EA0553AE
:104DE0008018CDE9002341F5801142462346FFF7A4
:104DF0004FFFBAE72E050025401B61EB0601401965
:104E000041F58012001852412818A6F5001343EB13
:104E1000020140EAD470294318EB0808644113E00A
:104E200064084FEA38084FF0000244EAC0744FEAC1
:104E30000553801A61EB0301801841F58011490880
:104E40004FEA3000801859414246234603B0BDE87E
:104E5000F04FFFF710BF0198012240000023D0EB74
:104E6000020263EBE07301984FEAE074381A66EBD4
:104E70000401EBE783F000435CE781F0004159E770
:104E80002DE9FE4F81EA030421F0004504F00044BF
:104E900023F000414FF0000A009450EA050302D0CD
:104EA00052EA010304D10020014603B0BDE8F08FAF
:104EB000C1F30A53C5F30A541C44A0FB02B3C5F363
:104EC000130545F4801CC1F3130141F480180CFB59
:104ED000023300FB083EA4F2F334810A930A41EA4C
:104EE0008C5143EA88530194A1FB03474FEA9C2568
:104EF00005FB03734FEA982601FB06373D0526059F
:104F000045EA1435BBEB06016EEB0503850E920EE8
:104F100045EA8C1542EA8812A5FB0206261E67EBBD
:104F200000070C0D44EA0334A41947EB1350C1F3F6
:104F300013064FF0000319464FEA033343EA1653B2
:104F400043EA0403019CE5FB0201A4F10C04029472
:104F5000009C4FEA0632CDE900A4FFF799FEA4E7D2
:104F6000C1F30A52C1F3130140F2FF3341F480113F
:104F70009A4202DA00200146704740F233439A42D7
:104F8000A2F2334202DC524200F037B800F026B8F9
:104F900030B5002904DB4FF00044404264EB0101CE
:104FA000002B04DB4FF00044524264EB03039942B0
:104FB00008BF904230BD0000064C074D06E0E06897
:104FC00040F0010394E8070098471034AC42F6D350
:104FD000FBF7B2F8345C0008545C0008202A04DBBC
:104FE000203A00FA02F1002070479140C2F12003FC
:104FF00020FA03F3194390407047202A04DB203A3B
:1050000021FA02F00021704721FA02F3D040C2F1E8
:1050100020029140084319467047202A06DBCB172F
:10502000203A41FA02F043EAE071704741FA02F394
:10503000D040C2F120029140084319467047000059
:105040000FB4054B10B503A9044A029800F0D4F838
:1050500010BC5DF814FB0000D93C0008AC00002037
:1050600037B508461146054B6A4600F02DFA04464E
:105070006946002000F0D5FD20463EBD235C0008B7
:1050800002E008C8121F08C1002AFAD17047704711
:10509000002001E001C1121F002AFBD1704700006F
:1050A0002DE9FF5FDDE90210020DDDF838B00143A4
:1050B0000FD10F9801244BA3012807D000980F9A15
:1050C000C0E90031C0E90242BDE8FF9F6FEA0B0171
:1050D000F4E7A2F2FF3244F61050424315140F9841
:1050E00001280ED0A5EB0B00401C4FF000043E4EF3
:1050F000DFF8F890B0F1000AA04605DACAF100071F
:1051000017E0CBF10000F0E7074612E0F80707D000
:105110002246334640464946FFF7B2FE804689465E
:105120002246334610461946FFF7AAFE04460E46AD
:105130007F10002FEAD1DDE90201BAF1000F4246EB
:105140004B4602DAFFF79CFE01E0FFF75DFC0446E8
:105150000E460022264BFFF71BFF03D84FF0FF300F
:10516000014607E00022234B20463146FFF7E2FDCF
:10517000FFF7F6FE102409E0002C0ADB0A220023C8
:10518000FFF712FD019B30321A55641E50EA0102EE
:10519000F2D1641C019AC4F1110314440F9A012A3C
:1051A00009D00122084301D15B450FDD4FF0000219
:1051B00005F101050DE0084303D1A3EB0B056D1EBE
:1051C00009E000204FF0110B0F9088E701DA002270
:1051D0006D1E002A83D000980F99C0E90231C0E902
:1051E000004571E730000000000024400000F03F5F
:1051F0000000F0430000E03F2DE9FF4F8DB0044672
:105200009B460F46002641E1252801D00F9963E017
:105210000025641CA14AA84601212378203B01FAFD
:1052200003F0104202D00543641CF6E720782E28D4
:1052300017D114F8010F45F004052A280ED06FF09D
:105240002F022078A0F1300109290AD808EB880143
:1052500002EB410100EB0108641CF2E757F8048BF4
:10526000641C20786C280DD004DC4C2812D06A28ED
:1052700011D104E074280DD07A280CD10AE045F44D
:10528000001507E0617845F48015814202D1641C65
:1052900005F58015641C94F800C0BCF1690F4DD071
:1052A0000CDCBCF1000F6ED0BCF1580F6FD0BCF11C
:1052B000630F16D0BCF1640F0CD13FE0BCF1700F4E
:1052C0006AD0BCF1730F15D0BCF1750F5DD0BCF185
:1052D000780F5CD00F9960465A46904706F1010658
:1052E000D3E001CF8DF8000000208DF80100E946E1
:1052F000012003E057F8049B4FF0FF3069074FF09F
:10530000000501D40AE06D1C45450DDA8542FADB43
:1053100019F805100029F6D106E06D1C8542FCDB6A
:1053200019F805100029F8D12E4404E019F8010BF2
:105330005A460F9990476D1EF8D2A6E00A20002128
:10534000CDE90801C5F3025002280AD001CFC117E8
:1053500000290DDA0023D0EB030063EB01012D22BD
:1053600009E007F1070727F00707F7E80201EFE771
:105370002A0504D52B228DF82820012230E0EA07E7
:105380002ED02022F7E785E001E00A2000E010207F
:105390000021CDE9080107E01020002145F00405B7
:1053A000CDE908014FF00808C5F3025002281CD0CF
:1053B00001CF00214FF0000A2A0712D5BCF1700F6F
:1053C00019D0DDE9083283F01003134309D150EA04
:1053D000010206D030228DF828208DF829C0022243
:1053E0009246BCF1580F10D00AE0FF1D27F00707C6
:1053F000F7E80201DEE740228DF828204FF0010A8D
:1054000027A20DF120090B9209E02AA2F9E7DDE9B4
:105410000823FFF7C9FB0B9B9B5C09F8013D50EA91
:105420000102F4D1ADEB090000F1200008906807FB
:1054300001D44FF001080899884502DDA8EB01006E
:1054400000E000208046002506E00AA85A46405D9C
:105450000F999047761C6D1C5545F6DB04E0302013
:105460005A460F999047761CB8F10001A8F101083F
:10547000F5DC05E019F8010B5A460F999047761CA8
:105480000899481E08900029F4DC641C2078002844
:105490007FF4BAAE11B03046BDE8F08F09280100A4
:1054A000303132333435363738396162636465669A
:1054B000000000003031323334353637383941425C
:1054C00043444546000000002DE9FF4F95B00646D5
:1054D0009A468946002521E2252801D01799A6E0A1
:1054E0000024F9492746761C4FF0010803943278CE
:1054F000203A08FA02F0084202D00443761CF6E78C
:1055000030782A2811D06FF02F023078A0F13001C6
:10551000092916D8039944F0020401EB810102EB3A
:1055200041010844761C0390EFE759F8041B0391EE
:10553000002903DA484244F40054039044F0020482
:10554000761C30782E2816D116F8010F44F004048A
:105550002A280DD06FF02F013078A0F13002092AEF
:1055600009D807EB870201EB42028718761CF3E7A4
:1055700059F8047B761C30786C280FD006DC4C2858
:1055800017D068280DD06A2814D104E0742810D0F0
:105590007A280FD10DE044F400140AE044F480149A
:1055A00001E044F440147178814202D1761C04F584
:1055B0008014761C96F800C0BCF1660F10D01ADC7F
:1055C000BCF1580F70D00CDCBCF1000F6DD0BCF1F9
:1055D000450FF3D0BCF1460FF0D0BCF1470F24D1FA
:1055E000A4E1BCF1630F40D0BCF1640F74D0BCF1F6
:1055F000650F1AD19AE1BCF1700F6ED00CDCBCF1D2
:10560000670FEDD0BCF1690F75D0BCF16E0F12D0F1
:10561000BCF16F0F09D1B3E0BCF1730F2FD0BCF117
:10562000750F76D0BCF1780F74D01799604652464A
:1056300090476D1C70E1C4F30250022809D0032882
:105640000DD0D9F8001004280DD00D6009F104091F
:1056500062E1D9F80010EA17C1E90052F6E7D9F87B
:1056600000100D80F2E70D70F0E759F8041B8DF87B
:10567000001000208DF80100EB46012003E059F8EE
:1056800004BB4FF0FF3061074FF0000102D40FE080
:1056900008F101018846B94211DA8045F8DB1BF8B0
:1056A00008100029F4D10AE060E03BE108F10101B3
:1056B00088468142FADB1BF808100029F6D10398CE
:1056C0005346A0EB080721463846179A00F091FA96
:1056D000284400EB080506E00DE049E01BF8010B4B
:1056E000524617999047B8F10108F7D25346214620
:1056F0003846179A0DE10A21C4F302524FF0000B0D
:105700000091022A07D059F8040BC117032A0AD0C6
:105710000BE024E025E009F1070020F00702F2E8A1
:105720000201914605E000B2C117042A01D140B23E
:10573000C117002906DA0A460021404261EB020146
:105740002D2202E0220504D52B228DF8042001220F
:1057500003E0E20701D02022F7E7904654E00A2157
:1057600000E010214FF0000B00910DE0102008E048
:1057700010204FF0000B44F004040827009003E0D1
:1057800008204FF0000B0090C4F30252022A05D00B
:1057900059F8040B0021032A08D009E009F1070099
:1057A00020F00702F2E80201914605E080B20021F4
:1057B000042A01D1C0B200214FF00008220723D5EE
:1057C000BCF1700F28D0009B83F0100353EA0B0349
:1057D00009D150EA010206D030228DF804208DF85C
:1057E00005C002229046009B83F0080353EA0B0396
:1057F0000AD150EA010201D1620705D530228DF8A5
:1058000004204FF001087F1EBCF1580F09D02FA2D1
:105810000C920CAA029211E040228DF80420012281
:10582000E0E72FA2F4E75B46009AFFF7BDF90C9B77
:105830009B5C029AA2F101020292137050EA0102EB
:10584000F1D1029804A9A1EB000000F1200B600740
:1058500002D524F4803400E001275F4502DDA7EB88
:105860000B0000E0002000EB0B0100900398414486
:10587000A0EB01000390E00306D453462146179A9B
:10588000039800F0B6F90544002706E001A8524647
:10589000C05D179990476D1C7F1C4745F6DBE00300
:1058A0000CD553462146179A039800F0A2F90544F7
:1058B00004E030205246179990476D1C0099481E0D
:1058C00000900029F5DC1EE0092801003031323358
:1058D000343536373839616263646566000000002C
:1058E0003031323334353637383941424344454616
:1058F000000000000298029952460078491C02916B
:10590000179990476D1CBBF10001ABF1010BF1DC65
:1059100050E100F05BF9054406F1010630780028FB
:105920007FF4DAAD19B02846BDE8F08F600700D4E7
:10593000062709F1070020F00701F1E80220894657
:1059400000F00043190001D09DA109E0210501D517
:105950009CA105E0E10701D09BA101E0AFF2840129
:1059600020F000431391BCF1650F11D009DCBCF1AC
:10597000450F0DD0BCF1460F20D0BCF1470F3ED1F2
:105980003EE0BCF1660F19D0BCF1670F7CD137E067
:105990000021112F01DB112000E0781CCDE900016E
:1059A00004A90CA8FFF77CFBDDE90D010C9A4FF070
:1059B000000B07F10108109200914CE04FF00040FD
:1059C0000097CDE9018004A90CA8FFF769FBDDE988
:1059D0000E20DDE90C314FF0000B90461093009241
:1059E00018B907F1010001EB0008B7EB080003D478
:1059F000C0F1FF3B07F10108A8EB0700019043E06D
:105A0000012F00DA01270021112F01DD112000E014
:105A10003846CDE9000104A90CA8FFF741FBDDE9F8
:105A20000D010C9A00914FF0000BB846109221071F
:105A30000CD40099414500DA8846B8F1010F05DD24
:105A4000109AA8F10101515C302908D0B84202DA5D
:105A500010F1040F06DA0121CDE9011014E0A8F1DC
:105A60000101E9E7002803DC8344A8EB000102E020
:105A7000411C414500DD8846A0EB0B0000F1010010
:105A800001904FF000400290200705D40198404556
:105A900002DB4FF0FF30019000208DF84B000298A0
:105AA0000DF14B07B0F1004F26D002200C902B20B7
:105AB0000D90029800280CDA404202902D200D90A3
:105AC00007E00A210298FFF759F83031029007F8F1
:105AD000011D0C99481E0C900029F2DC0298002848
