:020000040800F2
:10000000484A0020153A0008113D0008133D000839
:10001000173D00081B3D00081F3D000800000000C0
:100020000000000000000000000000004501000882
:10003000253D00080000000085010008B1140008FB
:100040002F3A00082F3A00082F3A00082F3A0008EC
:100050002F3A00082F3A00082F3A00082F3A0008DC
:100060002F3A00082F3A00082F3A00082F3A0008CC
:100070002F3A00082F3A00082F3A00082F3A0008BC
:100080002F3A00082F3A00082F3A00082F3A0008AC
:100090002F3A00082F3A00082F3A00082F3A00089C
:1000A0002F3A00082F3A00082F3A00082F3A00088C
:1000B0002F3A00082F3A00082F3A00082F3A00087C
:1000C0002F3A00082F3A00082F3A00082F3A00086C
:1000D0002F3A0008053E00082F3A00082F3A000882
:1000E0002F3A00082F3A00082F3A00082F3A00084C
:1000F0002F3A00082F3A00082F3A00082F3A00083C
:100100002F3A00082F3A00082F3A00082F3A00082B
:100110002F3A00082F3A00082F3A00082F3A00081B
:100120002F3A00082F3A00082F3A00082F3A00080B
:10013000DFF80CD004F008FB00480047C53B00087E
:10014000484A00201F4B19680868B0E8F00F80F398
:100150000988BFF36F8F4FF0000080F311884EF0D5
:100160000D0E70470000000005480068006880F32D
:10017000088862B6BFF34F8FBFF36F8F00DF00BFF9
:1001800008ED00E0EFF30980BFF36F8F0D4B1A68A5
:1001900020E9F00F106008B54FF0BF0080F3118820
:1001A00000F03EFE4FF0000080F31188BDE80840EB
:1001B00019680868B0E8F00F80F30988BFF36F8F03
:1001C000704700BF00000020EFF311804FF0BF0127
:1001D00081F31188704780F311887047EFF3058031
:1001E000704700F1080141604FF0FF31816000F17C
:1001F0000801C160016100210160704700210161B7
:10020000704742684A6093688B6093685960916058
:10021000086103685B1C0360704710B502460B68F9
:100220005C1C0CB9106907E002F1080000E04068AE
:10023000446824689C42FAD944684C604C68A160C8
:10024000886041600A611468641C146010BD014636
:100250000A69D1E901309860D1E90103586050681A
:10026000884201D188685060002008611068401EF3
:1002700010601068704770B505460E462C4601F0B8
:10028000FDF8D4E90F12206801FB02006060002035
:10029000A0632068A060E06B401E226C216800FB18
:1002A0000210E0604FF0FF306064A06476B920690E
:1002B00008B9012000E0002080B904F1100000F02E
:1002C0007AFF01280AD101F0CFF807E004F110000D
:1002D000FFF787FF04F12400FFF783FF01F0DBF84D
:1002E000012070BD2DE9F04705460E4691464FF0BE
:1002F0000008C5B14C2001F008F904469CB105FB8B
:1003000006F0471C384601F000F92060206838B13B
:10031000E563266401212046FFF7ADFFA04602E019
:10032000204601F045F94046BDE8F08710B5044687
:1003300001F0A4F811E0606A08B9012000E0002093
:1003400038B904F1240000F036FF18B100F0C5FF01
:1003500000E005E0A06C401EA064A06C0028EADC70
:1003600000BF4FF0FF30A06401F095F801F086F86F
:1003700011E0206908B9012000E0002050B904F123
:10038000100000F018FF08B100F0A7FF606C401EDD
:10039000606400E002E0606C0028EADC00BF4FF01F
:1003A000FF30606401F077F810BD70B5054601F0CC
:1003B00065F8A86BE96B884201D1012400E00024B4
:1003C00001F069F8204670BD70B504460E4615462A
:1003D000206C38B9206870BB606800F0C5FF002051
:1003E000606028E07DB93146226CA06803F0B0FF60
:1003F000216CA0680844A060D4E9011088421AD397
:100400002068A06017E03146226CE06803F0A0FF8E
:10041000216CE068401AE0602168E068884203D2FD
:10042000216C6068401AE060022D04D1A06B10B10D
:10043000A06B401EA063A06B401CA06370BD2DE9A3
:10044000FF4182B006460F461D464FF00008344675
:1004500000BF01F013F8A06BE16B884201D3022DBD
:1004600018D12A4639462046FFF7AEFF606A08B920
:10047000012000E0002038B904F1240000F09BFEC8
:10048000012801D100F0F0FF01F005F8012006B0CD
:10049000BDE8F081049818B900F0FDFF0020F6E7F0
:1004A000B8F1000F04D1684600F0E6FE4FF00108F5
:1004B00000F0F1FF00F0F3FB00F0E0FF606C401C87
:1004C00008B900206064A06C401C08B90020A0643A
:1004D00000F0E1FF04A9684600F0D5FEC0B920464F
:1004E000FFF763FF70B104F11000049900F01FFEE4
:1004F0002046FFF71BFF00F02FFB0028A9D100F0DA
:10050000B3FFA6E72046FFF711FF00F025FBA0E7A9
:100510002046FFF70BFF00F01FFB0020B7E770B588
:1005200005464C2000F0F1FF0446D4B10020606085
:100530002060A060E060A0630120E06300202064F0
:10054000401E6064A06404F11000FFF74AFE04F14D
:100550002400FFF746FE00231A4619462046FFF7FF
:100560006EFF204670BD2DE9F047054689461646C8
:100570001F462C46FFF728FE8246A06BE16B88429F
:1005800001D3022F1CD13A4649462046FFF71CFFF3
:10059000A06C401C70B9606A08B9012000E000201E
:1005A00058B904F1240000F006FE30B12EB101204C
:1005B000306002E0A06C401CA0644FF0010801E034
:1005C0004FF000085046FFF706FE4046BDE8F087B2
:1005D00070B5054600F052FFA86B08B9012400E091
:1005E000002400F058FF204670BD70B504460D464B
:1005F000206870B1216CE0680844E0606168E068E0
:10060000884201D32068E0602846226CE16803F04C
:100610009FFE70BD2DE9FF4383B0054688461E4608
:100620004FF000092C4600BF00F028FFA06B80B3FC
:10063000E76841462046FFF7D8FFB6B9A06B401ED9
:10064000A063206810B900F04CFE6060206908B912
:10065000012000E00020B0B904F1100000F0ABFD73
:10066000012810D100F000FF0DE0E760606A08B9D2
:10067000012000E0002030B904F1240000F09BFDCF
:1006800008B100F0F1FE00F006FF012007B0BDE860
:10069000F083FFE7059818B900F0FDFE0020F5E7AC
:1006A000B9F1000F04D101A800F0E6FD4FF00109F7
:1006B00000F0F1FE00F0F3FA00F0E0FE606C401C88
:1006C00008B900206064A06C401C08B90020A06438
:1006D00000F0E1FE05A901A800F0D5FD08BB204609
:1006E000FFF776FFB8B1206830B900F0C7FE606848
:1006F00000F0FAFD00F0CFFE04F12400059900F0AF
:1007000016FD2046FFF712FE00F026FA00288BD1D6
:1007100000F0AAFE88E72046FFF708FE00F01CFA6A
:1007200082E72046FFF702FE00F016FA0020ADE750
:100730002DE9F0470546884616462C46FFF744FD4E
:100740008146A06BE8B141462046FFF74EFFA06B03
:10075000401EA063606C401C70B9206908B901207C
:1007600000E0002058B904F1100000F024FD30B181
:100770002EB10120306002E0606C401C60640127F3
:1007800000E000274846FFF726FD3846BDE8F08721
:100790002DE9F047054688462C46FFF715FD8146B2
:1007A000A06B38B1E76841462046FFF71EFFE760BF
:1007B000012600E000264846FFF70DFD3046BDE863
:1007C000F08770B5044600F059FEA56B00F063FE9B
:1007D000284670BD70B50446254600F04FFED5E9A9
:1007E0000E10461A00F057FE304670BD0146886B69
:1007F000704770B504462546286810B1286800F097
:10080000D7FE284600F0D4FE70BD01468A6B0AB9B7
:10081000012000E00020704701468A6BCB6B9A42B2
:1008200001D1012000E000207047000010B5002435
:1008300007E004EB8401F64A02EB8100FFF7D1FCEC
:10084000641C052CF5D3F348FFF7CBFCF248FFF707
:10085000C8FCF248FFF7C5FCF148FFF7C2FCF148BD
:10086000FFF7BFFCEB48F0490860EB48EF49086030
:1008700010BD2DE9F04704460F4615469946DDF8B0
:100880002080002607E0B95D04F134008155B85D91
:1008900000B902E0761C102EF5D300BF00214320E2
:1008A0000155052D00D30425E5626564201DFFF781
:1008B000A5FC04F11800FFF7A1FC2461C5F10500B7
:1008C000A0616462BDE8F08770B505460E46482019
:1008D00000F01BFE044664B11EB9A80000F015FE2E
:1008E00000E030462063206B18B9204600F060FE1F
:1008F0000024204670BD2DE9FF4F81B0804615468B
:100900009946DDE90E7A28461099FFF7DDFF044687
:10091000002C4ED0681E216B01EB800B2BF0070BD7
:1009200000953A462046119B0299FFF7A2FF4A46DE
:100930004146584600F06EFD2060BAF1000F01D02C
:10094000CAF8004000F09AFDB9480068401CB84958
:100950000860B848006840B9B648046008460068B6
:1009600001280CD1FFF762FF09E0B348006830B9F5
:10097000B0480068C06AB84201D8AE480460AF48C9
:100980000068401CAD490860AD49E06A09688842CA
:1009900002D9AB49E06A0860E16A01EB81019C4A37
:1009A00002EB8100211DFFF72CFC012600F073FDF6
:1009B00001E04FF0FF36012E09D19F48006830B1A9
:1009C0009C480068C06AB84201D200F04DFD304634
:1009D00005B0BDE8F08F94490968096809B901219B
:1009E00000E0002121B14FF0FF31964A116006E08E
:1009F0008D490968C968C868924A416811607047A2
:100A000070B5054600F03AFD15B98A48006800E067
:100A100028460446201DFFF71AFCA06A18B104F10D
:100A20001800FFF714FC211D7D48FFF7EAFB8648FC
:100A30000068401C8449086080480068401C7F4969
:100A4000086000F028FD7C48006860B179480068C3
:100A5000844202D100F008FD05E000F00FFDFFF731
:100A6000BAFF00F018FD70BD2DE9F041002777486E
:100A70000068002864D176480068401C744908600A
:100A8000084606688EB96848D0F800806748006854
:100A9000654908606548C0F800806E480068401CE1
:100AA0006C490860FFF797FF00BF66480068864200
:100AB0003AD300BF5C480068006808B9012000E034
:100AC000002020B14FF0FF305E4908602BE056480F
:100AD0000068C068C4686568AE4202D259480560C3
:100AE00021E0201DFFF7B3FBA06A18B104F1180044
:100AF000FFF7ADFB5249E06A0968884202D95049C4
:100B0000E06A0860E16A01EB8101414A02EB810081
:100B1000211DFFF776FB4749E06A0968C96A8842E8
:100B2000C8D30127C6E700BF42480068C06A00EB8F
:100B30008000374951F82000012806D9012704E038
:100B400045480068401C444908604448006800B1BA
:100B500001273846BDE8F08170B5002500F08EFC15
:100B60003A480068401E3949086008460068002875
:100B70004AD12F480068002846D023E02748C068A3
:100B8000C46804F11800FFF762FB201DFFF75FFB4C
:100B90002B49E06A0968884202D92949E06A08605D
:100BA000E16A01EB81011A4A02EB8100211DFFF786
:100BB00028FB2049E06A0968C96A884202D30120FB
:100BC000264908601548006808B9012000E00020A7
:100BD0000028D3D02048006878B10AE0FFF744FF2E
:100BE00010B101201D4908601B480068401E1A49C9
:100BF0000860194800680028F0D1184800680128EA
:100C000002D1012500F030FC00F045FC284670BD03
:100C1000A000002004010020180100202C01002069
:100C200040010020540100200400002008000020A2
:100C300010000020000000201C0000202C000020DC
:100C400018000020300000200C000020340000209C
:100C50001400002028000020200000202400002094
:100C600010B50446FE4800684460FE4800688442AF
:100C700007D2FB480168091DFB480068FFF7CDFA61
:100C80000CE0F7480168091DF8480068FFF7C5FA4D
:100C9000F7480068844201D2F548046010BDF54869
:100CA0000068401CF349086070472DE9F04704468E
:100CB00088464FF00009FFF7F2FFEA48076820680E
:100CC00000EB08052068B84207D92068A8420BD974
:100CD000BD4209D94FF0010906E02068A84201D8B9
:100CE000BD4201D94FF001092560B9F1000F07D0CD
:100CF000DB480068001DFFF7AAFA2846FFF7B0FF9F
:100D0000FFF72AFF06460EB900F0AEFBBDE8F087FC
:100D100070B5044600267CB1FFF7C1FFD1480068DA
:100D20000519CF480068001DFFF791FA2846FFF724
:100D300097FFFFF711FF06460EB900F095FB70BD57
:100D400070B5044600F09AFB14B9C548006800E08D
:100D500020460646F56A00F09EFB284670BD2DE948
:100D6000F04707460D464FF00009052D00D3042536
:100D700000F084FB17B9BA48006800E03846044622
:100D8000666CAE4248D0B5420BD9B5480068844283
:100D90000DD0B3480068C06AA84208D84FF00109D6
:100DA00005E0AF480068844201D14FF00109D4F852
:100DB0002C80E16A606C884200D1E5626564A069BC
:100DC00000F0004010B9C5F10500A06108EB8801F2
:100DD000A94A02EB81016069884201D1012000E04B
:100DE000002098B1201DFFF732FAA449E06A096893
:100DF000884202D9A149E06A0860E16A01EB8101F9
:100E00009D4A02EB8100211DFFF7FBF9B9F1010FAB
:100E100001D100F029FB00BF00F03DFBBDE8F087E9
:100E20009448006818B10120954908602CE0002022
:100E30009349086004E091480068401E8F490860AB
:100E40008E48006800EB80008B4951F8200008B9FB
:100E5000012000E000200028EDD18849096801EB5D
:100E60008101854A02EB810041684968416000F1D7
:100E7000080142688A4202D141684968416041687C
:100E8000C968774A116000BF704770B5054600F029
:100E9000F5FA15B97248006800E028460446201D9E
:100EA000FFF7D5F9A06A18B104F11800FFF7CFF9E0
:100EB000211D7448FFF7A5F900F0EDFA68480068B5
:100EC000844212D17048006810B100F0CDFA15E0EC
:100ED0006C4800686D490968884203D10020604968
:100EE00008600BE0FFF79CFF08E06748006828B146
:100EF00000F0C4FAFFF76FFD00F0CDFA70BD10B539
:100F0000014600200A465F4C5369A34201D10123E8
:100F100000E0002373B15E4C936AA34201D1012328
:100F200000E0002333B9936A0BB9012300E00023EA
:100F300003B1012010BD70B505462C4644B34848A6
:100F40000068844224D000F099FA2046FFF7D7FFCA
:100F500001281BD1201DFFF77AF94849E06A09688A
:100F6000884202D94549E06A0860E16A01EB8101E3
:100F7000414A02EB8100211DFFF743F93849E06A3D
:100F80000968C96A884201D300F06EFA00F083FA5A
:100F900070BD2DE9F041054600262C46FFF714F9F7
:100FA00007462046FFF7ABFF012823D131480068F0
:100FB000D8B92B49E06A0968C96A884200D301267A
:100FC000201DFFF744F92D49E06A0968884202D9DB
:100FD0002A49E06A0860E16A01EB8101264A02EBD6
:100FE0008100211DFFF70DF904E004F118012848E4
:100FF000FFF707F93846FFF7EEF83046BDE8F08115
:1010000010B50446206B00F0D3FA204600F0D0FA69
:1010100010BD70B523E0FFF742FE1E48006808B916
:10102000012000E000200546FFF796FDBDB900F065
:1010300025FA1848C068C468201DFFF708F913484E
:101040000068401E1149086013480068401E12499C
:10105000086000F020FA2046FFF7D2FF00BF1DE035
:1010600000000020140000200800002004000020E0
:101070003000002034000020A000002018000020D4
:1010800024000020540100201C000020100000203B
:101090002C010020400100200C000020CC480068FA
:1010A0000028B8D170BD00BFFFF7B3FFC948006882
:1010B0000128F9D900F0D8F9F6E71FB50020009013
:1010C0000190029003468022C3A10390C448FFF719
:1010D00012FC0446012C09D1FFF776F80120C14922
:1010E00008600020C049086000F0A8F91FBD10B5D5
:1010F000FFF76AF80020BB49086000F0B4F910BDA2
:1011000010B500F0BBF9B848046800F0C4F92046F7
:1011100010BD70B5FFF758F80546B3480468284677
:10112000FFF759F8204670BDB0480068704770B5A9
:1011300006460C46AE48016818313046FFF76DF898
:10114000AB480068001DFFF782F8601C30B9A84862
:101150000168091DA748FFF754F805E0A248006898
:1011600005192846FFF77CFD70BD2DE9F0410746C3
:101170000D46144645F000409D49096888619C4829
:10118000016818313846FFF73CF899480068001D9F
:10119000FFF75DF8601C30B995480168091D954856
:1011A000FFF72FF805E09048006806193046FFF772
:1011B00057FDBDE8F08170B50646F068C46804F1DB
:1011C0001800FFF744F88C480068A0B9201DFFF70D
:1011D0003EF88A49E06A0968884202D98749E06A8C
:1011E0000860E16A01EB81017A4A02EB8100211D6E
:1011F000FFF707F804E004F118018148FFF701F850
:101200007B49E06A0968C96A884204D9012501203E
:101210007C49086000E00025284670BD2DE9F041BA
:1012200005460F4647F000402860EC682846FFF767
:101230000EF8201DFFF70BF87049E06A0968884234
:1012400002D96E49E06A0860E16A01EB8101614AF6
:1012500002EB8100211DFEF7D4FF6549E06A0968B1
:10126000C96A884204D9012601206649086000E065
:1012700000263046BDE8F0816349096801605A499B
:1012800009684160704770B504460D4600F0F6F8F5
:10129000554802682868401C08B9002619E05A49D8
:1012A00020680968884204D06068904201D801260D
:1012B0000FE06068101A2968884209D228686168BE
:1012C000511A401A28602046FFF7D6FF002600E09A
:1012D000012600F0E0F8304670BD01204949086061
:1012E000704743490868704770B505462C46002D85
:1012F00039D03F49E06A0968C96A884233D2A06997
:1013000000F0004028B93A480068C06AC0F1050002
:10131000A061E16A01EB81012E4A02EB8101606963
:10132000884201D1012000E00020C0B1201DFEF75D
:101330008EFF2F480068C06AE0623049E06A0968A1
:10134000884202D92D49E06A0860E16A01EB810117
:10135000204A02EB8100211DFEF753FF03E02448E1
:101360000068C06AE06270BD70B505462C460DB3DA
:10137000616CE06A88421DD0201DFEF768FF606C3A
:10138000E062A06900F0004018B9E06AC0F1050011
:10139000A0611A49E06A0968884202D91749E06ADF
:1013A0000860E16A01EB81010A4A02EB8100211D1C
:1013B000FEF727FF70BD0E49096888690C49096866
:1013C000C96AC1F105010A4A1268916170470000BB
:1013D0000C000020A000002049444C450000000003
:1013E000A71000081C00002014000020100000209E
:1013F00000000020540100203400002018000020CC
:101400002C0100202400002028000020FEF7DCFE34
:1014100000BFFEE7001F4FF080730360001F0160F4
:10142000001F2B4B03601438026020387047294896
:101430004FF0E021486107200861704710B5264849
:10144000006840F47F00244908600846006840F0C6
:101450007F400860FFF7EBFF002020490860FEF79F
:1014600083FE002010BD70474FF080501A491C3990
:101470000860BFF34F8FBFF36F8F704710B5FEF753
:10148000A3FE16480068401C14490860BFF34F8F44
:10149000BFF36F8F10BD10B510480068401E0F4994
:1014A00008600846006810B90020FEF794FE10BDE1
:1014B00010B5FEF789FEFFF7D7FA20B14FF0805044
:1014C00005491C3908600020FEF785FE10BD0000AC
:1014D0000D1400083F19010020ED00E03800002045
:1014E000434A22F00700434A10600022414B5A60F1
:1014F00044F2F832404B5A6000221A60014644F22E
:10150000F8324A601A460A6070472DE9F0410446F5
:101510004FF00008FFF7C3FB3848006820B9FFF719
:10152000DFFF01203549086044B1083404F00700AA
:1015300020B104F00700C0F108000444002C32D0B0
:1015400044F2F83084422ED22A4F3846056801E032
:101550002F462D686868A04202D228680028F7D17B
:10156000254885421FD0386800F10808286838608F
:101570006868001B102810D92E196868001B70605D
:101580006C6071681B4800E00068026852688A421B
:10159000FAD302683260066000BF194968680968BA
:1015A000081A17490860FFF7D7FA4046BDE8F081EE
:1015B00070B506463546B6B1083D2C46FFF76FFBC1
:1015C00061680C4800E00068026852688A42FAD3F9
:1015D0000268226004600A49606809680844084992
:1015E0000860FFF7B9FA70BD05480068704770479A
:1015F000700100203C00002044000020500000202A
:101600004C0000200CB50020019000906C48006850
:1016100040F480306A49086000BF6948006800F4FF
:10162000003000900198401C0190009818B9019872
:10163000B0F5006FF1D16248006800F4003010B1DD
:101640000120009001E0002000900098012843D183
:101650005C48006840F010005A490860084600687D
:1016600020F0030008600846006840F002000860AF
:1016700053484068524948600846406848600846F8
:10168000406840F4806048600846406820F47C1060
:1016900048600846406840F4E81048600846006822
:1016A00040F08070086000BF4548006800F000709E
:1016B0000028F9D04248406820F0030040494860C3
:1016C0000846406840F00200486000BF3C4840685F
:1016D00000F00C000828F9D10CBD10B5FFF792FFFF
:1016E00010BD10B53648006840F00100344908606C
:1016F0000846406834490840314948600846006857
:10170000324908402E4908600846006820F48020CD
:1017100008600846406820F4FE0048604FF41F004F
:101720008860FFF7DAFF4FF000602949086010BDBC
:1017300010B5002100200022214B5B6803F00C0152
:1017400021B1042906D0082928D107E0214B224CD9
:10175000236027E01F4B204C236023E0184B5B687D
:1017600003F47010164B5B6803F48032022303EB22
:10177000904022B9194B4343174C23600DE0104BA6
:101780005B6803F4003323B1144B4343124C2360D2
:1017900003E0104B4343104C236003E00D4B0E4C11
:1017A000236000BF00BF064B5B68C3F303130C4C00
:1017B000E15C094B1B68CB40074C236010BD000067
:1017C00000100240002002400000FFF8FFFFF6FE7C
:1017D00008ED00E000127A005400002000093D00EE
:1017E0005800002031490143314A1160704770B5FB
:1017F000002100230F22C47804B32D4C246804F484
:10180000E064C4F5E064210AC1F10403CA404478ED
:1018100004FA03F18478144021430901254C067829
:10182000A155047804F01F050124AC4005786D1122
:10183000AD0005F1E025C5F8004109E0047804F0A9
:101840001F050124AC401C4D0678761145F8264052
:1018500070BD1A4A0A400243154B1B1F1A6070479D
:1018600039B1134A121D12680243114B1B1D1A6035
:1018700006E00F4A121D126882430D4B1B1D1A60B1
:101880007047042808D14FF0E021096941F00401B4
:101890004FF0E022116107E04FF0E021096921F0EB
:1018A00004014FF0E0221161704700000000FA05CA
:1018B0000CED00E000E400E080E100E080FFFF1FAD
:1018C00010B50446FA48844208D10121401500F0C1
:1018D00045FF0021601500F041FF17E0F548844204
:1018E00008D10121001500F039FF0021201500F07A
:1018F00035FF0BE0F048844208D10121C80300F015
:101900002DFF00214FF4004000F028FF10BD30B53E
:101910000246002000235068E84C20400D790C68F6
:1019200044EA0524204350609068E54C2040D1E90A
:1019300002542C434D7944EA450420439060D06A18
:1019400020F470000C7C641EE4B2234340EA035090
:10195000D06230BD00210160017141718160C160C0
:1019600001210174704721B1826842F00102826056
:1019700003E0826822F001028260704721B1826830
:1019800042F48072826003E0826822F48072826096
:10199000704710B50023CBB21AB144681C434460B1
:1019A00002E044689C43446010BD816841F0080136
:1019B00081607047014600208A6802F008020AB17F
:1019C000012000E000207047816841F0040181603F
:1019D0007047014600208A6802F004020AB1012023
:1019E00000E00020704721B1826842F4A0028260CA
:1019F00003E0826822F4A002826070470146002062
:101A00008A6802F480020AB1012000E000207047D9
:101A100010B50A4600210023416821F46041531E9D
:101A200041EA4331416010BD21B1426842F4006295
:101A3000426003E0426822F4006242607047F0B501
:101A400004460D4600200021092D11DDE068A5F1B6
:101A50000A0606EB4607072606FA07F18843A5F1B2
:101A60000A0606EB460603FA06F10843E0600CE0BE
:101A7000206905EB4507072606FA07F1884305EBC1
:101A8000450603FA06F108432061072A0FDA606B66
:101A9000561E06EB86071F2606FA07F18843561ED8
:101AA00006EB860605FA06F10843606322E00D2A7C
:101AB0000FDA206BD61F06EB86071F2606FA07F102
:101AC0008843D61F06EB860605FA06F10843206315
:101AD00010E0E06AA2F10D0606EB86071F2606FA63
:101AE00007F18843A2F10D0606EB860605FA06F11A
:101AF0000843E062F0BD21B1826842F48012826046
:101B000003E0826822F48012826070470146C86C4C
:101B100080B2704766484C300068704721B1426817
:101B200042F48062426003E0426822F480624260D4
:101B3000704721B1426842F48052426003E042683B
:101B400022F48052426070470A460021816821F4E5
:101B5000E04111438160704721B1826842F4004244
:101B6000826003E0826822F400428260704721B103
:101B7000826842F40212826003E0826822F4021258
:101B800082607047014600208A6802F400120AB1A0
:101B9000012000E000207047F0B504461546002003
:101BA00000220026092911DDE068A1F10A0707EBF0
:101BB000470C072707FA0CF29043A1F10A0707EB3D
:101BC000470703FA07F21043E0600CE0206901EBDD
:101BD000410C072707FA0CF2904301EB410703FA87
:101BE00007F210432061A06BC0F30156EF1C06F111
:101BF000010CA7EB0C0707EB870C1F2707FA0CF269
:101C00009043EF1C06F1010CA7EB0C0707EB8707CD
:101C100001FA07F21043A063F0BD10B50A46002197
:101C20000023816B21F44011531E41EA035181636B
:101C300010BD08B5002300930090009B0B44009357
:101C4000009B1A6008BD08B5024600200090009273
:101C500001F12800009B184400900098006880B2B1
:101C600008BD0A4600214168164B194011434160E6
:101C700070474162826270470A460021416821F044
:101C80001F0111434160704740B10949083109689B
:101C900041F40001064A0832116007E004490831A6
:101CA000096821F40001024A0832116070470000FF
:101CB0000024014000280140003C0140FFFEF0FFED
:101CC000FDF7F1FFFFFD3FFF0246002013680B40C8
:101CD0000BB1012000E000207047CA43026070474A
:101CE00070B502460020002300240B125568CEB2C6
:101CF00005EA060415681D4015B10CB1012000E08D
:101D0000002070BD00220A12D34303607047000018
:101D100010B50121480700F02EFD00214FF00050C2
:101D200000F029FD10BD30B5002200235A4C226876
:101D300040F6FE748440A243D1E900452C438D68EF
:101D40002C43CD6844EA050303FA00F42243524CC5
:101D5000226030BD0021016041608160C160704738
:101D600039B14D4A1268012383401A434A4B1A6025
:101D700006E0494A1268012383409A43464B1A60A1
:101D8000704741B1444A12684FF4805383401A436C
:101D9000414B1A6007E0404A12684FF48053834079
:101DA0009A433D4B1A60704710B551B13A4A121D23
:101DB000126804090123A3401A43374B1B1D1A6004
:101DC00009E0354A121D126804090123A3409A4311
:101DD000314B1B1D1A6010BD40B12F49091D096808
:101DE00041F003012C4A121D116007E02A49091D28
:101DF000096821F00301284A121D1160704710B5CF
:101E00003AB1254B1B6801FA00F42343224C2360AE
:101E100006E0214B1B6801FA00F4A3431E4C23602B
:101E200010BD08B5002200921B4A009200F1080282
:101E3000009B1A440092009A116008BD08B5002268
:101E40000092154A009200F11402009B1A4400927D
:101E5000009A116008BD30B500240023082802D183
:101E600042EA012401E042EA01440B4B00F1200563
:101E70002B441C6030BD08B5014600200090064888
:101E800000902C2000EB9100009A104400900098E4
:101E9000006880B208BD00000074004001684FF681
:101EA000FE72114001600021016041608160C160EB
:101EB0008D49884208D18C490839496841F00F01A1
:101EC000894A083A51608AE087491431884208D12A
:101ED00085490839496841F0F001834A083A516060
:101EE0007DE081492831884208D17F490839496815
:101EF00041F470617C4A083A516070E07A493C31A3
:101F0000884208D178490839496841F47041764AD5
:101F1000083A516063E074495031884208D17249EF
:101F20000839496841F470216F4A083A516056E017
:101F30006D496431884208D16B490839496841F4D8
:101F40007001694A083A516049E06749783188422E
:101F500008D165490839496841F07061624A083A18
:101F600051603CE06149884206D1011F096841F097
:101F70000F01021F116032E05C491431884208D120
:101F80005A49091F096841F0F001584A121F1160AF
:101F900025E056492831884208D15449091F09686B
:101FA00041F47061514A121F116018E04F493C31F1
:101FB000884208D14D49091F096841F470414B4AD4
:101FC000121F11600BE049495031884207D147493F
:101FD000091F096841F47021444A121F11607047BB
:101FE00010B50022026847F6F0739A430C6A8B68BA
:101FF00023430C6923434C6923438C692343CC69F5
:1020000023434C6A23438C6A23431A430260CB6800
:1020100043600B6883604B68C36010BD00210160A2
:1020200041608160C160016141618161C1610162A2
:1020300041628162704721B1026842F00102026090
:1020400004E002684FF6FE731A40026070471AB14E
:1020500003680B43036002E003688B43036070472F
:10206000416070470146486880B2704701460020D1
:10207000002201F080531BB11C4B083B1A6802E0A0
:10208000194B083B1A6802EA01030BB1012000E07A
:102090000020704700F0805119B11449091F0860F1
:1020A00002E01149083948607047014600200022CB
:1020B00001F080531BB10D4B083B1A6802E00A4B3C
:1020C000083B1A6802EA01030BB1012000E000207E
:1020D000704700F0805119B10449091F086002E0FF
:1020E000014908394860704708000240080402406E
:1020F00010B50446CC48844208D10121042000F0E8
:102100002DFB0021042000F029FB46E0C748844253
:1021100008D10121082000F021FB0021082000F057
:102120001DFB3AE0C248844208D10121102000F092
:1021300015FB0021102000F011FB2EE0BD48844269
:1021400008D10121202000F009FB0021202000F00F
:1021500005FB22E0B848844208D10121402000F06C
:10216000FDFA0021402000F0F9FA16E0B34884425D
:1021700008D10121802000F0F1FA0021802000F038
:10218000EDFA0AE0AE48844207D10121801500F043
:10219000E5FA0021A01500F0E1FA10BD10B501210B
:1021A000084600F0DBFA0021012000F0D7FA10BD4C
:1021B0002DE9F041024600250026002000230024DE
:1021C000002791F803C00CF00F0591F803C00CF044
:1021D000100CBCF1000F03D091F802C04CEA0505C9
:1021E00091F800C0BCF1000F31D0146800202BE042
:1021F0004FF0010C0CFA00F3B1F800C00CEA030632
:102200009E4220D183004FF00F0C0CFA03F7BC4321
:1022100005FA03FC4CEA040491F803C0BCF1280F52
:1022200006D14FF0010C0CFA00FCC2F814C00AE011
:1022300091F803C0BCF1480F05D14FF0010C0CFA26
:1022400000FCC2F810C0401C0828D1D31460B1F8BB
:1022500000C0BCF1FF0F34DD546800202EE000F117
:10226000080C4FF0010808FA0CF3B1F800C00CEAB2
:1022700003069E4221D183004FF00F0C0CFA03F7A6
:10228000BC4305FA03FC4CEA040491F803C0BCF11A
:10229000280F05D100F1080C08FA0CF8C2F81480D8
:1022A00091F803C0BCF1480F07D100F1080C4FF0C2
:1022B000010808FA0CF8C2F81080401C0828CED398
:1022C0005460BDE8F0814FF6FF71018002218170FA
:1022D0000421C17070470246002093680B400BB187
:1022E000012000E0002070470146886880B27047F6
:1022F00002460020D3680B400BB1012000E0002013
:1023000070470146C86880B27047016170474161FB
:1023100070470AB1016100E041617047C1607047D8
:102320004FF480320A4382618161826182698269ED
:10233000704702460020434B18684FF680731840E0
:1023400040EA021008433F4B186070473E49C8619D
:102350007047F0B50A46002300240021002500F054
:102360000046B6F1004F02D1364EF16901E0354E1C
:102370007168C0F3034583B200F44016B6F5401F00
:1023800008D121F070612F4E766826F070662D4FCF
:102390007E6012E000F48016B6F5801F06D1032699
:1023A00006FA05F4A14341F0706106E0460D3601DE
:1023B00003FA06F6B14341F0706122B1460D3601D1
:1023C00003FA06F6314300F00046B6F1004F02D1A1
:1023D0001C4EF16101E01B4E7160F0BD30B5002272
:1023E0008B071C0F0F2303FA04F2164B08338C10D3
:1023F00053F824309343134C08348D1044F825309F
:1024000023468C1053F824308C07240F00FA04F470
:1024100023430C4C08348D1044F8253030BD0A4954
:10242000DC3108607047000000080140000C0140EA
:10243000001001400014014000180140001C014040
:10244000002001400000014000002042DF480068F9
:1024500040F00100DD49086008464068DC4908405A
:10246000DA49486008460068DA490840D7490860F8
:102470000846006820F4802008600846406820F480
:10248000FE0048604FF41F0088607047CF4909681C
:1024900021F48031CD4A11601146096821F4802170
:1024A0001160B0F5803F03D0B0F5802F0ED106E06B
:1024B000C649096841F48031C44A116007E0C34944
:1024C000096841F4A021C14A116000E000BF00BFCB
:1024D000704710B501460022002300204A11012A4E
:1024E00002D1BA4C236806E0022A02D1B74C236A13
:1024F00001E0B64C636A01F01F02012494401C40C5
:102500000CB1012000E0002010BD38B50020009083
:102510000024002500BF3120FFF7DBFF05460098AF
:10252000401C00900098B0F5006F01D0002DF2D053
:102530003120FFF7CEFF08B1012400E0002420463F
:1025400038BD01460020A14A106820F0F80040EA9A
:10255000C10010607047A049086070470246002023
:102560009A4B586820F47C1042EA01031843974BB9
:102570005860704798490866704701460020934AA2
:10258000506820F003000843506070478F4840684F
:1025900000F00C007047014600208C4A506820F083
:1025A000F00008435060704701460020874A506899
:1025B00020F4E06008435060704701460020834AE1
:1025C000506820F4605040EAC1005060704729B163
:1025D0007E4A527A02437D4B5A7204E07B4A527A19
:1025E00082437A4B5A7270477B49D83108607047F2
:1025F00001460020754A506820F44040084350606E
:1026000070470021714A20321170704A82F8201000
:10261000012802D004280AD104E001216B4A2032AB
:10262000117005E00521694A2032117000E000BFF9
:1026300000BF70476949086070476449096A0143EF
:10264000624A11627047654944390860704730B585
:1026500000210022002400235C4D6D6805F00C0170
:1026600021B1042905D0082923D105E05C4D05607E
:1026700022E05B4D05601FE0544D6D6805F470125B
:10268000524D6D6805F48034022505EB92421CB969
:10269000544D554305600BE04C4D6D6805F4003515
:1026A0001DB1504D5543056002E04D4D5543056049
:1026B00002E04B4D056000BF00BF444D6D6805F062
:1026C000F0010909484D6B5C0568DD4045603F4DF0
:1026D0006D6805F4E061090A434D6B5C4568DD40B7
:1026E00085603A4D6D6805F46051C90A3E4D6B5CDA
:1026F0004568DD40C560354D6D6805F44041890B86
:102700003A4D6B5CC568B5FBF3F5056130BD29B189
:102710002E4A526902432D4B5A6104E02B4A5269FA
:1027200082432A4B5A61704729B1284A9269024371
:10273000264B9A6104E0254A92698243234B9A61B1
:10274000704729B1214AD2690243204BDA6104E083
:102750001E4AD26982431D4BDA61704729B11B4A78
:10276000D2680243194BDA6004E0184AD268824307
:10277000164BDA60704729B1144A12690243134BB1
:102780001A6104E0114A12698243104B1A617047C2
:1027900012494039086070470F49C86470470B49B7
:1027A000C87170470948406A40F080700749486224
:1027B000704701460020054A92680A400AB101208C
:1027C00000E0002070470149887270470010024005
:1027D0000000FFF8FFFFF6FE000042428004424284
:1027E00000127A0000093D006800002078000020F7
:1027F00010B50446FE48844208D10121C014FFF7F9
:10280000ADFF0021E014FFF7A9FFC4E0B4F1804F51
:1028100008D101210846FFF7AEFF00210120FFF794
:10282000AAFFB8E0F348844208D101210220FFF753
:10283000A2FF00210220FFF79EFFACE0EE48844299
:1028400008D101210420FFF796FF00210420FFF7A3
:1028500092FFA0E0E948844208D101210820FFF757
:102860008AFF00210820FFF786FF94E0E4488442B5
:1028700008D101211020FFF77EFF00211020FFF773
:102880007AFF88E0DF48844208D101212020FFF749
:1028900072FF00212020FFF76EFF7CE0DA488442BF
:1028A00008D101214014FFF759FF00216014FFF700
:1028B00055FF70E0D548844209D10121C804FFF7D3
:1028C0004DFF00214FF40020FFF748FF63E0D048A0
:1028D000844209D101210805FFF740FF00214FF490
:1028E0008010FFF73BFF56E0CA48844209D101211E
:1028F0004805FFF733FF00214FF40010FFF72EFFCC
:1029000049E0C548844208D101214020FFF733FF48
:1029100000214020FFF72FFF3DE0C048844208D14E
:1029200001218020FFF727FF00218020FFF723FFF0
:1029300031E0BB48844208D101218015FFF71BFF1D
:102940000021A015FFF717FF25E0B648844209D102
:1029500001210804FFF702FF00214FF48030FFF748
:10296000FDFE18E0B048844209D101214804FFF778
:10297000F5FE00214FF40030FFF7F0FE0BE0AB480E
:10298000844208D101218804FFF7E8FE00214FF4BA
:102990008020FFF7E3FE10BD00220288944B98428E
:1029A0000ED0994B98420BD0B0F1804F08D0914B8C
:1029B000984205D0904B984202D0904B984204D157
:1029C0004FF68F731A404B881A438D4B984207D0AD
:1029D0008C4B984204D04FF6FF431A40CB881A43E1
:1029E00002808B8883850B880385814B98420BD0AE
:1029F000854B984208D08B4B984205D08A4B984221
:102A000002D08A4B984201D10B7A0386012383823C
:102A1000704770B5002400220023058C4FF6FE7627
:102A200035400584028C8388048B4FF68F752C40CB
:102A3000B51E2C400D882C43751E2A400D892A4353
:102A40004D882A436A4DA8420BD06F4DA84208D04A
:102A5000744DA84205D0744DA84202D0734DA842CF
:102A600013D14FF6F7752A404D892A434FF6FB756F
:102A70002A408D882A434FF6FF652B404FF6FF55BD
:102A80002B408D892B43CD892B4383800483CD88B4
:102A90008586028470BD70B5002400220023058C59
:102AA0004FF6EF7635400584028C8388048B48F618
:102AB000FF752C404FF6FF452C400D884FF6FF76F2
:102AC00006EA05252C434FF6DF752A400D8906EAF4
:102AD00005152A434D8806EA05152A43444DA842A8
:102AE00002D0494DA8421DD14FF67F752A404D892D
:102AF0004FF6FF7606EA05152A434FF6BF752A40C2
:102B00008D8806EA05152A434FF6FF352B404FF214
:102B1000FF752B408D8906EA85052B43CD8906EA92
:102B200085052B4383800483CD880587028470BD8F
:102B300070B5002400220023058C4FF6FF66354057
:102B40000584028C8388848B4FF68F752C404FF65A
:102B5000FC752C400D882C434FF6FF552A400D89FB
:102B60004FF6FF7606EA05252A434D8806EA052535
:102B70002A431F4DA84202D0234DA8421DD14FF237
:102B8000FF752A404D894FF6FF7606EA05252A4350
:102B90004FF6FF352A408D8806EA05252A434EF672
:102BA000FF752B404DF6FF752B408D8906EA051504
:102BB0002B43CD8906EA05152B4383808483CD887A
:102BC0008587028470BD70B5002200230024058C27
:102BD0004EF6FF7635400584038C8488828B48F658
:102BE000FF752A404FF6FF452A400D8820E000007F
:102BF000002C01400004004000080040000C004090
:102C0000001000400014004000340140004C01401E
:102C1000005001400054014000180040001C0040DA
:102C200000200040004001400044014000480140B5
:102C30004FF6FF7606EA05252A434DF6FF752B4031
:102C40000D8906EA05352B434D8806EA05352B43E9
:102C5000FA4DA84202D0FA4DA84208D14BF6FF75B2
:102C60002C408D894FF6FF7606EA85152C4384802B
:102C70008283CD88A0F84050038470BD828B4FF2D0
:102C8000FF331A408283828B4FF6FF7303EA0123DE
:102C90001A4382837047F0B50C4615460022002186
:102CA0000026078C4EF6FF7C07EA0C070784828B10
:102CB000018C4FF6FF7707EA043640F6FF473A40AB
:102CC0004FF6FF7707EA05273A434FF6FF7707EA03
:102CD00003373A43D94FB8420ED0D94FB8420BD040
:102CE000B0F1804F08D0D74FB84205D0D64FB84288
:102CF00002D0D64FB84206D14DF6FF77394046F4A0
:102D00008057394305E047F6FF57394044F4805770
:102D1000394382830184F0BD828B4FF6F3731A40EE
:102D20008283828B0A4382837047F0B50C46154636
:102D3000002200210026078C4FF6FF6C07EA0C07E3
:102D40000784828B018C4FF6FF7707EA04264FF643
:102D50000C773A404FF6FF7707EA03172F433A43C1
:102D6000B64FB8420ED0B64FB8420BD0B0F1804F3C
:102D700008D0B44FB84205D0B34FB84202D0B34FD9
:102D8000B84206D14FF6FF57394046F480773943B1
:102D900005E04FF2FF57394044F48077394382838E
:102DA0000184F0BD028B4FF2FF331A400283028B85
:102DB0004FF6FF7303EA01231A4302837047F0B50D
:102DC0000C461546002200210026078C4FF6EF7CAA
:102DD00007EA0C070784028B018C4FF6FF7707EA9E
:102DE000041640F6FF473A404FF6FF7707EA0337ED
:102DF0003A434FF6FF7707EA05273A438F4FB84229
:102E00000ED08F4FB8420BD0B0F1804F08D08D4F0D
:102E1000B84205D08C4FB84202D08C4FB84206D190
:102E20004FF6DF77394046F01007394305E04FF69B
:102E30005F77394044F01007394302830184F0BDC5
:102E4000028B4FF6F3731A400283028B0A4302830C
:102E50007047F0B50C46154600220021068C4FF64F
:102E6000FE773E400684028B018C4FF60C76324092
:102E70007E1C06EA03162E433243704EB0420ED03B
:102E80006F4EB0420BD0B0F1804F08D06D4EB042C3
:102E900005D06D4EB04202D06C4EB04206D14FF616
:102EA000FD76314044F00106314305E04FF6F576FA
:102EB000314044F00106314302830184F0BD70B516
:102EC00005460C465D4885420ED05D4885420BD0D4
:102ED000B5F1804F08D05B48854205D05A488542FD
:102EE00002D05A48854200D100E000BF208850B986
:102EF0002389A28861882846FFF7ABFFE18828462E
:102F0000FFF79EFF25E0208804280AD12389A288A4
:102F100061882846FFF753FFE1882846FFF742FF04
:102F200017E0208808280AD12389A28861882846CA
:102F3000FFF7FBFEE1882846FFF7EEFE09E0238954
:102F4000A28861882846FFF7A6FEE1882846FFF799
:102F500095FE70BD2DE9F04105460C46002601277F
:102F6000608808B9022600E00026A088012801D167
:102F7000022700E001272088A0B92389A288618860
:102F80002846FFF766FFE1882846FFF759FF2389A7
:102F90003A4631462846FFF712FFE1882846FFF7F8
:102FA00001FF13E02389A28861882846FFF707FF05
:102FB000E1882846FFF7F6FE23893A46314628463F
:102FC000FFF747FFE1882846FFF73AFFBDE8F081A9
:102FD0000A884B881A438B881A43CB881A430B897B
:102FE0001A434B891A438B891A43A0F8442070472F
:102FF0004FF6FF71818000210180C1804180017204
:1030000070470021018041808180C1800181418120
:103010008181C1817047002101804180012181802F
:103020000021C180018170470021018041808180A1
:10303000C18001814181818170470000002C0140E5
:10304000003401400004004000080040000C004033
:1030500021B1028842F00102028004E002884FF6AA
:10306000FE731A400280704731B1B0F8442042F438
:103070000042A0F8442005E0B0F84420C2F30E025C
:10308000A0F8442070471AB183890B43838102E082
:1030900083898B43838170478182704741EA0203B1
:1030A000A0F8483070471AB183890B43838102E04E
:1030B00083898B438381704701894FF6F8721140F1
:1030C000018170470A46002101894FF68F7319402C
:1030D00011430181704730B504460D46294620460C
:1030E000FFF7F0FF208940F00700208130BD2DE977
:1030F000F04104460D4616461F46602D06D13B465C
:10310000012231462046FFF75AFE05E03B460122E8
:1031100031462046FFF79DFE29462046FFF7D2FFA5
:10312000208940F007002081BDE8F08130B50C46D1
:1031300000210189C9B24FF6FF7505EA0325154341
:1031400025432943018130BD2DE9F04105460E4656
:1031500017469846002443463A4631462846FFF72C
:10316000E5FF2C894FF6F870044044F007044FF651
:103170008F70044044F070042C81BDE8F081F0B5FC
:1031800004460D4616461F463B4632462946204613
:10319000FFF7CCFF208940F480402081F0BD0185FD
:1031A000828270470A46002101884FF68F731940CA
:1031B000114301807047F0B50C4615461E460021AC
:1031C000002200230189028B038C4FF6F8773940E7
:1031D00021434FF6FC473A4040F201173A434FF67D
:1031E000DD773B404FF6FF7707EA06172F433B4357
:1031F000018102830384F0BD0A460021018B4FF652
:103200008F7319401143018370470A460021018BD7
:1032100048F6FF7319404FF6FF7303EA0223194380
:10322000018370470A460021818B4FF68F73194046
:103230001143818370470A460021818B48F6FF7352
:1032400019404FF6FF7303EA022319438183704745
:1032500021B1028842F08002028004E002884FF629
:103260007F731A400280704721B1828842F00402C5
:10327000828004E082884FF6FB731A408280704798
:1032800021B1828842F00802828004E082884FF6F1
:10329000F7731A408280704721B1828842F00102A0
:1032A000828004E082884FF6FE731A408280704765
:1032B0000A460021018B4FF6F77319401143018331
:1032C00070470A460021018B4FF2FF7319404FF6F9
:1032D000FF7303EA02231943018370470A46002162
:1032E000818B4FF6F77319401143818370470A466B
:1032F0000021818B4FF2FF7319404FF6FF7303EAF1
:1033000002231943818370470A460021018B4FF63F
:10331000FB7319401143018370470A460021018B5A
:103320004FF6FF3319404FF6FF7303EA02231943A8
:10333000018370470A460021818B4FF6FB731940C9
:103340001143818370470A460021818B4FF6FF337A
:1033500019404FF6FF7303EA022319438183704734
:103360000A460021018B4FF67F73194011430183F8
:1033700070470A460021018BC1F30E014FF6FF731F
:1033800003EA02231943018370470A460021818B17
:103390004FF67F7319401143818370470A4600211D
:1033A000818BC1F30E014FF6FF7303EA0223194329
:1033B000818370470A460021018C4FF6FD73194046
:1033C0001143018470470A460021018C4FF6F773C0
:1033D00019401143018470470A460021018C4FF6C1
:1033E000DF7319404FF6FF7303EA02131943018498
:1033F00070470A460021018C4FF67F7319404FF643
:10340000FF7303EA02131943018470470A4600213F
:10341000018C4FF6FF5319404FF6FF7303EA022366
:103420001943018470470A460021018C4FF2FF7353
:1034300019404FF6FF7303EA0223194301847047D2
:103440000A460021018C4DF6FF7319404FF6FF73B9
:1034500003EA023319430184704730B50023012485
:103460008C40A3B2048C9C430484048C02FA01F5C2
:10347000ADB22C43048430BD30B5002304248C400D
:10348000A3B2048C9C430484048C02FA01F5ADB20F
:103490002C43048430BD70B5034600200024184638
:1034A000183001258D40ACB21D8CA5431D8409B197
:1034B000082909D100EB6100056825F07005056059
:1034C0000568154305600EE00D1FC5F34E05284441
:1034D000056825F4E045056005684FF6FF7606EAC5
:1034E00002263543056070BD21B1028842F0020218
:1034F000028004E002884FF6FD731A400280704794
:1035000021B1028842F00402028004E002884FF6F2
:10351000FB731A400280704721B1828842F080021A
:10352000828004E082884FF67F731A408280704761
:1035300002884FF6F7731A40028002880A4302801D
:10354000704782884FF68F731A40828082880A43C0
:103550008280704702894FF6F8731A40028102890F
:103560000A430281704702894FF67F731A40028135
:1035700002890A43028170478184704781857047C0
:10358000818670470187704781877047A0F8401097
:10359000704702884FF6FF431A40028002880A43B0
:1035A000028070470146888E70470146088F704739
:1035B0000146888F70470146B1F8400070470146C8
:1035C000888C70470146088D704702460020138A98
:1035D0000B400BB1012000E000207047CA4302827B
:1035E000704730B50246002000230024158A05EA02
:1035F0000103958905EA010413B10CB1012000E033
:10360000002030BDCA4302827047000010B5044656
:10361000FB48844209D101218803FFF79FF800216C
:103620004FF48040FFF79AF832E0F648844209D11F
:1036300001214804FFF79FF800214FF40030FFF705
:103640009AF825E0F048844209D101218804FFF767
:1036500092F800214FF48020FFF78DF818E0EB4836
:10366000844209D10121C804FFF785F800214FF4F5
:103670000020FFF780F80BE0E548844208D10121E3
:103680000805FFF778F800214FF48010FFF773F872
:1036900010BD2DE9F04786B005460E460024A2462F
:1036A00000BFA1460027B08900B100BF2F462C8A79
:1036B0004CF6FF700440F08804432C82AC894EF62F
:1036C000F3100440B08831890843718908430443EA
:1036D000AC81AC8A4FF6FF400440B0890443AC8211
:1036E00001A8FEF7B4FFC648874202D1DDF810A05A
:1036F00001E0DDF80CA0A88900F4004040B10AEB1D
:10370000CA0000EB0A1031684900B0FBF1F807E08D
:103710000AEBCA0000EB0A1031688900B0FBF1F82F
:103720006420B8FBF0F004012009642101FB10893A
:10373000A88900F4004040B1322000EBC900B0FB82
:10374000F1F000F00700044308E0322000EB09101C
:103750006421B0FBF1F000F00F0004432C8106B0AF
:10376000BDE8F0874FF41651016000218180C180CF
:1037700001810C21418100218181704710B50246F1
:103780000020108A4FF2FF0318400B884C88234317
:103790008C882343CC8823431843108210BD00211A
:1037A000018041808180C180704721B1828942F4CB
:1037B0000052828104E082894DF6FF731A408281B3
:1037C0007047F0B50346002400260025002040F68F
:1037D0006A17B94200D100BF1846C1F3421401F084
:1037E0001F06012707FA06F5012C01D10C3004E071
:1037F000022C01D1103000E014301AB107682F43B9
:10380000076002E00768AF430760F0BD1AB1838A22
:103810000B43838202E0838A8B4383827047028A50
:103820004FF6F0731A400282028A0A4302827047FE
:1038300082894FF2FF731A40828182890A43828112
:10384000704721B1828942F00202828104E08289BC
:103850004FF6FD731A4082817047028A4FF6DF737C
:103860001A400282028A0A430282704721B1028A08
:1038700042F48042028204E0028A4BF6FF731A404F
:1038800002827047C1F3080282807047014688882F
:10389000C0F308007047818941F0010181817047C0
:1038A000028BD2B20283028B42EA0122028370476A
:1038B000028B02F47F420283028B0A430283704729
:1038C00021B1828A42F02002828204E0828A4FF68D
:1038D000DF731A408282704721B1828A42F010025F
:1038E000828204E0828A4FF6EF731A408282704728
:1038F00021B1828A42F00802828204E0828A4FF675
:10390000F7731A408282704721B1828942F40042E3
:10391000828103E08289C2F30E028281704721B165
:10392000828A42F40062828204E0828A4FF2FF734C
:103930001A4082827047828A4FF6FB731A40828255
:10394000828A0A438282704721B1828A42F002024F
:10395000828204E0828A4FF6FD731A4082827047A9
:1039600002460020B1F5007F00D100BF13880B4054
:103970000BB1012000E00020704701F40072B2F5A5
:10398000007F00D100BFCA430280704770B5024675
:10399000002400230025002040F66A16B14200D121
:1039A00000BFC1F3421501F01F03012606FA03F31D
:1039B000012D02D19689334006E0022D02D1168AEC
:1039C000334001E0968A33400C12012606FA04F4D3
:1039D0001688344013B10CB1012000E0002070BD06
:1039E00010B50022002340F66A14A14200D100BFA6
:1039F0000A1201249440A3B2DC43048010BD0000ED
:103A0000003801400044004000480040004C0040A5
:103A1000005000400648804706480047FEE7FEE7A2
:103A2000FEE7FEE7FEE7FEE7FEE7FEE7FEE7FEE76E
:103A3000E31600083101000808B501214820FEF70F
:103A400073FE2020ADF8000010208DF80300032045
:103A50008DF8020069468048FEF7AAFB20217E48C7
:103A6000FEF753FC2020ADF8000069467B48FEF7C6
:103A70009FFB20217948FEF748FC08BD4FF4006108
:103A800005E000BF0A00A1F1010399B2FAD10200DA
:103A9000A0F1010398B2F4D1704700BF00230A22BD
:103AA00019466F480068FCF7B5FD012815D12021A3
:103AB0006948FEF72CFC20216848FEF726FC69A027
:103AC00000F0EDF94FF4FA70FDF722F900231A46E1
:103AD000194663480068FCF7B2FC6420FDF718F94A
:103AE000DCE700BF00230A2219465D480068FCF7A6
:103AF00091FD012815D120215748FEF706FC202111
:103B00005648FEF704FC5DA000F0C9F94FF4FA70C6
:103B1000FDF7FEF800231A46194651480068FCF7E5
:103B20008EFC6420FDF7F4F8DCE700BF4FF6FF7170
:103B30005848FEF7EAFB4FF6FF715748FEF7E7FBE0
:103B40004FF4FA70FDF7E4F84FF6FF715148FEF7B5
:103B5000DEFB4FF6FF715048FEF7D7FB4FF4FA70CB
:103B6000FDF7D6F83D48FEF7BFFB4C48FEF7BCFB1F
:103B70004FF4FA7000F0BDFB00235A1E1946484866
:103B80000068FCF747FD474802884748018847A07E
:103B900000F00CFE002408E04C4830F814202146C8
:103BA0004BA000F003FE601C84B20A2CF4DB4C48EE
:103BB000002000BF00231A46194639480068FCF768
:103BC0003EFCB3E71FB500F089F94FF4165000F042
:103BD000CAF800F0D9F900F061FB00F089FA03227D
:103BE00000210120FCF77EFB1D49086008460068A3
:103BF00030B100231A46194619480068FCF71FFC2B
:103C000000F046F900200123CDE900300290034680
:103C1000642234A10390AFF2ED00FCF76CFE0020AB
:103C20000223CDE900300290034632222FA10390F7
:103C30003148FCF760FE00200223CDE900300290FD
:103C4000034632222DA103903048FCF754FEFDF7C5
:103C500034FA00BFFEE70000000C014000180140EC
:103C60007C000020765265645F6C65645F6F6E2037
:103C70007461736B202E200D0A0000007647726578
:103C8000656E5F6C65645F6F6E207461736B202E70
:103C9000200D0A0000140140001C014000200140DA
:103CA000840000208E0000208C0000204750494FE7
:103CB000452049532025782C204750494F4720491B
:103CC00053202578202E0D0A0000000030460020E9
:103CD00061646325642069732025642E0D0A000049
:103CE0009C000020765461736B31000076494F5F71
:103CF00052656672657368002D3F00087650574D17
:103D00005F52656672657368000000008B400008B2
:103D1000704700BFFEE700BFFEE700BFFEE700BF41
:103D2000FEE77047704770477047000070B5044663
:103D30000D46E1B25248FFF7A5FD00BF40215048B3
:103D4000FFF70EFE0028F9D0204670BD00BF4C489A
:103D5000008800F020000028F9D04948001D0088A4
:103D6000C0F30800704710B586B00446012144F244
:103D70000400FEF7D9FC4248FFF748FC4FF40070FE
:103D8000ADF8140003208DF8160018208DF81700E8
:103D900005A93C48FEF70CFA4FF48060ADF814001A
:103DA00004208DF8170005A93648FEF701FA0194A2
:103DB0000020ADF80800ADF80A00ADF80C00ADF831
:103DC00010000C20ADF80E0001A92D48FFF761FC92
:103DD00025208DF8000003208DF801008DF80200E9
:103DE00001208DF803006846FDF701FD012240F235
:103DF00025512348FFF7E5FC01212148FFF7D5FCB9
:103E000006B010BD10B540F225511D48FFF7BEFDAC
:103E100010B31B48FFF73AFDC4B21B48008800F4FA
:103E20000040C8B91848008800F4804060B10A2CEE
:103E300003D000201449088020E01348008840F493
:103E400000401149088019E00D2C06D10E48008869
:103E500040F480400C49088010E00B480088C0F313
:103E60000D000A490C5408480088401C0649088087
:103E700008460088C72801DD0020088010BD00002A
:103E80000038014000080140800000206845002003
:103E900010B50120FCF743FB0D49086010BD10B5BB
:103EA000044600235A1E194609480068FCF7B2FB75
:103EB000214608A000F07AFC0748002000BF00233C
:103EC0001A46194602480068FCF7B9FA10BD00000E
:103ED00084000020257300009C00002008B501210B
:103EE0004FF4F070FEF720FC4FF6FF70ADF80000C5
:103EF00003208DF8020010208DF8030069461A484F
:103F0000FEF756F969461948FEF752F94FF6FF7069
:103F1000ADF8000048208DF8030069461448FEF70C
:103F200047F969461348FEF743F908BD00BFFDF79E
:103F3000A5FA114801880C48FEF7F0F90F480188EE
:103F40000948FEF7EBF90A48FEF7CEF90C4908805C
:103F50000848FEF7C9F90B490880FDF79CFA0A20CA
:103F6000FCF7D6FEE3E7000000140140001C01400E
:103F70000018014000200140880000208A00002035
:103F80008C0000208E00002000B589B0012109209E
:103F9000FEF7CAFB01214C48FEF7DBF94FF47070C5
:103FA000ADF8200018208DF8230003208DF82200A2
:103FB00008A94648FEF7FCF801210420FEF7C1FBE2
:103FC000434800684349B0FBF1F0401E4249088075
:103FD00040F29920ADF8180008460088ADF81400AA
:103FE0000020ADF81A00ADF8160005A93B48FEF711
:103FF000D3FC6020ADF804000120ADF8060038487D
:104000000088ADF80A000020ADF80C0001A9334883
:10401000FEF7FFFC08213148FFF74AF90120ADF80F
:10402000060030480088ADF80A0001A92B48FEF7C9
:1040300032FD08212948FFF744F90120ADF80600B8
:1040400029480088ADF80A0001A92448FEF770FD50
:1040500008212248FFF742F90120ADF80600234865
:104060000088ADF80A0001A91C48FEF7ACFD082144
:104070001A48FFF73CF901211848FFF7E9F8012138
:104080001648FEF7E5FF09B000BD00BFFDF7F6F9E1
:10409000134801881148FFF773FA124801880F4846
:1040A000FFF770FA104801880C48FFF76DFA0F48C7
:1040B00001880A48FFF76AFAFDF7EDF94FF4FA7044
:1040C000FCF726FEE2E7000000013000000C014092
:1040D0005400002000366E019800002000080040C7
:1040E0009000002092000020940000209600002004
:1040F00000B591B04FF48040FEF77AFA0121032019
:10410000FEF705FB01214FF40770FEF70DFB0320BE
:10411000ADF8400000208DF8430010A95948FEF783
:1041200047F80320ADF8400010A95748FEF740F8C3
:104130003F20ADF8400010A95448FEF739F8544824
:10414000FDF7ACFE534800905348019000200290C8
:104150000A200390002004908020059040000690E3
:1041600080000790202008900002099000200A900B
:1041700069464748FDF734FF01214548FDF75BFFDD
:1041800000200B9001208DF830008DF831004FF4A5
:1041900060200D9000200E900A208DF83C000BA9A5
:1041A0003C484C38FDF7B3FB052301220021394878
:1041B0004C38FDF744FC05230222012135484C38D8
:1041C000FDF73DFC05230322082132484C38FDF75A
:1041D00036FC0523042209212E484C38FDF72FFC1C
:1041E00005231A460A212B484C38FDF728FC0523E5
:1041F00006220B2127484C38FDF721FC0523072216
:104200000C2124484C38FDF71AFC052308220D2107
:1042100020484C38FDF713FC052309220E211D48C8
:104220004C38FDF70CFC05230A220F2119484C38A5
:10423000FDF705FC012117484C38FDF79FFB0121D4
:1042400014484C38FDF78FFB12484C38FDF7ADFB96
:1042500000BF10484C38FDF7ADFB0028F9D10D48E0
:104260004C38FDF7B1FB00BF0A484C38FDF7B1FBF5
:104270000028F9D1012107484C38FDF7B4FB11B0F3
:1042800000BD000000080140000C0140001001408A
:10429000080002404C2401403046002000B585B0A3
:1042A00001210420FEF740FA01214807FEF749FAF0
:1042B0001020ADF8100000208DF8130003208DF8B9
:1042C000120004A91F48FDF773FF00200090019021
:1042D00002900220039069460020FDF724FD012191
:1042E0000020FDF73DFD00210846FDF79AFD05B0D1
:1042F00000BD2DE9F0470446204600F01AF981463A
:104300001149484600F068F881464FF08B41484615
:1043100000F030F8824600F025F907464FF066328B
:104320000A4B00F097F8054600F02FF98146484601
:1043300000F004F985B229460020FDF772FDBDE8C2
:10434000F08700000008014000007A4466660A40D9
:1043500040EA01039B0703D009E008C9121F08C007
:10436000042AFAD203E011F8013B00F8013B521E87
:10437000F9D2704780EA010210B502F00043400014
:1043800022D04A001FD0010E01EB1261C0F356008B
:10439000C2F3560240F4000042F40002A0FB0220E7
:1043A00000047F39140400D0401C50EA124001D4AC
:1043B0004000491EC2B20C0604EBD010401C40085D
:1043C000802A02D003E0002010BD20F00100002967
:1043D00000DA0020184310BD30B480EA010202F078
:1043E000004530F0004221F0004013D090B1C30DE1
:1043F000D40DC2F31601C0F31600E41A41F4000113
:1044000040F400027D34914201D3641C00E0490075
:10441000002C02DA30BC002070474FF4000000236B
:10442000914201D3891A034340084FEA4101F7D171
:1044300051B1914202D14FF0004105E002D24FF05C
:10444000010101E06FF0010103EBC450284430BCCE
:1044500000F0E8B82DE9F04D81EA030404F0004BC8
:1044600021F0004514464FF0000A23F0004150EAC5
:10447000050220D054EA01021DD0C5F30A570246B6
:10448000C5F31303C1F31300C1F30A5640F48015BA
:1044900043F48013A7EB0608101BD64608F2FD383C
:1044A00073EB050002D308F1010801E092185B41AB
:1044B000B8F1000F03DA00200146BDE8F08D0020BE
:1044C0004FF48011064684460EE0171B73EB050778
:1044D00005D3121B63EB050306434CEA010C4908A4
:1044E0004FEA300092185B4150EA0107EDD152EAE1
:1044F000030012D082EA040083EA0501084305D0D4
:10450000101BAB4106D20122002306E000224FF02F
:10451000004302E06FF0010253101AEB06004CEB6F
:10452000085110EB0A0041EB0B01BDE8F04D00F023
:10453000B0B896230022114600F07DB820F000406C
:10454000C10DC0F3160040F400007F2901DA0020FD
:104550007047962903DCC1F19601C840704796392F
:104560008840704700F0004230F000400AD0C10D92
:1045700001F56071C0F3160042EA0151C20840071C
:104580001143704700200146704701F0004330B4EA
:1045900021F0004150EA010206D00A0DA2F5607236
:1045A000C1F31301002A02DC30BC00207047440F25
:1045B00044EAC104C100E01830BC00EBC25000F076
:1045C00031B82DE9F05F0546002092469B468846AB
:1045D0000646814640241BE028464146474622467F
:1045E00000F0D3F853465A46C01A914110D31146F1
:1045F0001846224600F0BAF82D1A67EB01084F461C
:1046000022460120002100F0B1F817EB00094E41CD
:10461000201EA4F10104DFDC484631462A46434609
:10462000BDE8F09F0029A8BF7047401C490008BFA3
:1046300020F00100704710B4B0FA80FC00FA0CF0D2
:1046400050EA010404BF10BC704749B1CCF120040A
:1046500021FA04F411FA0CF118BF01212143084397
:10466000A3EB0C01CB1D4FEA00614FEA102042BFC3
:10467000002010BC704700EBC35010440029A4BFB9
:1046800010BC7047401C490008BF20F0010010BC5E
:10469000704710B5002B08DA401C41F10001921858
:1046A0005B411A4301D120F0010010BD2DE9F04D0E
:1046B00092469B4611B1B1FA81F202E0B0FA80F263
:1046C0002032904600F052F804460F4640EA0A00B5
:1046D00041EA0B0153465A46084313D0114653EAA8
:1046E000010019D0C8F14002504600F04EF80546CE
:1046F0000E4650465946424600F038F8084305D069
:10470000012004E020463946BDE8F08D0020054335
:1047100046EAE0762C4337430A986305E40AA0EBA7
:1047200008000022FD0A44EA47540A3002D500205E
:104730000146E9E7010510196941DDE9084500195D
:104740006941BDE8F04DA4E7064C074D06E0E0687E
:1047500040F0010394E8070098471034AC42F6D3C8
:10476000FBF7EAFCA84A0008C84A0008202A04DB34
:10477000203A00FA02F1002070479140C2F1200374
:1047800020FA03F3194390407047202A04DB203AB3
:1047900021FA02F00021704721FA02F3D040C2F161
:1047A0002002914008431946704700000FB4054BA2
:1047B00010B503A9044A029800F018F810BC5DF87F
:1047C00014FB00002D3D00089C00002002E008C8FA
:1047D000121F08C1002AFAD170477047002001E07B
:1047E00001C1121F002AFBD1704700002DE9FF4FC5
:1047F0008DB09B460F460446002606E025280BD0C8
:104800005A460F999047641C761C20780028F5D1F1
:1048100011B03046BDE8F08F0025A8460122974927
:1048200000E0054314F8013F203B02FA03F0084280
:10483000F7D120782E2817D114F8010F45F0040580
:104840002A280ED06FF02F022078A0F1300109291C
:104850000AD808EB880102EB410100EB0108641C57
:10486000F2E757F8048B641C20786C280DD004DC28
:104870004C2812D06A2811D104E074280DD07A286F
:104880000CD10AE045F4001507E0617845F4801585
:10489000814202D1641C05F58015641C2278692AC6
:1048A00045D008DC002AB3D0582A67D0632A10D03C
:1048B000642A08D13BE0702A65D0732A13D0752A88
:1048C0005AD0782A5AD010465A460F999047761CEB
:1048D000D1E017F8040B8DF8000000208DF80100DE
:1048E000E946012003E057F8049B4FF0FF306907C9
:1048F0004FF0000501D40AE06D1C45450DDA8542F4
:10490000FADB19F805100029F6D106E06D1C854286
:10491000FCDB19F805100029F8D12E4404E019F841
:10492000010B5A460F9990476D1EF8D2A3E00A205A
:104930000021CDE90801C5F3025002280BD001CFB8
:10494000C11700290DDA4FF0000CD0EB0C006CEB16
:1049500001012D2308E0FF1D27F00707F7E80201FA
:10496000EFE72B0504D52B238DF8283001233BE0FE
:10497000EB0739D02023F7E70A2000E010200021C0
:10498000CDE9080107E01020002145F00405CDE93C
:1049900008014FF00808C5F3025002280FD001CFDC
:1049A00000214FF0000A2B071FD5702A0DD0DDE93A
:1049B00008C38CF0100C5CEA030C0CD015E0FF1D52
:1049C00027F00707F7E80201EBE740228DF82820DF
:1049D0004FF0010A0BE050EA010306D030238DF8B6
:1049E00028308DF8292002239A46582A04D024A280
:1049F0000DF120090B9209E026A2F9E7DDE9082371
:104A0000FFF7DFFD0B9B9B5C09F8013D50EA0102BB
:104A1000F4D1ADEB090020300890680701D44FF0C5
:104A200001080899884502DDA8EB010000E000209C
:104A30008046002506E00AA85A46405D0F99904737
:104A40006D1C761C5545F6DB04E030205A460F9964
:104A50009047761CB8F10001A8F10108F5DC05E0EB
:104A600019F8010B5A460F999047761C0899481E71
:104A700008900029F4DC641CC7E600000928010046
:104A800030313233343536373839616263646566C4
:104A90000000000030313233343536373839414286
:104AA0004344454600000000C84A000800000020BA
:104AB000A0000000CC470008684B0008A0000020C0
:104AC000A8490000DC4700080000000000000000CA
:104AD00000000000000000000000000000000000D6
:104AE00000000000000000000000000000000000C6
:104AF0000000000000000000FFFFFFFF00000000BA
:104B0000AAAAAAAA000000000000000000000000FD
:104B100000000000F84300000000000000A24A046A
:104B2000000000000000000001020304060708095D
:104B30000000000001020304010203040607080943
:104B40000204060800000000000000000000000051
:104B500000000000000000004D01F900A600530015
:084B600000000000000000004D
:0400000508000131BD
:00000001FF
